:020000040800F2
:10000000E08F0020950200084B04010811BE000893
:1000100049040108692C000875A5010800000000CA
:100020000000000000000000000000009F5F0108C9
:100030008F520008000000009D34010885700108FF
:10004000AF020008AF020008AF020008AF020008CC
:10005000AF020008AF020008AF020008AF020008BC
:10006000AF020008AF020008AF020008AF020008AC
:10007000AF020008AF020008AF020008AF0200089C
:10008000AF020008AF020008AF020008AF0200088C
:10009000AF020008AF020008AF020008AF0200087C
:1000A000AF020008AF020008AF020008AF0200086C
:1000B000AF02000895750108A1780108AF02000899
:1000C000AF020008AF020008AF020008AF0200084C
:1000D000AF02000829A10108AF02000831A20108FF
:1000E000AF020008AF020008AF020008AF0200082C
:1000F000AF020008AF020008AF020008AF0200081C
:10010000AF020008AF020008697F0108AF020008D3
:10011000AF020008AF02000849800108AF020008E2
:10012000AD500008AF020008AF020008AF0200089F
:10013000AF020008AF020008AF020008AF020008DB
:10014000AF020008AF020008AF020008AF020008CB
:10015000AF020008AF020008AF020008AF020008BB
:10016000AF020008AF020008AF020008AF020008AB
:10017000AF020008AF020008AF020008AF0200089B
:10018000AF020008AF02000800F002F800F072F8B9
:100190000AA090E8000C82448344AAF10107DA45E2
:1001A00001D100F067F8AFF2090EBAE80F0013F0C2
:1001B000010F18BFFB1A43F00103184700AB0400FE
:1001C00020AB04000A444FF0000C10F8013B13F080
:1001D000070408BF10F8014B1D1108BF10F8015BA0
:1001E000641E05D010F8016B641E01F8016BF9D193
:1001F00013F0080F1EBF10F8014BAD1C0C1B09D1EA
:100200006D1E58BF01F801CBFAD505E014F8016B5B
:1002100001F8016B6D1EF9D59142D6D370470000ED
:100220000023002400250026103A28BF78C1FBD8FF
:10023000520728BF30C148BF0B60704766292BF0BA
:10024000F387642900F08280002070471FB52BF0EF
:10025000DEFF00F093FE0400002000212BF0E0F907
:10026000401C6060002000212BF0C4F9E0601FBD3D
:1002700010B510BD00F0F6FF1146FFF7E7FF2AF0BA
:10028000FFFC01F09FFA03B4FFF7F2FF03BC01F09B
:10029000CDFC00000948804709480047FEE7FEE71B
:1002A000FEE7FEE7FEE7FEE7FEE7FEE7FEE7FEE726
:1002B00004480549054A064B704700004D71010886
:1002C00089010008E0890020E08F0020E08B0020F9
:1002D000E08B00200FB41CB5074B06AA7B4469468F
:1002E0000090059800F03BFD0020694600F04AFDB3
:1002F0001CBC5DF814FB0000A50A000070B50446A4
:1003000085690068C10601D5302600E02026C007B7
:1003100007D070BDD4E9012130469047206A401CC7
:1003200020626D1EF6D570BD70B5044685690078F3
:10033000C00707D170BDD4E9012120209047206A71
:10034000401C20626D1EF6D570BD00002DE9F04105
:100350000646002410687529314616A510D0AFF363
:100360000080002802DA404213A507E031688A07BE
:1003700001D512A502E0490704D511A5012401E029
:10038000AFF3008000210A2206F1240709E0B0FB48
:10039000F2FCB0FBF2F302FB1C003030785418463C
:1003A000491C0028F3D123462A463046BDE8F041D7
:1003B00000F067BA000000002D0000002B000000D4
:1003C000200000002DE9F05F894604464FF0000A46
:1003D000DFF824B1FB44C0F820A02046E16888473C
:1003E00000287DD0252806D0D4E901219047206A35
:1003F000401C2062F1E700255F462046E1688847FF
:100400002028064607DB312E05D2B81910F8200C3B
:1004100008B10543F1E7A80701D525F00405C4F8A4
:100420001CA00027C4F818A02A2E09D030462AF0B4
:10043000CBF938B304EB8708303EC8F8186019E0F0
:1004400059F8041B204604EB87029161E168884754
:10045000012F064618D1E069002820DA25F0200592
:100460001DE0D8F8180000EB800006EB40003038A3
:10047000C8F818002046E168884706462AF0A4F923
:100480000028EED1012F0AD02E2E08D12046E16897
:1004900088477F1C0646022F45F02005C4DBA06973
:1004A000002803DA404245F00105A061E80701D0C9
:1004B00025F01005A6B1A6F14100192802D8203672
:1004C00045F400654A463146204625604D46FFF713
:1004D000B5FE60B1012807D0ED1D25F0070000E052
:1004E00007E000F1080978E705F1040975E73046EF
:1004F0007AE7206ABDE8F09F00A8040070B50646C0
:1005000000F0B0F90468054630460A22002100F0E8
:1005100091FC2C6070BD40EA0103024630B59B0798
:1005200010D14FF0013400E008C208C91D1B9D43E3
:1005300015EAC41FF8D013F0FF0102F8011B0DD01B
:100540001B0AF8E711F8013B002B02F8013B05D02C
:1005500011F8013B002B02F8013BF3D130BD10B57F
:10056000431C02E010F8011B71B18107FAD14FF072
:10057000013202C88C1A8C4314EAC211F9D0C01A95
:100580000A0603D0C01E10BDC01A10BD0A0401D057
:10059000801E10BD0902FCD0401E10BD421E12F884
:1005A000013F002BFBD111F8013B002B02F8013B6E
:1005B000F9D17047032A40F2308010F0030C00F0AC
:1005C000158011F8013BBCF1020F624498BF11F88D
:1005D00001CB00F8013B38BF11F8013BA2F1040246
:1005E00098BF00F801CB38BF00F8013B11F00303BE
:1005F00000F06780083AC0F0088051F8043B083AE0
:1006000051F804CBA0E80810F5E7121D5CBF51F8C3
:10061000043B40F8043BAFF30080D20724BF11F83D
:10062000013B11F801CB48BF11F8012B24BF00F8A2
:10063000013B00F801CB48BF00F8012B7047431A7B
:1006400028BF9A427FF6B6AF032A1044114440F205
:10065000268010F0030F1EBF11F8013D521E00F856
:10066000013D10F0030F7FF4F6AF11F0030300F02B
:100670002C84083AC0F00B8051F8043D083A51F838
:1006800004CD40F8043D40F804CDFFF7F3BF121D40
:100690005CBF51F8043D40F8043DAFF30080D20741
:1006A00024BF11F8013D11F801CD48BF11F8012C0C
:1006B00024BF00F8013D00F801CD48BF00F8012C2F
:1006C000704710B5203AC0F00B80B1E81850203ABE
:1006D000A0E81850B1E81850A0E81850BFF4F5AFE2
:1006E0005FEA027C24BFB1E81850A0E8185044BF6C
:1006F00018C918C0BDE810405FEA827C24BF51F8D9
:10070000043B40F8043B08BF7047D20728BF31F8CC
:10071000023B48BF11F8012B28BF20F8023B48BF1D
:1007200000F8012B704702F0FF0343EA032242EA7C
:10073000024200F0F6BB4FF0000200B513469446AB
:100740009646203922BFA0E80C50A0E80C50B1F129
:100750002001BFF4F7AF090728BFA0E80C5048BF3D
:100760000CC05DF804EB890028BF40F8042B08BFDB
:10077000704748BF20F8022B11F0804F18BF00F8D7
:10078000012B704710B5044610F0030F08BF11F09D
:10079000030F40F015804FF0013E121FC0F20E8093
:1007A00051F8043BA3EB0E0C2CEA030C1CEACE1C04
:1007B00008BF40F8043BF0D0A1F1040102F10402AB
:1007C000521E08DB11F8013B002B00F8013BF7D16A
:1007D000114600F0A4FB204610BD00004FF0013C84
:1007E00050F8042B51F8043B9A4221D1A2EB0C03A0
:1007F000934313EACC1317D150F8042B51F8043B60
:100800009A4215D1A2EB0C03934313EACC130BD1FC
:1008100050F8042B51F8043B9A4209D1A2EB0C0387
:10082000934313EACC13DBD04FF00000704700BFB6
:10083000D01A01BAB1FA81F101F0180122FA01F0DF
:10084000CB40C1F12001DBB2C0B2C01A2CFA01F3D7
:10085000D11A914311EAC311E6D17047704770472E
:1008600070470000004870478089002010B5FFF7EE
:10087000F9FF006810BD10B50446FFF7F3FF0460F0
:1008800010BD2DE9F0470D4699469246044600F109
:1008900024080168880604D5E06921F01001216070
:1008A00000E00120A84201DD471B00E00027A1690C
:1008B0007A1902EB0900081AA0612078C00602D458
:1008C0002046FFF71BFD002608E0D4E901211AF8B5
:1008D00006009047206A401C761C20624E45F4DBDF
:1008E0002078C0060AD52046FFF708FD06E0D4E9C7
:1008F000012130209047206A401C2062381EA7F159
:100900000107F4DC07E0D4E9012118F8050090475D
:10091000206A401C2062281EA5F10105F3DC204658
:10092000FFF702FD2078000602D50220BDE8F0871F
:100930000120FBE770472DE9FF4F0C461E464FF0A4
:10094000FF378BB0D2E90001DDF860800A908A465B
:10095000C1F30A5505B93D46002108464FF0000095
:10096000BAF1000F00F4400005DA00EB80004FF40C
:10097000400101EA50004FEA9059B9F1010F00DD42
:10098000B9460A9850EA4A000ED044F61050A5F233
:10099000FF3545432F14B8F1000F1ED07542291EB4
:1009A0001EDDC9F100021CE0B8F1010F4FF000009C
:1009B00001D0302103E0F24305E02154401CB04255
:1009C000FBDB30460022002121540B99C1F808803E
:1009D000C1E900200FB0BDE8F08FBD1B6D1CDEE744
:1009E0004A4600DA694206A800F0CAFB06AB93E863
:1009F000070003AB83E8070050460A9901F030F97D
:100A00008DE80700A0F500501F3800900398002DD6
:100A10000ADD42F21F014A460844002303A903905D
:100A2000684601F0DBFB09E0A0F500504A461F389C
:100A3000002303A90390684601F0FAFB8DE8070044
:100A40000004000C03D04FF0FF30410800E01046D6
:100A5000B8F1000F03D00022009215461EE0751E6B
:100A600005D400F08FFA303262556D1EF9D5B346C9
:100A70000122084302D000227F1C04E020783028A5
:100A800001D100227F1E002A099784D01DE0112D7C
:100A900007DA00F077FA303262556D1C50EA010235
:100AA000F5D1084302D00098C8B10EE00021681EBD
:100AB00005E0235C625C63542254401E491C814261
:100AC000F7DBAB46A81B401E0990002004F80B0082
:100AD0000B98099AC0F80880C0E9002B7AE7112624
:100AE0004FF0000857E72DE9F04F88460446D21D25
:100AF00022F0070191B0D1E90001CDE90A0124F00B
:100B000097F802460B98C00F01D02D2007E020680F
:100B1000810701D52B2002E0202101EAC000032A31
:100B2000099001D0072A05DB03464146204600F024
:100B300077FA0BE12078800601D5E06900E0062015
:100B4000B8F1650F814606D0B8F1660F18D0B8F13C
:100B5000670F70D131E00020B9F1110F009001DB77
:100B6000112301E009F101030AAA01A90CA8FFF76A
:100B7000E2FEDDE90C70002609F10105834647E03D
:100B800001204B4600904FF000470AAA01A90CA88B
:100B9000FFF7D1FEDDE90DB00C995D46002610B9D6
:100BA00009F101000D18B9EB050003D4C0F1FF36BF
:100BB00009F10105A5EB09002BE0B9F1010F01DAFC
:100BC0004FF001090020B9F1110F0090484601DDF6
:100BD000112300E003460AAA01A90CA8FFF7ABFE07
:100BE000DDE90C704D4600268346207800070AD4C4
:100BF000AB4500DA5D4601A8012D04DD411911F86D
:100C0000011C302907D04F4502DA17F1040F04DA2E
:100C1000012082460FE06D1EEEE7002F02DCED1B87
:100C20003E4403E0781CA84200DD7D1CB81B00F1A7
:100C3000010A4FF000472078000703D4AA4501DBE2
:100C40004FF0FF3A0021B7F1004F0DF143088DF846
:100C5000431024D002202B23002F01DA7F422D23C2
:100C60000A21021EA0F1010000DC5FB197FBF1FC3C
:100C700097FBF1F201FB1C7C17460CF1300C08F8D5
:100C800001CDEEE7A8F1010003702188090501D527
:100C9000452100E06521A0F1010800F8011C099838
:100CA0000FA9A1EB0807FF1D00B10120411901EBBD
:100CB000EA70A1693844081A401EA0612078C00675
:100CC00002D42046FFF71AFB099828B1D4E9012184
:100CD0009047206A401C20622078C00622D520461A
:100CE000FFF70CFB1EE0002E04DBB34502DD01A87C
:100CF000805D00E03020D4E901219047206A401C4B
:100D00002062761CAAF101005FEA000A0AD100F015
:100D100035F9C0680168405CD4E901219047206A38
:100D2000401C2062281EA5F10105DCDC07E0D4E9A7
:100D3000012118F8010B9047206A401C2062381EE0
:100D4000A7F10107F3DC2046FFF7EEFA032011B00C
:100D500041E6000001694A1C02610878704700B54D
:100D60008FB0CDE901310021059105497944CDE9E4
:100D7000031011466846FFF725FB0FB000BD0000C9
:100D8000E5FFFFFF0A6802F8010B0A6070470000E8
:100D90000FB4002300B589B00CA900910B99CB606A
:100DA000214B7B440693214B7B44079304236FF034
:100DB0000042CDE901321E4A7A446B46089202464F
:100DC00000202BF093FA09B05DF814FB70B50646CD
:100DD0004FF0FF3015460C46324686B00091CDE903
:100DE000010169460020049004A8FFF7D1FF0246E4
:100DF0000498211825B108B1084600E02046286073
:100E0000049800280DD0002A02DD0098884208D0FE
:100E10003246081B69460094CDE9010404A8FFF797
:100E2000B7FF06B070BD0000FB0200001303000016
:100E3000530200002DE9F04791460F4680460446D4
:100E4000002614F8015B2DB100F090F80068405DB9
:100E5000C007F6D12B2D02D02D2D18D0641E4A4686
:100E60003946204600F03CF927B13968A14201D14A
:100E7000C7F800804FF0020471050BD540420028EE
:100E800003DDFFF7EFFC0460A007BDE8F08746F440
:100E90008066E4E70028F8DAFFF7E4FC04606FF00E
:100EA0000040F2E7431A28BF9A427FF60AAC10448A
:100EB00010F0030F11441EBF11F8013D521E00F83F
:100EC000013D10F0030F7FF4F6AF103AC0F00A8036
:100ED00010B531E91850103A20E91850BFF4F9AFB5
:100EE000BDE81040530724BF31E9081020E908107D
:100EF00044BF51F8043D40F8043D12F0030F08BF11
:100F00007047D20728BF31F8023D48BF11F8012CC5
:100F100028BF20F8023D48BF00F8012C70474FF071
:100F200000020429C0F0128010F0030C3FF405AC5D
:100F3000CCF1040CBCF1020F18BF00F8012BA8BFC4
:100F400020F8022BA1EB0C01FFF7F7BB5FEAC17C95
:100F500024BF00F8012B00F8012B48BF00F8012B3B
:100F600070470000004870478089002010B500F0ED
:100F700005F8001D10BD00BFA9A60200004870477B
:100F8000A089002030B5B0F10A024FEA900E71F14D
:100F900000034EEA817EB0EB0E0061EB91014FEA57
:100FA000101E4EEA017E10EB0E0041EB11114FEACC
:100FB000102E4EEA016E10EB0E0041EB11214FEAAC
:100FC000104E4EEA014E10EB0E0041EB114140185D
:100FD00041F100014FEAD00040EA41704FEAD101EF
:100FE00010EB80054FEA810444EA907444EB01045D
:100FF0006D1944EB0404521BA3414FF0000348BF9A
:101000000A3200D530BD401C41F1000130BD10B5A1
:101010000446FFF7ABFF0068005D00F0010010BD63
:101020002DE9F0411F46044603260168072A01F412
:10103000006004DB08B116A505E016A503E008B1C1
:1010400015A500E015A521F010002060A069C01EC4
:10105000A0610FB1401EA0612046FFF74FF94FB1CC
:10106000D4E9012138469047206A401C2062C01C08
:10107000206206E0206AFAE7D4E9012115F8010BA5
:101080009047761EF8D22046FFF74EF9BDE8F08172
:101090004E414E006E616E00494E4600696E66001C
:1010A000426842B1016811F8013B23B1521EC0E908
:1010B0000012184670470121C160881E70474268BF
:1010C0005AB1C368016843B983688B4205D0491E91
:1010D000521CC0E90012002070474FF0FF307047EB
:1010E0002DE9F05F824615468B4600270AF1010480
:1010F000B9460078302801D09DB113E014F8010BF7
:101100000127782803D0582801D045B10AE00DB155
:10111000102D07D1002714F8010B102502E0082537
:1011200000E00A250026B0460EE005FB080005FB9E
:1011300006F101271FFA80F801EB1046B6F5803F53
:1011400000D3B94614F8010B294600F0B0F8002886
:10115000EBDABBF1000F05D00FB1641E00E054467E
:10116000CBF80040B9F1000F06D0FFF77BFB02215E
:101170000160C81EBDE8F09F48EA0640FAE700009B
:101180002DE9F047814616468AB0354878440DC8A7
:101190008DE80D0032487844801C03AC0DC884E80B
:1011A0000D0041F69B300844372190FBF1F290FB93
:1011B000F1F5A5F1800501FB12041B3C02D5644248
:1011C000012000E00020DFF898A080460027FA44C4
:1011D000AAF1BE0A0EE0E0070AD03246684607EBE5
:1011E000470101230AEB810101F022F88DE8070095
:1011F00064107F1C002CEED1194F7F44AE3F19E0E4
:10120000E80715D007EB04100DF1180A90E80E005E
:101210008AE80E00C068F04201D198190890324661
:10122000012306A903A801F003F803AB83E8070034
:101230006D10641C002DE3D14FF001033246694666
:10124000B8F1000F03A802D000F0C8FF01E000F0E1
:10125000EFFFC9E90001C9F808200AB0BDE8F0872E
:10126000D89A04007546FFF77DFEAE460500694634
:10127000534620F00700854618B020B5FFF718F850
:10128000BDE820404FF000064FF000074FF0000887
:101290004FF0000B21F00701AC46ACE8C009ACE808
:1012A000C009ACE8C009ACE8C0098D4670473A28CF
:1012B00000D2303820F02002412A01D3A2F13700B9
:1012C000884201D34FF0FF30704700002DE9FF4FF7
:1012D00006468BB00878FF2806D0491C2D2805D07B
:1012E00000244FF0000908E000200CE00124F8E79A
:1012F00009EB8903491C00EB43090878FF28F7D163
:1013000014B1C9F100008146107800252C46AA4688
:1013100029462D2801D02B2804D1521C2D2813D06A
:10132000002082468B461078FF280FD04FF0000C2B
:101330000A21521CA5FB017804FB018105FB0C115D
:10134000C5194BEB0104EEE70120EAE7002108464E
:101350004FF00000BAF1000F02D000EB800040080F
:10136000C0F38157012F01DD4FF0FF370E9955EA89
:10137000040009EB01080BD04FF0020918F5FA7FC1
:1013800016DA4FEACA70002F706008DD012007E00E
:101390004FEACA70C6E900B00FB0BDE8F08F002078
:1013A0003060FFF75FFAC0F800901821084616E099
:1013B000B8F5FA7F18DD002F02DAF748784401E02B
:1013C000F6487844D0E90010C6E9001040EACA7037
:1013D0007060FFF747FAC0F80090142108460FB07C
:1013E000BDE8F04F2AF01DBF002108464FF0000075
:1013F000B8F10001099002DAC7F1000200E03A46B4
:1014000001DAC8F1000106A8FFF7BAFE06AB93E8BF
:10141000070003AB83E8070044F23E005BEA0401E7
:101420000090584604D144F21E012C465D460091BE
:10143000210C0904014306D10099240444EA15440F
:101440002D041039009104F07F41014306D1009929
:10145000240244EA15642D020839009104F0704119
:10146000014306D10099240144EA15742D01091F96
:10147000009104F04041014306D10099A40044EAE0
:101480009574AD00891E009104F00041084304D119
:1014900000986D196441401E00904FF001033A46D8
:1014A0006846B8F1000FCDE9014503A902DD00F05F
:1014B000D4FE01E000F0A7FEBAF1000F04460D468D
:1014C00001D084F00044002108464FF00000099943
:1014D00040F2FF77484010F00C0F07D124F0004095
:1014E000284303D0C4F30A50B84212D1FFF7BAF927
:1014F000C0F80090C4F30A50B8420AD1A848784412
:10150000D0E90010C6E9001004F000410843706003
:1015100042E7C6E900543FE72DE9FF4F1F464FF071
:10152000000A4FF0FF38454691B0D7E90146CDF8A3
:101530003CA0FFF723FDC0680168405C1090B969CA
:1015400012986D1C8847396A814688470028F6D171
:10155000B9F1FF3F0AD0002E24F4D06411DDB9F1B7
:101560002B0F08D0B9F12D0F0BD102E0404615B07A
:1015700013E744F48064B96912986D1C8847761E9D
:101580008146600504A901D52D2000E02B20002E06
:1015900001F1010B0DF130088DF810003FDDB9F1BC
:1015A000690F08D0B9F1490F05D0B9F16E0F02D01B
:1015B000B9F14E0F1CD13B4601A8009580E85002BE
:1015C000DDE912126FF002002AF094FEC11CCED1A8
:1015D0000EE0B96912986D1C884781461398761EF3
:1015E00044F4007405600F98401C002E0F9016DD27
:1015F000B9F1300FEDD0B9F1780F02D0B9F1580F31
:101600000DD10F9801280AD13B46CDE90054DDE900
:101610001212001F02962AF06BFEC11CA7D110996E
:1016200089453ED144F0800406E01399681CAAF174
:10163000010A44F400740860B9696D1C1298761EA2
:10164000884730288146F0D02BE01099894505D194
:10165000200603D4761E44F0800418E0484629F0A2
:10166000B3F808B3761E0DF123018B4544F40074E2
:1016700008D2A9F130000BF8010B200607D5AAF11A
:10168000010003E0200602D40AF101008246A00511
:1016900002D51399681C0860B96912986D1C8847B7
:1016A0008146002ED1DC53E0002E51DDB9F1650FEB
:1016B00002D0B9F1450F4BD1A00549D5B9696D1CD0
:1016C0001298761E24F440748847002E81460CDD63
:1016D0002B2804D0B9F12D0F07D144F48074B969D7
:1016E00012986D1C8847761E8146E00501D52D2194
:1016F00000E02B2108F8011BCDF8008021E0761EC8
:101700000DF13901884544F400740CD2A9F1300080
:1017100010F0FF0088F8000002D10099884509D92F
:1017200008F1010806E0E00501D51E4801E042F29B
:101730000F708246B96912986D1C884781461398CC
:101740000560002E04DD484629F03EF80028D6D179
:10175000F96912988847FF2053468BF8000088F8F3
:10176000000000200A900B9004AA0CA90AA8FFF719
:10177000ADFDA00502D46FF00100F8E614F0240FCF
:1017800012D0E0071CD13868DDE90A12031D3B6066
:101790000068C0E9001213E02499040016990400BF
:1017A000DA970400F1D8FFFF0AA9684623F090FCFD
:1017B000E00705D13868009A011D396000680260B1
:1017C0002846D4E610B50446AFF300802046BDE8B5
:1017D0001040FEF758BD00002DE9FF4F1F464FF0A7
:1017E0003C0987B04FF00042DDE9141001F1010817
:1017F000DDF858A002EA405003900020059083468F
:10180000054604460490B969461E08988847AAF11F
:10181000010A0290BAF1000F3BDD02982E2815D084
:101820001021FFF744FD00282EDB4FF0010B059936
:10183000014317D0B9F1000F0BDB4A46C11700F086
:10184000FBF905430C43A9F1040905E001200490CC
:101850000BE008B145F0010501200590049820B97E
:10186000361D02E0049800B1361FB969089808F1E6
:1018700001088847BBF1000FAAF1010A0290C9D004
:101880000999C1F80080C5E70298702808D050284F
:1018900006D0F96908988847BBF1000F14D04FE0D3
:1018A000002002900120BBF1000F049009D0B9691B
:1018B000089808F101088847AAF10109B9F1000F59
:1018C00007DCF969089888476FF001000BB0BDE8A4
:1018D000F08F2B2804D02D280CD14FF0FF3004902E
:1018E000B969089808F101088847A9F10109B9F117
:1018F000000FE6DD411CE4D00A21FFF7D8FC0028E8
:10190000DFDB029908F1010801EB810100EB4100E6
:101910000290B969089888470A21FFF7C8FC099A1C
:10192000A9F10109B9F1000FC2F8008001DD00281A
:10193000E7DAF969089888470499029800FB01667C
:1019400055EA040004D004F04041090002D006E04A
:10195000039898E0A40044EA9574AD00B61E04F024
:101960000041080002D16D196441761E159810F0EF
:10197000240F03D04FF00B095C4803E04FF0280917
:101980006FF07D008246564507DAAAEB06018944CE
:10199000B9F1410F01DD4FF0410901200021A9F10A
:1019A000010200F049F9024628400B462140084355
:1019B00001D0012100E00021501E029143F1FF31CE
:1019C00028402140084301D0012000E00020029976
:1019D000834651EA0B014FD0002108464FF000002A
:1019E000039900F4400039B100EB80004FF440014E
:1019F00000EBD07001EA60008015012802DD4FF095
:101A0000FF3000E013D0401C36D0029860B3BBF129
:101A1000000F0CD14A460120002100F00DF92840AA
:101A20002140084301D0012000E00020E0B1012066
:101A30004A46002100F000F9034640190A46614178
:101A40002D1A8C4111D3B9F1400F09DD159810F012
:101A5000240F02D0AAF1340603E0AAF1170600E031
:101A6000761C00254FF0004406E05B1E42F1FF3279
:101A700020EA030521EA0204CAF10100B04206DAB5
:101A80001B49039808430190002000900EE0039A40
:101A9000C4F3D321E80A0A43164940EA44500A43F2
:101AA0003146CDE90002684623F01BFB159810F083
:101AB000240F0BD01598C00715D13868DDE9001246
:101AC000031D3B600068C0E900120CE002A86946F3
:101AD00023F0FEFA1598C00705D13868029A011D57
:101AE0003960006802604046F0E6000002FCFFFF3B
:101AF0000000F07F0000F03F2DE9FF4F92461D46A9
:101B000085B04FF00041DDE9124BDDE914727F1E14
:101B100001EA4B50414940F0FF4940EA01080021E9
:101B200022F020004928049102D04E2828D04CE011
:101B30003BA0012607C88DE80700A9690698641C28
:101B400088477F1E014606D41DF8060018B121F013
:101B5000200181420BD0E96906988847032E34D0D2
:101B6000082E32D06FF0010009B0BDE8F08F761C6E
:101B7000032E01D0082EE0D1601CCAF80000DCE77B
:101B8000A9690698641C88477F1E2AD420F020008B
:101B9000412826D1A9690698641C88477F1E20D455
:101BA00020F020004E281CD1A9690698641C8847A3
:101BB0007F1E48F4002849F48009CAF8004001D487
:101BC000282806D0E969069888475FEACB7012D0CA
:101BD00022E0A9690698641C88477F1E01D400286A
:101BE00003DAE96906988847BCE72928F1D1641C23
:101BF000CAF80040E9E71BF0240F07D028680499D1
:101C0000031D2B600068C0E9001805E02868021D6C
:101C10002A600068C0F800902046A5E70000F07F29
:101C2000494E46494E4954590000000001491820C8
:101C3000ABBEFEE726000200B2F120030AD5C2F1D6
:101C4000200301FA02F120FA03F300FA02F041EA5C
:101C50000301704700FA03F14FF00000704770472E
:101C60005FEA400C08BF91F0000F4FEA8C234FEA67
:101C7000C12243EA51514FEA1C5018BF00F5F04011
:101C80004FEA300018BF41F000415FEA6C5C00F0A1
:101C90002980BCF1FF3F08BF40F080407047130C23
:101CA00006BF12044FF0100C4FF0000C130E04BFCF
:101CB00012020CF1080C130F04BF12010CF1040CFA
:101CC000930F04BF92000CF1020CD30F04BF52001B
:101CD0000CF1010C11464FF00002A0F11F00A0EB27
:101CE0000C00704711F0004F08BF704731F0004101
:101CF0003FF4D5AF0B0C06BF09044FF0100C4FF0AA
:101D0000000C0B0E04BF09020CF1080C0B0F04BFF2
:101D100009010CF1040C8B0F04BF89000CF1020CBB
:101D2000CB0F04BF49000CF1010CCCF12003A0EB58
:101D30000C0022FA03F302FA0CF241EA030100F16B
:101D40000100704720F07F4C80EA030023F07F47BA
:101D5000ACEB070303F57C5300F0004003F1FF03F5
:101D60002DE980494FEA154B09B44FEA144325EA9F
:101D70000B4E24EA03480FF2042606EB132749080A
:101D80003E785FEA320203FB0667C7F5000707FBF0
:101D900006F64FEA54374FEAD64606F1020607FB2D
:101DA000066CCCF1005C4FEA1C472CEA074C07FBA1
:101DB00006F40CFB06F504EB15464FEA961634BF05
:101DC00000204FF000404FEAD13706FB07FC4FEAF6
:101DD0001C4C0CFB0BF7D21B03FB0CF761EB070150
:101DE0000CFB0EF7B0EB074072EB17420CFB08F749
:101DF00034BFA2EB0742B2EB074261EB17414FEA57
:101E00000C444FEA910706FB07FC4FEA1C4C0CFB05
:101E10000BF7B0EBC74072EB573203FB0CF734BF44
:101E2000A2EBC742B2EBC74261EB57310CFB0EF796
:101E3000B0EBC70072EB57720CFB08F734BFA2EB94
:101E4000C702B2EBC70261EB5771039F4FEA816192
:101E500041EA921104EBCC044FEAD1374FEA826297
:101E600006FB07FC42EA90124FEA80604FEA1C4CE6
:101E70000CFB0BF7D21B03FB0CF761EB07010CFB10
:101E80000EF7B0EB074072EB17420CFB08F734BFBC
:101E9000A2EB0742B2EB074261EB17414FEA8C55C8
:101EA0004FEA910704EB9C2406FB07FC4FEA1C4C0D
:101EB0000CFB0BF7B0EBC74072EB573203FB0CF790
:101EC00034BFA2EBC742B2EBC74261EB57310CFB08
:101ED0000EF7B0EBC70072EB57720CFB08F734BF7C
:101EE000A2EBC702B2EBC70261EB577115EB4C25B1
:101EF0004FEA816141EA92114FEA82624FEAD1379B
:101F000042EA901206FB07FC44F100044FEA8060AD
:101F10004FEA1C4C0CFB0BF7D21B03FB0CF761EBDD
:101F200007010CFB0EF7B0EB074072EB17420CFBFE
:101F300008F734BFA2EB0742B2EB074261EB17414F
:101F400015EB1C154FEA813141EA92414FEA82328A
:101F500042EA90424FEA80304FEA0C7644F10004A6
:101F600048EA03434EEA0B484FF0000EB2EB080C70
:101F700071EB030724BF624639464EEB0E0E4FF05D
:101F8000000B0018524149414BEB0B0BB2EB080C14
:101F900071EB03077BF1000B24BF624639464EEB21
:101FA0000E0E4FF0000B0018524149414BEB0B0B4A
:101FB000B2EB080C71EB03077BF1000B24BF624608
:101FC00039464EEB0E0E51EA020718BF46F00106E5
:101FD00016EB0E7655F1000254F1000103D5BDE871
:101FE0008901BDE80088BDE88901BDE80048B6194F
:101FF000524141EB0101A3F10103704780807F7ED4
:102000007D7C7B7A7978777676757473727171706E
:102010006F6E6E6D6C6C6B6A6A6968686766666520
:102020006464636362616160605F5F5E5E5D5D5CAE
:102030005C5B5B5A5A59595858575756565555551F
:102040005454535352525251515050504F4F4F4E7F
:102050004E4D4D4D4C4C4C4B4B4B4A4A4A494949CD
:10206000484848474747474646464545454444440F
:1020700044434343434242424241414146EA0646C9
:10208000A3F570534FEA164646EA42564FEAD2226B
:1020900042EA415210B54FEAD121A3F1010300F009
:1020A0002FF820F0004000F1020C00F0004701EB97
:1020B00000501146BCF5006F40EA070000D210BD89
:1020C000BAF1000F0AD01CB503B44FF004004FF072
:1020D00004014FF000000FBCBDE810404FF00001BC
:1020E000BBF1010FB9BF04484FF0FF310348002195
:1020F00040EA070010BD00BFFFFFEF7F0000F07F48
:10210000002B9C4630D477002BD01CB54FEA370704
:1021100003B44FF010004FF01001BAF1000F06D0D9
:10212000BCF1000FDCBF40F0080040F008014FF0A8
:1021300000000FBCBDE810400BF1010BBBF1010F1B
:1021400008BF5FEA170722BF12F1010211F1010176
:102150004FF0004143F1000300F0004043EA00006B
:102160007047F9D35708D0E746EA064613F1400F07
:102170004FEA16461FDD13F1200FDFBF16430A4654
:10218000002120335B42BED0C3F1200746EA064659
:1021900002FA07F74FEA164646EA0706C3F1200798
:1021A00022FA03F201FA07F721FA03F14FF00003D4
:1021B00042EA0702A7E746EA020646EA06464FEA6F
:1021C000164646EA0106BCBF46EA0646360C4FF004
:1021D00000034FF000024FF0000194E72DE9804C1E
:1021E0009A46934670B491E8380007C831EA400C2B
:1021F00048BF34EA430C03D5FFF7A4FDFFF780FF87
:10220000F0BCBDE8008C2DE9804C9A46934670B432
:1022100091E8380007C831EA400C48BF34EA430C63
:1022200003D5FFF78FFDFFF729FFF0BCBDE8008C59
:102230002DE9804C9A46934670B491E8380007C85F
:1022400010F0804F08BF13F0804F03D100F01AF850
:10225000FFF756FFF0BCBDE8008C2DE9804C9A4694
:10226000934670B491E8380007C810F0804F08BF5B
:1022700013F0804F03D100F005F8FFF7FFFEF0BC2C
:10228000BDE8008C20F07F4780EA030023F07F4CFC
:1022900007EB0C03A3F57C5300F00040A3F1FE0311
:1022A00092F0000F00F0B38095F0000F00F07780FF
:1022B0002DE901494FEA11404FEA144621EA00484E
:1022C00000FB06FC24EA064708FB06F607FB08F8B5
:1022D00000FB07F718EB06484CEB164C4FEA124B85
:1022E00018EB07484FEA15464CEB174022EA0B4E15
:1022F0000BFB06FC25EA06470EFB06F607FB0EFE67
:102300000BFB07F71EEB064E4CEB164C4FF000068E
:102310001EEB074E4CEB174B18EB0B0840F100007F
:1023200018EB0E0B58EB000840F100008F1A4FF02D
:1023300000013CBFC943661B14BFB5EB040C002170
:102340003CBFC943F61B4FEA17444EEA8E0E27EAFC
:1023500004454FEA1C4704FB07622CEA074C05FBC7
:1023600007F70CFB05F604FB0CFC16EB074642EBEB
:10237000174216EB0C4642EB1C421BEB060658EBD1
:102380000202414146EA9E0601D5BDE80189B6191F
:10239000524141EB0101A3F10103BDE801894FEA7C
:1023A00014454FEA114724EA054621EA074C05FB8C
:1023B00007F406FB07F70CFB06F105FB0CFC11EB21
:1023C000074144EB17444FEA124711EB0C4144EB31
:1023D0001C4422EA074C05FB07F206FB07F70CFB3F
:1023E00006F605FB0CFC16EB074642EB174216EB14
:1023F0000C4642EB1C456A1854F1000148BF704777
:10240000B619524141EB0101A3F10103704795F068
:10241000000F37D04FEA11424FEA144721EA024633
:1024200024EA074C02FB07F106FB07F70CFB06F456
:1024300002FB0CFC14EB074441EB17414FEA154734
:1024400014EB0C4441EB1C4125EA074C02FB07F559
:1024500006FB07F70CFB06F602FB0CFC16EB074627
:1024600045EB174516EB0C4645EB1C42121951F192
:10247000000148BF7047B619524141EB0101A3F179
:10248000010370474FEA14454FEA114724EA054615
:1024900021EA074C05FB07F106FB07F70CFB06F2E8
:1024A0004FF0000605FB0CFC12EB074241EB174115
:1024B00012EB0C4251EB1C4148BF7047921841EBA4
:1024C0000101A3F10103704708B54FF47A70009041
:1024D00003E0BDF80000401E0090BDF80000002899
:1024E000F7D108BD2DE9F04188B00121080311F0B2
:1024F0000FFB02278DF81D7001268DF81C6000244B
:102500008DF81E4040200690DFF8A08006A94046C6
:1025100005F0C8FC382506958DF81C708DF81E4016
:1025200003208DF81D008DF81F6006A9404605F0B8
:10253000B9FC05220321404605F0F2FC05220421E6
:10254000404605F0EDFC05221146404605F0E8FC4A
:102550004021404605F0FDFCFFF7B6FF4021404614
:1025600005F0F5FCADF804404FF48270ADF80600BC
:10257000F002ADF80800ADF80A40ADF80C4080104C
:10258000ADF80E00ADF81050ADF812400720ADF8D0
:102590001400074C01A9204613F0E5FC0121204658
:1025A00013F0CAFC08B0BDE8F0810000000402404E
:1025B0000030014030B589B000250895594C16E02F
:1025C0009DF82010012013F08BFC9DF8201024F8BA
:1025D0001100A0880390E088059060890490A0898C
:1025E0000290E08901909DF82000401C08909DF821
:1025F00020000828E4D3BDF814304B4A1078014677
:10260000401C10704748103020F8113011783C29D8
:1026100018D11570069507950AE09DF81C1030F842
:102620001110069B194406919DF81C10491C079136
:102630009DF81C103C29F0D306983C21B0FBF1F02A
:102640003A490860BDF810305078411C5170410083
:1026500034488830435251781E2918D15570069558
:1026600007950AE09DF81C1030F81110069B1944DC
:1026700006919DF81C10491C07919DF81C101E29FD
:10268000F0D306981E21B0FBF1F029490880BDF86F
:102690000830D078411CD170410026484352D1788F
:1026A0006424642917D1D570069507950AE09DF832
:1026B0001C1030F811300699194406919DF81C1031
:1026C000491C07919DF81C106429F0D306981A49FB
:1026D000B0FBF4F00880BDF80C3090780146401C47
:1026E00090701448C83820F811309178642900D1CE
:1026F0009570069507950AE09DF81C1030F81110AA
:10270000069A114406919DF81C10491C07919DF8EA
:102710001C106429F0D306980849B0FBF4F0086057
:1027200009B030BD0C0C00202D01002064000020F9
:1027300062000020C00D0020680000206C00002016
:1027400011B581B00C4C0221204613F001FC002889
:10275000F9D0BDF80410204613F003FC01212046F7
:1027600013F0F6FB0028F9D0204613F0F8FB009098
:10277000BDF800001CBD000000300140F0B59BB06A
:1027800001210D02284611F0C3F90121880511F03D
:1027900095F94020009003268DF8046000248DF800
:1027A000074069462B4805F07DFB02942A480390B8
:1027B0002A4804900594322006900794A8000890B7
:1027C0004000099080000A900B9500010C900D9438
:1027D00001250E950F941094214F02A9384602F05E
:1027E000B3FC0121384602F089FC01221021384651
:1027F00002F090FC02F0A2F8174F01214C3F38463E
:1028000000F070F8119412941394149411A800F02D
:1028100055F815948DF858508DF85950189419940E
:102820008DF8686015A9384600F074F8002301227D
:102830000621384600F094F80121384600F032F8BD
:10284000384600F0C7F80121384600F057F81BB0B1
:10285000F0BD0000000002404C2001405009002063
:10286000106402400CB50020009001900B490AE072
:102870009DF8040031F81000009A104400909DF873
:102880000400401C01909DF804003228F0D3009809
:102890003221B0FBF1F0024908800CBD5009002044
:1028A00060000020002904D0816841F001018160AE
:1028B0007047816821F001018160704710B5074CB5
:1028C000226807490A40D0E900131943D0E90230D1
:1028D000034319431143216010BD0000042301404C
:1028E000E030FCFF002904D0816841F480718160F0
:1028F0007047816821F4807181607047002904D09D
:10290000816841F4007181607047816821F4007131
:102910008160704730B542680F4B1A400C790B68E4
:1029200042EA04221343436083680C4A1340D1E90E
:10293000034222434D798C6844EA450422431A43FA
:102940008260C26A22F47002097D491EC9B242EA5D
:102950000151C16230BD0000FFFEFFFCFDF7FFC06A
:1029600070B5072609290AD9C568A1F10A0404EB44
:102970004404A640B543A3401D43C56007E0056974
:1029800001EB4104A640B543A3401D4305611F234D
:10299000072A09D2446B521E02EB820293409C43E9
:1029A00091400C43446370BD0D2A09D2046BD21FC1
:1029B00002EB820293409C4391400C43046370BD40
:1029C000C46A0D3A02EB820293409C4391400C434F
:1029D000C46270BD816841F0804181607047002809
:1029E00000DC404270474178007841EA002070479F
:1029F00010B50C480078400612D40B4C20684107F3
:102A00000ED5020609484FF4007103D4BDE810400A
:102A100005F09FBA05F09BFA206820F004002060C2
:102A200010BD0000440000203C00002000080240CF
:102A30000549086840F00400044B00221A8020F089
:102A400080000860704700003C0000207A000020F1
:102A500038B5456804460146284617F0C9FD0028E8
:102A60002AD02068304A0F2819D006DC0B2824D041
:102A70000C2810D00E2851D12FE0112802D0282880
:102A80004CD145E09268002A16D02146284601B074
:102A9000BDE830401047214628465268F7E72846EF
:102AA00006F09EF90090406E0468684606F0E2F970
:102AB000002C01D02846A04738BD284606F090F9E2
:102AC0000090683006F0F4F8009803216C3006F0AE
:102AD000F7F8684606F0CEF920E0E1684868096832
:102AE0000D2902D0202913D105E0002810DD284649
:102AF0001EF0F6FE06E0002804DD2846BDE838405A
:102B00001EF0EEBE2846BDE8384002211EF0FEBE93
:102B1000E06818B90021284600F075F82046BDE8A5
:102B2000384018F0D9B90000AC020020F0B50446D6
:102B300085B08069B4F90850668A0027CDE902653E
:102B4000CDE900170490B4F90C00B4F91060C11875
:102B5000B4F90A00B4F90E50104433462A4600F086
:102B600007F80546616800F057F805B02846F0BD43
:102B7000F0B585B00C46DDE90D514C31DFF850C0A1
:102B8000DDE90A67CDE902C12146CDE9006718F009
:102B9000F3F8040018D006F023F910222946049017
:102BA00017F04AFF049830220A493430FDF789FDB6
:102BB000084D04990C3D2868486604A806F05AF9A7
:102BC000286841682046884705B02046F0BD0000CF
:102BD000512A0008B8020020032902D2014A42F813
:102BE00021007047B802002038B50D46040009D016
:102BF00006F0F6F800904565684606F03BF9204679
:102C000018F061FC38BD4FF480720029114601D0E4
:102C100017F078BD17F0CABC2DE9FF410E4605003C
:102C20004FF001041CD006F0DBF80190876E01A87C
:102C3000009706F01FF93146684608F065FF78B145
:102C400000980024B84208D0284606F0C9F8019040
:102C50000099816601A806F00DF9284618F033FCAA
:102C600004B02046BDE8F081FEE700002DE9F05FEA
:102C70007B4C21787B4840F66F0519396F1C8269BF
:102C80006FF0704640F6770840F6780940F6710A12
:102C900040F6790B0C2925D2DFE801F006264564C1
:102CA0002424242483A224C229460546104618F071
:102CB00021FA80463146404614F010FB6FF07F4108
:102CC000404614F05DFB3946A86918F013FA054632
:102CD0006549284614F002FB0021284614F050FBF9
:102CE0001A202070BDE8F09F05463946104618F0BE
:102CF00001FA07463146384614F0F0FA6FF07F418A
:102D0000384614F03DFB4146A86918F0F3F9054632
:102D10005549284614F0E2FA0021284614F030FB09
:102D20001B202070DEE705464146104618F0E2F908
:102D300007463146384614F0D1FA6FF07F413846E5
:102D400014F01EFB4946A86918F0D4F90546464917
:102D5000284614F0C3FA0021284614F011FB1C2069
:102D60002070BFE705464946104618F0C3F90746EC
:102D70003146384614F0B2FA6FF07F41384614F00D
:102D8000FFFA5146A86918F0B5F9054636492846B4
:102D900014F0A4FA0021284614F0F2FA2120207041
:102DA000A0E705465146104618F0A4F907463146FB
:102DB000384614F093FA6FF07F41384614F0E0FA89
:102DC0005946A86918F096F905462749284614F08F
:102DD00085FA0021284614F0D3FA2220207081E7DA
:102DE00005465946104618F085F9074631463846DB
:102DF00014F074FA6FF07F41384614F0C1FA40F6CF
:102E00007201A86918F076F905461749284614F0AA
:102E100065FA0021284614F0B3FA2420207061E7F7
:102E2000074640F67201104618F064F980463146B4
:102E3000404614F053FA6FF07F41404614F0A0FA78
:102E40002946B86918F056F905460749284614F08E
:102E500045FA0021284614F093FA1920207041E722
:102E6000A2010020B4010020FFFFBF00F0B52DED4E
:102E7000028B83B0B0480178B04A00269FEDB00ABB
:102E8000B04C01251929A06938D0DFEDAF0A1A2905
:102E90007ED0AE4A1B297CD01C292BD1217C40F648
:102EA00078031F1D022975D0217C012922D1D188E8
:102EB00000EE101AB8EE400A80EE208A194618F08B
:102EC00019F9A3A114F037FA3946A06918F012F9DC
:102ED000054618EE100A29F029F941EC100BA0A1C3
:102EE00053EC102B01A8FDF7F5F901A9284614F0C1
:102EF00022FA267403B0BDEC028BF0BD617B40F674
:102F00006F031F1D012927D0617B0229F2D1D2F85E
:102F1000801000EE901AF8EE600A80EE808A194662
:102F200018F0E8F890A114F006FA3946A06918F0F4
:102F3000E1F8064618EE100A29F0F8F841EC100BFB
:102F40008DA153EC102B01A8FDF7C4F901A930465F
:102F500014F0F1F96573CDE7D16F00EE901AF8EE39
:102F6000600A80EE808A194618F0C4F884A114F033
:102F7000E2F93946A06918F0BDF8054618EE100AC6
:102F800029F0D4F841EC100B7BA153EC102B02E09C
:102F90000AE05CE0ACE001A8FDF79CF901A9284635
:102FA00014F0C9F96673A5E7A17B4FF407631F1DF1
:102FB000022927D0A17B01299CD1D2F8881000EEEC
:102FC000101AB8EE400A80EE208A194618F092F8DE
:102FD0006FA114F0B0F93946A06918F08BF80546D6
:102FE00018EE100A29F0A2F841EC100B5CA153EC8A
:102FF000102B01A8FDF76EF901A9284614F09BF9E2
:10300000A67377E7D2F88C1000EE101AB8EE400ADB
:1030100080EE208A194618F06DF861A114F08BF942
:103020003946A06918F066F8064618EE100A29F02D
:103030007DF841EC100B4AA153EC102B01A8FDF7D1
:1030400049F901A9304614F076F9A57352E7E17BFE
:1030500040F677031F1D022926D0E17B0129A2D16A
:10306000118800EE901AF8EE600A80EE808A194608
:1030700018F040F84EA114F05EF93946A06918F036
:1030800039F8054618EE100A29F050F841EC100BFB
:1030900039A153EC102B01A8FDF71CF901A9284612
:1030A00014F049F9E67325E7518800EE901AF8EE1E
:1030B000600A80EE808A194618F01CF840A114F0CE
:1030C0003AF93946A06918F015F8064618EE100AC4
:1030D00029F02CF841EC100B27A153EC102B01A880
:1030E000FDF7F8F801A9304614F025F9E57301E77A
:1030F000118900EE101AB8EE400A80EE208A1946B7
:1031000017F0F8FF32A114F016F93946A06917F04C
:10311000F1FF064618EE100A29F008F841EC100BF2
:103120000FA153EC102B01A8FDF7D4F801A93046EC
:1031300014F001F92574DDE6A2010020240B002023
:103140000000C842B401002000007A4488860020B4
:10315000E688AAE6ADA2E794B5E6B58131000000A5
:10316000252E336600000000E8BE93E587BAE79499
:10317000B5E58E8B32000000252E3266000000007F
:10318000E8BE93E587BAE794B5E58E8B3100000081
:10319000E99990E588B6E794B5E6B581310000007D
:1031A000E99990E588B6E794B5E6B581320000006C
:1031B000E688AAE6ADA2E794B5E58E8B3100000063
:1031C000E688AAE6ADA2E794B5E58E8B3200000052
:1031D000E688AAE6ADA2E794B5E6B5813200000024
:1031E000F0B52DED028B83B0AF480178AF4A9FED6B
:1031F000B00AB04C01250226A069192938D0DFEDAC
:10320000AE0A1A297ED0AD4A1B297CD01C292BD1AD
:10321000217C40F678031F1D002975D0217C0129EF
:1032200022D1518900EE101AB8EE400A80EE208AB1
:10323000194617F05FFFA2A114F07DF83946A06986
:1032400017F058FF054618EE100A28F06FFF41EC02
:10325000100B9FA153EC102B01A8FDF73BF801A91F
:10326000284614F068F8267403B0BDEC028BF0BD5C
:10327000617B40F66F031F1D39B3617B0129F3D1D8
:10328000D2F8841000EE901AF8EE600A80EE808A80
:10329000194617F02FFF90A114F04DF83946A06998
:1032A00017F028FF054618EE100A28F03FFF41EC02
:1032B000100B8DA153EC102B01A8FDF70BF801A901
:1032C000284614F038F86673CEE7D2F8801000EE86
:1032D000901AF8EE600A80EE808A194617F00AFF0D
:1032E00083A114F028F83946A06917F003FF0646B9
:1032F00018EE100A28F01AFF41EC100B7AA153ECDB
:10330000102B02E00AE05BE0AAE001A8FCF7E2FF74
:1033100001A9304614F00FF86573A5E7A17B4FF4BF
:1033200007631F1D39B3A17B01299DD1D2F89010ED
:1033300000EE101AB8EE400A80EE208A194617F007
:10334000D9FE6FA113F0F7FF3946A06917F0D2FE3E
:10335000054618EE100A28F0E9FE41EC100B5CA1BE
:1033600053EC102B01A8FCF7B5FF01A9284613F078
:10337000E2FFA67378E7D2F88C1000EE101AB8EED0
:10338000400A80EE208A194617F0B4FE60A113F0BF
:10339000D2FF3946A06917F0ADFE064618EE100AB6
:1033A00028F0C4FE41EC100B49A153EC102B01A8EE
:1033B000FCF790FF01A9304613F0BDFFA57353E75A
:1033C000E17B40F677031F1D31B3E17B0129A4D1D6
:1033D000918800EE901AF8EE600A80EE808A194615
:1033E00017F088FE4EA113F0A6FF3946A06917F02A
:1033F00081FE054618EE100A28F098FE41EC100BED
:1034000039A153EC102B01A8FCF764FF01A9284651
:1034100013F091FFE67327E7518800EE901AF8EE5B
:10342000600A80EE808A194617F064FE40A113F00E
:1034300082FF3946A06917F05DFE064618EE100AB5
:1034400028F074FE41EC100B27A153EC102B01A8BF
:10345000FCF740FF01A9304613F06DFFE57303E769
:10346000118900EE101AB8EE400A80EE208A194643
:1034700017F040FE32A113F05EFF3946A06917F045
:1034800039FE064618EE100A28F050FE41EC100BEB
:103490000FA153EC102B01A8FCF71CFF01A930462B
:1034A00013F049FF2574DFE6A2010020240B002061
:1034B0000000C842B401002000007A448886002041
:1034C000E688AAE6ADA2E794B5E6B5813300000030
:1034D000252E336600000000E8BE93E587BAE79426
:1034E000B5E58E8B33000000252E3266000000000B
:1034F000E8BE93E587BAE794B5E58E8B320000000D
:10350000E99990E588B6E794B5E6B5813300000007
:10351000E99990E588B6E794B5E6B58132000000F8
:10352000E688AAE6ADA2E794B5E58E8B33000000ED
:10353000E688AAE6ADA2E794B5E58E8B32000000DE
:10354000E688AAE6ADA2E794B5E6B58132000000B0
:103550002DE9F05F7B4C21787B4840F66F056E1CAF
:103560001939F71D82696FF0704B40F6780840F604
:10357000710940F6790A0C2926D2DFE801F0062706
:1035800046652525252584A325C2294605461046DE
:1035900017F0B0FD06465946304613F09FFE6FF017
:1035A0007F41304613F0ECFE40F67201A86917F037
:1035B000A1FD05466549284613F090FE00212846E6
:1035C00013F0DEFE24202070BDE8F09F3146064651
:1035D000104617F08FFD07465946384613F07EFE19
:1035E0006FF07F41384613F0CBFE2946B06917F0E3
:1035F00081FD05465549284613F070FE00212846F6
:1036000013F0BEFE19202070DEE70546394610464D
:1036100017F070FD07465946384613F05FFE6FF00D
:103620007F41384613F0ACFE3146A86917F062FDC1
:1036300005464649284613F051FE0021284613F05E
:103640009FFE1A202070BFE705464146104617F03E
:1036500051FD06465946304613F040FE6FF07F415B
:10366000304613F08DFE3946A86917F043FD054634
:103670003649284613F032FE0021284613F080FE1A
:103680001B202070A0E705464946104617F032FD82
:1036900006465946304613F021FE6FF07F41304612
:1036A00013F06EFE4146A86917F024FD0546274930
:1036B000284613F013FE0021284613F061FE1C205B
:1036C000207081E705465146104617F013FD064667
:1036D0005946304613F002FE6FF07F41304613F03A
:1036E0004FFE4946A86917F005FD054617492846CB
:1036F00013F0F4FD0021284613F042FE2120207033
:1037000062E7054640F67201104617F0F3FC0646E4
:103710005946304613F0E2FD6FF07F41304613F01A
:103720002FFE5146A86917F0E5FC054607492846D3
:1037300013F0D4FD0021284613F022FE2220207031
:1037400042E70000A2010020B4010020FFFFBF00FB
:103750002DE9F04F2DED068B85B0FE48416E00EE51
:10376000101AB8EE400ADFEDFC0AC0EE209A816E16
:1037700000EE101AB8EE400ADFEDF80A80EE209A4B
:10378000C16E006F00EE100AB8EE400ADFEDF20ADB
:1037900080EE20AAF2480178F24E1939DFF8C8937A
:1037A00001254FF064084FF4076B9FEDF08BF14A51
:1037B0000024F14F90694FF6FF7A102939D2DFE8E3
:1037C00001F008B2FEFD3DE1FCFBFAF9F8F7F6F571
:1037D000F4F340F66F01174617F08CFC80466FF04B
:1037E0007041404613F07AFD6FF07F41404613F080
:1037F000C7FD40F67301B86917F07CFC0746DF4946
:10380000384613F06BFD0021384613F0B9FD0494DF
:10381000DB4906E09DF810000C549DF81000401C98
:1038200004909DF810000628F4D3CD491D2008709F
:10383000357005B0BDEC068BBDE8F08F40F6730126
:10384000924617F057FC83466FF07041584613F0CC
:1038500045FD6FF07F41584613F092FD38780028FF
:1038600059D03878B0B1029403943A78C449921C84
:1038700002A8FCF787FF02A821F06EFA9FEDC11B9A
:1038800051EC100B53EC112B28F026FA28F090F98C
:10389000B049C867AF48C26F41F638018A4200D9C3
:1038A000C167C16F416041688268B1FBF8F1514363
:1038B000494500D94460406800EE100AF8EE400A1D
:1038C0009FEDA51A80EE810A10EE100A28F02EFC5A
:1038D00041EC100BADA153EC102B02A8FCF7FAFC45
:1038E00002A9584613F027FD40F66F01DAF81800D8
:1038F00017F000FC8046A149404613F0EFFC002180
:10390000404613F03DFD96491920087035703C7013
:1039100018F070FD8DE79A48FCF7F0FD64214843EC
:103920008C49C867B6E75946154617F0E3FB0646CB
:103930006FF07041304613F0D1FC6FF07F4130469C
:1039400013F01EFD04948E4906E09DF810000C54FF
:103950009DF81000401C04909DF810000628F4D338
:1039600040F67401A86917F0C5FB04468349204658
:1039700013F0B4FC0021204613F002FD78491E200C
:10398000087056E740F67401924617F0B3FB0190B9
:103990006FF07041019813F0A1FC6FF07F41019826
:1039A00013F0EEFC38780BE0DCE245E287E19EE0C4
:1039B000D0E3A7E210E216E3FCE344E34FE166E064
:1039C00000285AD03878A8B1029403943A786C4908
:1039D000D21C02A8FCF7D6FE02A821F0BDF953ECD8
:1039E000182B51EC100B28F077F928F0E1F8594921
:1039F000C1F888005748D0F8882042F210718A42F6
:103A000001D9C0F88810D0F88810816041688268B8
:103A1000B1FBF8F15143494500D98460806800EE5C
:103A2000100AF8EE400A9FED4D1A80EE810A10EE62
:103A3000100A28F07BFB41EC100B56A153EC102B25
:103A400002A8FCF747FC02A9019813F074FC594640
:103A5000DAF8180017F04EFB80464849404613F04C
:103A60003DFC0021404613F08BFC3D491A200870B4
:103A700035703C7018F0BEFCDBE64148FCF73EFDBB
:103A80004FF47A7148433349C1F88800B2E740F6F1
:103A90007701154617F02EFB06466FF07041304651
:103AA00013F01CFC6FF07F41304613F069FC049466
:103AB000334906E09DF810000C549DF81000401C9E
:103AC00004909DF810000628F4D340F67B01A86905
:103AD00017F010FB04462949204613F0FFFB002194
:103AE000204613F04DFC1E4925200870A1E640F643
:103AF0007B01904617F0FEFA81466FF07041484610
:103B000013F0ECFB6FF07F41484613F039FC387836
:103B1000F0B13878B0B1029403943A781849921C05
:103B200002A8FCF72FFE02A821F016F99FED151B45
:103B300051EC100B53EC112B28F0CEF828F038F88C
:103B4000164908801548028841F638018A4227E064
:103B500034E00000240B00200000C84200007A443A
:103B6000A20100205401002077D4030000000000CF
:103B700000408F40B401002055010020FFFFBF002E
:103B8000980100200000000000005940252E3266F8
:103B900000000000252E336600000000888600200B
:103BA00000D9018098F80F10A1B198F80F100129E1
:103BB0001AD098F80F10022920D028E0FE48FCF710
:103BC0009DFC00EBC00101EB00100AEA8001FB48FC
:103BD0000180B7E700885FED200A00EE100AB8EE1A
:103BE000400AC0EE209A12E040885FED250A00EE00
:103BF000100AB8EE400AC0EE209A08E080885FED17
:103C00002A0A00EE100AB8EE400AC0EE209A19EE19
:103C1000900A28F08BFA41EC100B53EC102BAFF20A
:103C2000940102A8FCF756FB02A9484613F083FB57
:103C300040F67701D8F8180017F05CFA8046E049A2
:103C4000404613F04BFB0021404613F099FBDD4941
:103C50001B20087035703C7018F0CCFBE9E540F68D
:103C60007801154617F046FA06466FF07041304667
:103C700013F034FB6FF07F41304613F081FB049466
:103C8000CD4906E09DF810000C549DF81000401C32
:103C900004909DF810000628F4D340F67C01A86932
:103CA00017F028FA0446C649204613F017FB0021F6
:103CB000204613F065FBC34926200870B9E540F69D
:103CC0007C01904617F016FA81466FF07041484625
:103CD00013F004FB6FF07F41484613F051FB387836
:103CE00048B33878A0B1029403943A78B249D21C10
:103CF00002A8FCF747FD02A821F02EF853EC182B80
:103D000051EC100B27F0E8FF27F052FFAB49C880B9
:103D1000AA48C28842F210718A4200D9C18098F83C
:103D20001010A1B198F8101001291AD098F81010AD
:103D3000022920D028E0A048FCF7E0FB00EB40017E
:103D4000C1EBC0109D490AEAC000C880E0E7C08806
:103D500000EE100AB8EE400A5FED800A80EE209A6D
:103D600012E0008900EE100AB8EE400A5FED850A05
:103D700080EE209A08E0408900EE100AB8EE400A72
:103D80005FED8A0A80EE209A19EE100A28F0CEF92B
:103D900041EC100B53EC102BAFF2082102A8FCF7FA
:103DA00099FA02A9484613F0C6FA40F67801D8F805
:103DB000180017F09FF980468149404613F08EFAAB
:103DC0000021404613F0DCFA7E491C200870357053
:103DD0003C7018F00FFB2CE540F67901154617F002
:103DE00089F906466FF07041304613F077FA6FF0AC
:103DF0007F41304613F0C4FA04946F4906E09DF801
:103E000010000C549DF81000401C04909DF8100008
:103E10000628F4D340F67D01A86917F06BF9044633
:103E20006749204613F05AFA0021204613F0A8FAF9
:103E3000644927200870FCE440F67D01924617F0A3
:103E400059F980466FF07041404613F047FA6FF021
:103E50007F41404613F094FA3878E8B33878A0B13F
:103E6000029403943A785449D21C02A8FCF78AFCC5
:103E700002A820F071FF53EC182B51EC100B27F027
:103E80002BFF27F095FE5049C8664F48C06E00EEE4
:103E9000100AF8EE400A1FEDCF1A80EE810A10EEEC
:103EA000100A28F043F941EC100B53EC102BAFF241
:103EB0001C3102A8FCF70EFA02A9404613F03BFAA7
:103EC00040F67901DAF8180017F014F980463C49F9
:103ED000404613F003FA00E00BE00021404613F0E7
:103EE0004FFA38492220087035703C7018F082FA79
:103EF0009FE43148FCF702FB4FF47A7148433249A2
:103F0000C866C2E740F67A01154617F0F3F8064690
:103F10006FF07041304613F0E1F96FF07F413046A9
:103F200013F02EFA0494244906E09DF810000C5476
:103F30009DF81000401C04909DF810000628F4D352
:103F400040F67E01A86917F0D5F804461C492046C2
:103F500013F0C4F90021204613F012FA1949282061
:103F6000087066E440F67E01904617F0C3F881467B
:103F70006FF07041484613F0B1F96FF07F41484649
:103F800013F0FEF91AEE100A28F0D0F841EC100BED
:103F900053EC102BAFF20C4102A8FCF79BF902A9DD
:103FA000484613F0C8F940F67A01D8F8180017F01F
:103FB000A1F88046024909E0980100208886002087
:103FC000FFFFBF00A2010020240B0020404613F099
:103FD00085F90021404613F0D3F99D49232008704C
:103FE00035703C7025E440F67101154617F082F8F3
:103FF00006466FF07041304613F070F96FF07F4164
:10400000304613F0BDF90494924906E09DF8100083
:104010000C549DF81000401C04909DF810000628D8
:10402000F4D340F67501A86917F064F804468A498C
:10403000204613F053F90021204613F0A1F98449DA
:104040001F20087066E440F67501924617F052F89A
:1040500080466FF07041404613F040F96FF07F41A9
:10406000404613F08DF93878E8B33878A8B1029457
:1040700003943A787749D21C02A8FCF783FB02A884
:1040800020F06AFE53EC182B51EC100B27F024FEA5
:1040900027F08EFD7149C1F89C007048D0F89C1043
:1040A00047F23052914213D8D0F89C1000EE101A0B
:1040B000F8EE400A9FED6A1A6A496B4A80EE810A5F
:1040C000D1ED000A20EE200A10EE101A914201DD17
:1040D000C0F89C40D0F89C100161006900EE100A05
:1040E000F8EE400A00E02BE09FED5D1A80EE810AB9
:1040F00010EE100A28F01AF841EC100B53EC102BBC
:10410000AFF2705102A8FCF7E5F802A9404613F09F
:1041100012F940F67101DAF8180016F0EBFF80464C
:104120004D49404613F0DAF80021404613F028F9D3
:1041300047492120087035703C7018F05BF920E485
:104140004448FCF7DBF94FF47A7148434349C1F81E
:104150009C00A2E740F67201154616F0CBFF06461A
:104160006FF07041304613F0B9F86FF07F41304680
:1041700013F006F90494374906E09DF810000C543A
:104180009DF81000401C04909DF810000628F4D300
:1041900040F67601A86916F0ADFF04462E49204688
:1041A00013F09CF80021204613F0EAF8284920205B
:1041B000087061E4FFE740F67601904616F09AFF3A
:1041C00081466FF07041484613F088F86FF07F41E8
:1041D000484613F0D5F8387890B3387878B102941F
:1041E00003943A781B4902A8FCF7CCFA02A820F005
:1041F000B3FD51EC100B27F0DBFC88F8000098F8B9
:1042000000201AA102A8FCF765F802A9484613F09D
:1042100092F840F67201D8F8180016F06BFF80464D
:104220000D49404613F05AF80021404613F0A8F813
:1042300007492420087035703C7018F0DBF81BE447
:10424000FFE70448FCF75AF988F80000D7E70000B8
:10425000A201002098010020FFFFBF00240B0020D6
:1042600000007A4424000020000048432533640005
:1042700070B5174C61792046164D806940F6990259
:10428000012912D0A17B01291DD0114616F032FF61
:1042900006466FF07041304613F020F8294630464C
:1042A00013F06EF82F20207070BD114616F022FF1B
:1042B00004462946204613F011F82046BDE8704018
:1042C000002113F05DB8BDE8704000F089BA00002D
:1042D000F4010020FFFFBF002DE9FF4704460068FE
:1042E00010B117F029FE68B10022314850F82210B1
:1042F00060680A2841D007DCF0B306280DD00728F3
:1043000054D106E00122F0E712280AD019284DD135
:1043100037E0204619F0E4F948E020461AF06EFB39
:1043200044E0206804F05CFD0290B0F9548090F8FD
:104330005650476C466B02A804F09CFD206800F0C4
:1043400039F88146684616F0ADFEBDF8001009EB5D
:1043500005000844ADF80000246A304606F062F912
:10436000022006F09FF9384606F052F942466946A7
:10437000204605F009F919E007E020461AF02AFE68
:1043800014E0886904B0BDE8F087206817F098FA57
:10439000206804F025FD0390B0F90610B0F9022062
:1043A000891A491CC16703A804F064FD0020E9E7ED
:1043B0006469040838B504F013FD0090C46F6846C2
:1043C00004F058FD204638BD044A034911600449F1
:1043D000CA69C86110467047E8020020B006002094
:1043E000B406002000B589B024216846FCF7A3F983
:1043F0001920019003480068806841686846884732
:1044000009B000BDB006002070B5FF22FF23084DA3
:1044100005F5807605E010F8014B54402A5D5A40BE
:10442000335D491E89B2F6D243EA022070BD000016
:1044300028C3020810B50A4A0A4C4FF4006100284C
:1044400007D0012804D1104603F083FD0120A0709D
:1044500010BD104603F07BFD0020A07010BD0000D1
:1044600000000240380100207CB51B4C207801255B
:1044700000281DD01948C16F4160D0F888108160B4
:10448000D0F89C100161164805707021682013F067
:1044900026FF2903134803F05AFD08F0C3FCA902C4
:1044A000114803F054FD1148016841F0800101609A
:1044B00025700F49192008700E480024047016F06A
:1044C0000DFE034600940C4A29210C48019404F087
:1044D0007FFE0B4988617CBD56010020240B002023
:1044E00081000020000C024000080240480000202B
:1044F000A2010020800000209D6F0208A4CD0208C8
:10450000B40100201CB50E48002404700D4804704E
:104510000D4804707021682013F0E1FE4FF48051C3
:104520000A4803F014FD16F0D9FD03460094084A2A
:1045300008210848019404F04BFE074908601CBD9F
:10454000560100208100002080000020000C024065
:104550009182020820D20208D00100207CB5134CC1
:104560005020A0710320A070114908700025E5714A
:1045700026F058FD0120FFF75DFF0E480570208BE7
:10458000DFED0D0A00EE100AB8EE400A80EE201AA8
:1045900084ED081A16F0A2FD03460095074A29216A
:1045A0000748019504F014FE60627CBD54010020B0
:1045B000810000208000002000007A443959020860
:1045C0004CC702081CB50F49052008700E4800248E
:1045D00004700E4804707021682013F080FE4FF4C0
:1045E00080510B4803F0B3FC16F078FD03460094AD
:1045F000084A22210848019404F0EAFD074948606E
:104600001CBD000056010020A201002080000020F7
:10461000000C02402186020800D30208E4010020B9
:104620001CB508490620087016F058FD0346002006
:1046300000900190044A0121044804F0C9FD044996
:1046400048601CBD5601002049910208B8D60208F6
:10465000EC0100207CB5244C207800280FD0207875
:1046600002280CD04FF40041204803F072FC0221D4
:104670001F4803F06CFC4FF4FA7000F009FE0220B2
:1046800020701C4908701C49092008701B48D0F88C
:1046900098104160D0F8A01081601948DFED190A28
:1046A000194D90ED050AB8EEC00A80EE201A85ED8E
:1046B000021A16480024047015490320087070215E
:1046C000682013F00CFE4FF48051124803F03FFCB9
:1046D00016F004FD034600940F4A13210F4801947D
:1046E00004F076FD68607CBD5601002000000240A9
:1046F0000008024081000020A2010020240B0020BD
:104700009486002000007A444801002080000020A8
:104710009F010020000C02408551020838C50208A4
:104720007CB5234C2078002801D008F07BFB0420C6
:104730002070204908702049412008701F48DFED93
:10474000200A204E90ED040AB8EEC00A80EE201A2E
:1047500086ED021A1C4CD4F894002061206940F6C2
:10476000C411884203D90120FFF764FE02E0002053
:10477000FFF760FE154800250570154902200870F6
:10478000D4F8A400E0607021682013F0A8FD4FF475
:104790008051104803F0DBFB16F0A0FC03460095A7
:1047A0000D4A11210D48019504F012FD70607CBD89
:1047B0005601002081000020A201002094860020E4
:1047C00000007A44A4010020240B00208000002077
:1047D0009F010020000C0240799F0208C8CB02080C
:1047E0001CB516F07BFC002403460094064A072102
:1047F0000648019404F0ECFC0549486005490C703A
:10480000054A082111701CBDC597020898C5030808
:104810001C02002080000020560100201CB516F06C
:104820005DFC002403460094074A122107480194C6
:1048300004F0CEFC06498861064A1470064B072234
:104840001A702F220A701CBDC9910208A0C3030868
:10485000F401002080000020560100201CB5022039
:104860008DF8050001208DF8040000208DF8060069
:104870001C2000906946024803F014FB1CBD000098
:104880000010024031B582B02B4D0421284603F0C0
:104890005EFB0821284603F05CFB00BF00BF00BFA1
:1048A00000BF0421284603F054FB00BF082128461E
:1048B00003F04FFB0421284603F049FB002101913E
:1048C0004FF6FF7429E09DF80410072912D9BDF8AE
:1048D0000810080404D51021284603F03AFB03E031
:1048E0001021284603F033FBBDF8081004EA41000C
:1048F000029003E01021284603F029FB08212846F6
:1049000003F025FB00BF00BF00BF0821284603F0CD
:1049100020FB9DF80410491C01919DF80400182803
:10492000D1D30421284603F014FB03B02846BDE888
:104930003040082103F00DBB0010024008B53820BC
:104940008DF8000003208DF801008DF80200012091
:104950008DF8030068460BF079FD08BD70B5644D15
:10496000A97928460024406A05F14406462970D0FA
:104970001EDC15293BD0162952D040297ED140F6A5
:10498000051116F0B7FB2978012906D92978491EA7
:1049900029702978314401F8014C29786A789142CC
:1049A00000D16C70BDE870405149443112F0C3BC75
:1049B0004D2967D04E297CD04F295FD140F6341164
:1049C00016F098FB2978012906D92978491E297003
:1049D0002978314401F8014C29786A78914200D154
:1049E0006C70BDE870404249443112F0A4BC40F6FE
:1049F0006B0116F07FFB2978012906D92978491E19
:104A000029702978314401F8014C29786A7891425B
:104A100000D16C70BDE870403549443112F08BBC58
:104A200040F66C0116F066FB2978012906D9297831
:104A3000491E29702978314401F8014C29786A7897
:104A4000914200D16C70BDE870402949443112F0A8
:104A500072BC40F60E1116F04DFB2978012906D9DB
:104A60002978491E29702978314401F8014C2978A8
:104A70006A78914200D16C701D4900E037E0443102
:104A800012F059FC40F63211686A16F033FB2978AF
:104A9000012906D92978491E29702978314401F85D
:104AA000014C29786A78914200D16C7010494431E8
:104AB00000E003E0BDE8704012F03DBC40F6331169
:104AC00016F018FB2978012906D92978491E297082
:104AD0002978314401F8014C29786A78914200D153
:104AE0006C70BDE870400249443112F024BC70BDC6
:104AF000540100202DE9F0416B4801786B481D39C5
:104B00006B4F806900246B4D6B4E0C297ED2DFE821
:104B100001F0061E364EC8C8C8C8668098B040F678
:104B2000730116F0E7FA2978012906D92978491E78
:104B300029702978394401F8014C2978327891425A
:104B400000D13470BDE8F041594912F0F4BB40F691
:104B5000740116F0CFFA2978012906D92978491E5F
:104B600029702978394401F8014C2978327891422A
:104B700000D13470BDE8F0414D4912F0DCBB40F685
:104B8000750116F0B7FA2978012906D92978491E46
:104B900029702978394401F8014C297832789142FA
:104BA00000D13470BDE8F041414912F0C4BB40F679
:104BB000760116F09FFA2978012906D92978491E2D
:104BC00029702978394401F8014C297832789142CA
:104BD00000D13470BDE8F041354912F0ACBB40F66D
:104BE0007B0116F087FA2978012906D92978491E10
:104BF00029702978394401F8014C2978327891429A
:104C000000D13470BDE8F041294900E049E012F0DC
:104C100092BB40F67C0116F06DFA2978012906D97D
:104C20002978491E29702978394401F8014C2978DE
:104C30003278914200D13470BDE8F0411C4912F045
:104C40007ABB40F67D0116F055FA2978012906D97C
:104C50002978491E29702978394401F8014C2978AE
:104C60003278914200D13470BDE8F041104912F021
:104C700062BB40F67E0116F03DFA2978012906D97B
:104C80002978491E29702978394401F8014C29787E
:104C90003278914200D13470BDE8F041044912F0FD
:104CA0004ABBBDE8F0810000A2010020B401002051
:104CB0009801002054010020550100202DE9F04109
:104CC0002B4801782B482C4F002440682B4D2C4E4C
:104CD00018291BD0432931D0562947D140F62D1130
:104CE00016F008FA2978012906D92978491E297071
:104CF0002978394401F8014C29783278914200D161
:104D00003470BDE8F0411C4912F015BB40F66E014D
:104D100016F0F0F92978012906D92978491E297059
:104D20002978394401F8014C29783278914200D130
:104D30003470BDE8F041104912F0FDBA40F611118F
:104D400016F0D8F92978012906D92978491E297041
:104D50002978394401F8014C29783278914200D100
:104D60003470BDE8F041044912F0E5BABDE8F081C5
:104D7000A2010020A401002098010020540100207D
:104D8000550100202DE9F0418D4800788D4A8E4F65
:104D900000248E4D8E4E10287ED008DCA0F10B0032
:104DA00005287AD2DFE800F0243D8CA5BE0051280A
:104DB00050D0522867D0532870D054286DD140F677
:104DC0003811506816F096F92978012906D9297802
:104DD000491E29702978394401F8014C2978327824
:104DE000914200D13470BDE8F041774912F0A3BA86
:104DF0004FF40661506816F07DF92978012906D92B
:104E00002978491E29702978394401F8014C2978FC
:104E10003278914200D13470BDE8F0416A4912F015
:104E20008ABA40F66101506816F064F929780129C0
:104E300006D92978491E29702978394401F8014C8E
:104E400029783278914200D13470BDE8F0415E4952
:104E500012F071BA40F63511506816F04BF9297806
:104E6000012906D92978491E29702978394401F881
:104E7000014C29783278914200D13470BDE8F0417C
:104E8000514912F058BA40F63611506816F032F90E
:104E9000297801290AD902E05DE08EE074E02978E2
:104EA000491E29702978394401F8014C2978327853
:104EB000914200D13470BDE8F041434912F03BBA51
:104EC00040F66201506816F015F92978012906D9D3
:104ED0002978491E29702978394401F8014C29782C
:104EE0003278914200D13470BDE8F041364912F079
:104EF00022BA40F66301506816F0FCF829780129BF
:104F000006D92978491E29702978394401F8014CBD
:104F100029783278914200D13470BDE8F0412A49B5
:104F200012F009BA40F66401506816F0E3F82978E7
:104F3000012906D92978491E29702978394401F8B0
:104F4000014C29783278914200D13470BDE8F041AB
:104F50001D4912F0F0B940F66501506816F0CAF824
:104F60002978012906D92978491E297029783944D8
:104F700001F8014C29783278914200D13470BDE8B3
:104F8000F041114912F0D7B940F63711506816F0C8
:104F9000B1F82978012906D92978491E297029787C
:104FA000394401F8014C29783278914200D13470AB
:104FB000BDE8F041044912F0BEB9BDE8F08100003F
:104FC000A2010020E40100209801002054010020EB
:104FD000550100202DE9F0412C4800782C4A2D4F36
:104FE00000242D4D2D4E11281CD0122833D05828C6
:104FF0004AD140F62E11506816F07CF82978012924
:1050000006D92978491E29702978394401F8014CBC
:1050100029783278914200D13470BDE8F0411D49C1
:1050200012F089B940F66601506816F063F82978E5
:10503000012906D92978491E29702978394401F8AF
:10504000014C29783278914200D13470BDE8F041AA
:10505000104912F070B940F66701506816F04AF82E
:105060002978012906D92978491E297029783944D7
:1050700001F8014C29783278914200D13470BDE8B2
:10508000F041044912F057B9BDE8F081A2010020B7
:105090004801002098010020540100205501002003
:1050A00001480068704700003403002010B505492E
:1050B000054800F00DF80548016841F00201016063
:1050C00010BD000020800010106402403C00002051
:1050D000074A904201D2074801E005481038064AC5
:1050E0008B0001EA020101D5C16070478160704701
:1050F00010640240006002407D0F7D0F002904D043
:10510000016841F0010101607047016821F001016F
:10511000016070470B0609D522B1436943F0800353
:10512000436103E0436923F080034361802905D094
:1051300001F01E011AB102680A430260704702685A
:105140008A4302607047000030B50368124A13407A
:10515000CC680A682243D1E905452C432243CC6937
:1051600022430C6A22434C6A22438C6A22434C6BD2
:1051700022438C6B22431A430260426922F00703E8
:10518000D1E90B2422431A4342610A6942604A680A
:1051900082608968C16030BD3F801CF0F8B505466B
:1051A000006803F01DFE0090448ED0F888606846C9
:1051B00003F060FE06B1012604F00104286816F031
:1051C000BBFE0EB1002006E00CB1012003E008B1E7
:1051D000022000E003201B4951F82010686858B3F2
:1051E00002280CD0052802D0122828D103E0284636
:1051F00018F0A2FA23E028461AF081FB1FE06A6942
:10520000E8694FF0FF33801AA0F1080203EB620453
:10521000421CAB69001B4510A3EB6206C86905F090
:10522000F7F906E03219311B284604F07BFB641EB7
:105230006D1C002CF6DA02E0286816F041FB002015
:10524000F8BD0000C4690408044A03491160044918
:105250000A6B08631046704738030020F0060020F0
:10526000F406002038B50D46002403F0B9FD009087
:10527000C06B294603F096FE0546684603F0FAFD2A
:105280001DB1284603F0ACFD0446204638BD7047EA
:1052900011B54FF47A7402E0204600F006F8BDF82C
:1052A00000104A1E0092F7D218BD01B582B000204E
:1052B0000190042110E0009100BF00BF00BF00BFBB
:1052C00000BFBDF80000401E0004000C0090F3D1A8
:1052D000BDF80400401C0190BDF80400BDF8082092
:1052E0009042E8D30EBD000010B52DED028B204991
:1052F0000A78204CB2EE048A022AE0681ED00978AF
:10530000032918D11C4991ED000A20EE080ABDEED0
:10531000C00A10EE101A09B202F0F2FE174890ED22
:10532000000A20EE080ABDEEC00A10EE100A01B213
:10533000206902F0E5FEBDEC028B10BD104991ED35
:10534000000A20EE080ABDEEC00A10EE101A09B2DB
:1053500002F0D6FE0B4890ED000A20EE080ABDEEE2
:10536000C00A10EE100A01B2206902F0C9FEE2E79D
:105370009F010020D00100202800002030000020E4
:10538000240000202C0000201CB51048C079012802
:105390001AD1FF2005F03CF9022005F071F9B42084
:1053A0000021CDE90010032306220C214FF4C37025
:1053B00004F094F902B00C23BDE8104040F27F12D3
:1053C0000421034804F010BB1CBD00008000002035
:1053D00028C5020831B525F06BFBA02025F030FB75
:1053E00025F096FB70B99DF8000025F029FB25F00B
:1053F0008FFB38B925F05CFBA12025F021FB25F0BF
:1054000087FB18B125F070FB002038BD25F0ECFAC1
:10541000034C207025F0D0FA25F066FB207838BDCB
:105420007800002070B50120FFF7D4FFFE4C20600B
:105430000120FFF7CFFF20602068000220600220DB
:10544000FFF7C8FF21680844206020680002206040
:105450000320FFF7BFFF2168084420602068000296
:1054600020600420FFF7B6FF216808442060052073
:10547000FFF7B0FFED4D2860286800022860062085
:10548000FFF7A8FF29680844286028680002286000
:105490000720FFF79FFF296808442860286800025A
:1054A00028600820FFF796FF296808442860C0207C
:1054B000FFF790FF6063606B00026063C120FFF73D
:1054C00089FF616B08446063606B00026063C22007
:1054D000FFF780FF616B08446063606B00026063EC
:1054E000C320FFF777FF616B08446063C420FFF7B8
:1054F00071FF6863686B00026863C520FFF76AFF8D
:10550000696B08446863686B00026863C620FFF734
:1055100061FF696B08446863686B00026863C720B9
:10552000FFF758FF696B08446863C820FFF752FF14
:10553000A063A06B0002A063C920FFF74BFFA16B23
:105540000844A063A06B0002A063CA20FFF742FFDB
:10555000A16B0844A063A06B0002A063CB20FFF7FF
:1055600039FFA16B0844A063CC20FFF733FFA86389
:10557000A86B0002A863CD20FFF72CFFA96B08449D
:10558000A863A86B0002A863CE20FFF723FFA96BD6
:105590000844A863A86B0002A863CF20FFF71AFF96
:1055A000A96B0844A8630920FFF714FF60606068D6
:1055B000000260600A20FFF70DFF61680844606028
:1055C0006068000260600B20FFF704FF6168084418
:1055D00060606068000260600C20FFF7FBFE61689D
:1055E000084460600D20FFF7F5FE686068680002FF
:1055F00068600E20FFF7EEFE69680844686068681E
:10560000000268600F20FFF7E5FE696808446860E3
:105610006868000268601020FFF7DCFE69680844D3
:1056200068601120FFF7D6FEA060A0680002A060AD
:105630001220FFF7CFFEA1680844A060A068000216
:10564000A0601320FFF7C6FEA1680844A060A06810
:105650000002A0601420FFF7BDFEA1680844A0600E
:105660001520FFF7B7FEA860A8680002A860162002
:10567000FFF7B0FEA9680844A860A8680002A86007
:105680001720FFF7A7FEA9680844A860A8680002D1
:10569000A8601820FFF79EFEA9680844A86019209A
:1056A000FFF798FEE060E0680002E0601A20FFF774
:1056B00091FEE1680844E060E0680002E0601B20C1
:1056C000FFF788FEE1680844E060E0680002E060FF
:1056D0001C20FFF77FFEE1680844E0601D20FFF713
:1056E00079FEE860E8680002E8601E20FFF772FEBD
:1056F000E9680844E860E8680002E8601F20FFF7F6
:1057000069FEE9680844E860E8680002E860202073
:10571000FFF760FEE9680844E8602120FFF75AFEC1
:1057200020612069000220612220FFF753FE2169D9
:10573000084420612069000220612320FFF74AFE0F
:105740002169084420612069000220612420FFF7BC
:1057500041FE2169084420612520FFF73BFE2861B6
:105760002869000228612620FFF734FE29690844D1
:1057700028612869000228612720FFF72BFE29698C
:10578000084428612869000228612820FFF722FECA
:105790002969084428612920FFF71CFE60616069BF
:1057A000000260612A20FFF715FE6169084460610C
:1057B0006069000260612B20FFF70CFE61690844FC
:1057C00060616069000260612C20FFF703FE61697F
:1057D000084460612D20FFF7FDFD686168690002E3
:1057E00068612E20FFF7F6FD696908446861686901
:1057F000000268612F20FFF7EDFD696908446861C8
:105800006869000268613020FFF7E4FD69690844B7
:105810006861AB20FFF7DEFDE062E06A0002E06253
:10582000AC20FFF7D7FD03E07C0A0020D00A00205F
:10583000E16A0844E062E06A0002E062AD20FFF73E
:10584000C9FDE16A0844E062E06A0002E062AE205D
:10585000FFF7C0FDE16A0844E062AF20FFF7BAFD40
:10586000E862E86A0002E862B020FFF7B3FDE96A87
:105870000844E862E86A0002E862B120FFF7AAFD86
:10588000E96A0844E862E86A0002E862B220FFF7C9
:10589000A1FDE96A0844E862B720FFF79BFD206399
:1058A000206B00022063B820FFF794FD216B0844B1
:1058B0002063206B00022063B920FFF78BFD216B72
:1058C00008442063206B00022063BA20FFF782FDAA
:1058D000216B08442063BB20FFF77CFD2863286B05
:1058E00000022863BC20FFF775FD296B084428637C
:1058F000286B00022863BD20FFF76CFD296B08446C
:105900002863286B00022863BE20FFF763FD296B24
:10591000084428633120FFF75DFDA061A069000203
:10592000A0613220FFF756FDA1690844A061A0697B
:105930000002A0613320FFF74DFDA1690844A0617A
:10594000A0690002A0613420FFF744FDA16908446A
:10595000A0613520FFF73EFDA861A8690002A8619B
:105960003620FFF737FDA9690844A861A86900023D
:10597000A8613720FFF72EFDA9690844A861A8692E
:105980000002A8613820FFF725FDA9690844A86135
:105990003920FFF71FFDE061E0690002E0613A2075
:1059A000FFF718FDE1690844E061E0690002E06189
:1059B0003B20FFF70FFDE1690844E061E069000268
:1059C000E0613C20FFF706FDE1690844E0613D200D
:1059D000FFF700FDE861E8690002E8613E20FFF79B
:1059E000F9FCE9690844E861E8690002E8613F20E0
:1059F000FFF7F0FCE9690844E861E8690002E86142
:105A00004020FFF7E7FCE9690844E8614120FFF71F
:105A1000E1FC2062206A000220624220FFF7DAFCEB
:105A2000216A08442062206A000220624320FFF7B6
:105A3000D1FC216A08442062206A000220624420CE
:105A4000FFF7C8FC216A084420624520FFF7C2FC2A
:105A50002862286A000228624620FFF7BBFC296AF8
:105A600008442862286A000228624720FFF7B2FC37
:105A7000296A08442862286A000228624820FFF741
:105A8000A9FC296A08442862D020FFF7A3FCE06340
:105A9000E06B0002E063D120FFF79CFCE16B08445F
:105AA000E063E06B0002E063D220FFF793FCE16B60
:105AB0000844E063E06B0002E063D320FFF78AFC58
:105AC000E16B0844E063D420FFF784FCE863E86BF3
:105AD0000002E863D520FFF77DFCE96B0844E8632A
