:020000040800F2
:10000000309000209502000887FD000849BD0008D7
:1000100085FD0008752C0008158601080000000009
:100020000000000000000000000000001F40010868
:10003000C751000800000000C12B0108055101084C
:10004000AF020008AF020008AF020008AF020008CC
:10005000AF020008AF020008AF020008AF020008BC
:10006000AF020008AF020008AF020008AF020008AC
:10007000AF020008AF020008AF020008AF0200089C
:10008000AF020008AF020008AF020008AF0200088C
:10009000AF020008AF020008AF020008AF0200087C
:1000A000AF020008AF020008AF020008AF0200086C
:1000B000AF0200081556010821590108AF020008D7
:1000C000AF020008AF020008AF020008AF0200084C
:1000D000AF020008C9810108AF020008D1820108FF
:1000E000AF020008AF020008AF020008AF0200082C
:1000F000AF020008AF020008AF020008AF0200081C
:10010000AF020008AF020008E95F0108AF02000873
:10011000AF020008AF020008C9600108AF02000882
:10012000E54F0008AF020008AF020008AF02000868
:10013000AF020008AF020008AF020008AF020008DB
:10014000AF020008AF020008AF020008AF020008CB
:10015000AF020008AF020008AF020008AF020008BB
:10016000AF020008AF020008AF020008AF020008AB
:10017000AF020008AF020008AF020008AF0200089B
:10018000AF020008AF02000800F002F800F072F8B9
:100190000AA090E8000C82448344AAF10107DA45E2
:1001A00001D100F067F8AFF2090EBAE80F0013F0C2
:1001B000010F18BFFB1A43F001031847B475040080
:1001C000D47504000A444FF0000C10F8013B13F002
:1001D000070408BF10F8014B1D1108BF10F8015BA0
:1001E000641E05D010F8016B641E01F8016BF9D193
:1001F00013F0080F1EBF10F8014BAD1C0C1B09D1EA
:100200006D1E58BF01F801CBFAD505E014F8016B5B
:1002100001F8016B6D1EF9D59142D6D370470000ED
:100220000023002400250026103A28BF78C1FBD8FF
:10023000520728BF30C148BF0B607047662929F0BC
:100240004385642900F08280002070471FB529F0A3
:100250002EFD00F093FE04000020002128F030FF66
:10026000401C60600020002128F014FFE0601FBDEA
:1002700010B510BD00F0F6FF1146FFF7E7FF28F0BC
:100280005BFA01F09FFA03B4FFF7F2FF03BC01F041
:10029000CDFC00000948804709480047FEE7FEE71B
:1002A000FEE7FEE7FEE7FEE7FEE7FEE7FEE7FEE726
:1002B00004480549054A064B70470000CD51010826
:1002C00089010008308A002030900020308C002006
:1002D000308C00200FB41CB5074B06AA7B4469463E
:1002E0000090059800F03BFD0020694600F04AFDB3
:1002F0001CBC5DF814FB0000A50A000070B50446A4
:1003000085690068C10601D5302600E02026C007B7
:1003100007D070BDD4E9012130469047206A401CC7
:1003200020626D1EF6D570BD70B5044685690078F3
:10033000C00707D170BDD4E9012120209047206A71
:10034000401C20626D1EF6D570BD00002DE9F04105
:100350000646002410687529314616A510D0AFF363
:100360000080002802DA404213A507E031688A07BE
:1003700001D512A502E0490704D511A5012401E029
:10038000AFF3008000210A2206F1240709E0B0FB48
:10039000F2FCB0FBF2F302FB1C003030785418463C
:1003A000491C0028F3D123462A463046BDE8F041D7
:1003B00000F067BA000000002D0000002B000000D4
:1003C000200000002DE9F05F894604464FF0000A46
:1003D000DFF824B1FB44C0F820A02046E16888473C
:1003E00000287DD0252806D0D4E901219047206A35
:1003F000401C2062F1E700255F462046E1688847FF
:100400002028064607DB312E05D2B81910F8200C3B
:1004100008B10543F1E7A80701D525F00405C4F8A4
:100420001CA00027C4F818A02A2E09D0304627F0B7
:1004300027FF38B304EB8708303EC8F8186019E08E
:1004400059F8041B204604EB87029161E168884754
:10045000012F064618D1E069002820DA25F0200592
:100460001DE0D8F8180000EB800006EB40003038A3
:10047000C8F818002046E1688847064627F000FFC4
:100480000028EED1012F0AD02E2E08D12046E16897
:1004900088477F1C0646022F45F02005C4DBA06973
:1004A000002803DA404245F00105A061E80701D0C9
:1004B00025F01005A6B1A6F14100192802D8203672
:1004C00045F400654A463146204625604D46FFF713
:1004D000B5FE60B1012807D0ED1D25F0070000E052
:1004E00007E000F1080978E705F1040975E73046EF
:1004F0007AE7206ABDE8F09FB472040070B5064642
:1005000000F0B0F90468054630460A22002100F0E8
:1005100091FC2C6070BD40EA0103024630B59B0798
:1005200010D14FF0013400E008C208C91D1B9D43E3
:1005300015EAC41FF8D013F0FF0102F8011B0DD01B
:100540001B0AF8E711F8013B002B02F8013B05D02C
:1005500011F8013B002B02F8013BF3D130BD10B57F
:10056000431C02E010F8011B71B18107FAD14FF072
:10057000013202C88C1A8C4314EAC211F9D0C01A95
:100580000A0603D0C01E10BDC01A10BD0A0401D057
:10059000801E10BD0902FCD0401E10BD421E12F884
:1005A000013F002BFBD111F8013B002B02F8013B6E
:1005B000F9D17047032A40F2308010F0030C00F0AC
:1005C000158011F8013BBCF1020F624498BF11F88D
:1005D00001CB00F8013B38BF11F8013BA2F1040246
:1005E00098BF00F801CB38BF00F8013B11F00303BE
:1005F00000F06780083AC0F0088051F8043B083AE0
:1006000051F804CBA0E80810F5E7121D5CBF51F8C3
:10061000043B40F8043BAFF30080D20724BF11F83D
:10062000013B11F801CB48BF11F8012B24BF00F8A2
:10063000013B00F801CB48BF00F8012B7047431A7B
:1006400028BF9A427FF6B6AF032A1044114440F205
:10065000268010F0030F1EBF11F8013D521E00F856
:10066000013D10F0030F7FF4F6AF11F0030300F02B
:100670002C84083AC0F00B8051F8043D083A51F838
:1006800004CD40F8043D40F804CDFFF7F3BF121D40
:100690005CBF51F8043D40F8043DAFF30080D20741
:1006A00024BF11F8013D11F801CD48BF11F8012C0C
:1006B00024BF00F8013D00F801CD48BF00F8012C2F
:1006C000704710B5203AC0F00B80B1E81850203ABE
:1006D000A0E81850B1E81850A0E81850BFF4F5AFE2
:1006E0005FEA027C24BFB1E81850A0E8185044BF6C
:1006F00018C918C0BDE810405FEA827C24BF51F8D9
:10070000043B40F8043B08BF7047D20728BF31F8CC
:10071000023B48BF11F8012B28BF20F8023B48BF1D
:1007200000F8012B704702F0FF0343EA032242EA7C
:10073000024200F0F6BB4FF0000200B513469446AB
:100740009646203922BFA0E80C50A0E80C50B1F129
:100750002001BFF4F7AF090728BFA0E80C5048BF3D
:100760000CC05DF804EB890028BF40F8042B08BFDB
:10077000704748BF20F8022B11F0804F18BF00F8D7
:10078000012B704710B5044610F0030F08BF11F09D
:10079000030F40F015804FF0013E121FC0F20E8093
:1007A00051F8043BA3EB0E0C2CEA030C1CEACE1C04
:1007B00008BF40F8043BF0D0A1F1040102F10402AB
:1007C000521E08DB11F8013B002B00F8013BF7D16A
:1007D000114600F0A4FB204610BD00004FF0013C84
:1007E00050F8042B51F8043B9A4221D1A2EB0C03A0
:1007F000934313EACC1317D150F8042B51F8043B60
:100800009A4215D1A2EB0C03934313EACC130BD1FC
:1008100050F8042B51F8043B9A4209D1A2EB0C0387
:10082000934313EACC13DBD04FF00000704700BFB6
:10083000D01A01BAB1FA81F101F0180122FA01F0DF
:10084000CB40C1F12001DBB2C0B2C01A2CFA01F3D7
:10085000D11A914311EAC311E6D17047704770472E
:100860007047000000487047D089002010B5FFF79E
:10087000F9FF006810BD10B50446FFF7F3FF0460F0
:1008800010BD2DE9F0470D4699469246044600F109
:1008900024080168880604D5E06921F01001216070
:1008A00000E00120A84201DD471B00E00027A1690C
:1008B0007A1902EB0900081AA0612078C00602D458
:1008C0002046FFF71BFD002608E0D4E901211AF8B5
:1008D00006009047206A401C761C20624E45F4DBDF
:1008E0002078C0060AD52046FFF708FD06E0D4E9C7
:1008F000012130209047206A401C2062381EA7F159
:100900000107F4DC07E0D4E9012118F8050090475D
:10091000206A401C2062281EA5F10105F3DC204658
:10092000FFF702FD2078000602D50220BDE8F0871F
:100930000120FBE770472DE9FF4F0C461E464FF0A4
:10094000FF378BB0D2E90001DDF860800A908A465B
:10095000C1F30A5505B93D46002108464FF0000095
:10096000BAF1000F00F4400005DA00EB80004FF40C
:10097000400101EA50004FEA9059B9F1010F00DD42
:10098000B9460A9850EA4A000ED044F61050A5F233
:10099000FF3545432F14B8F1000F1ED07542291EB4
:1009A0001EDDC9F100021CE0B8F1010F4FF000009C
:1009B00001D0302103E0F24305E02154401CB04255
:1009C000FBDB30460022002121540B99C1F808803E
:1009D000C1E900200FB0BDE8F08FBD1B6D1CDEE744
:1009E0004A4600DA694206A800F0CAFB06AB93E863
:1009F000070003AB83E8070050460A9901F030F97D
:100A00008DE80700A0F500501F3800900398002DD6
:100A10000ADD42F21F014A460844002303A903905D
:100A2000684601F0DBFB09E0A0F500504A461F389C
:100A3000002303A90390684601F0FAFB8DE8070044
:100A40000004000C03D04FF0FF30410800E01046D6
:100A5000B8F1000F03D00022009215461EE0751E6B
:100A600005D400F08FFA303262556D1EF9D5B346C9
:100A70000122084302D000227F1C04E020783028A5
:100A800001D100227F1E002A099784D01DE0112D7C
:100A900007DA00F077FA303262556D1C50EA010235
:100AA000F5D1084302D00098C8B10EE00021681EBD
:100AB00005E0235C625C63542254401E491C814261
:100AC000F7DBAB46A81B401E0990002004F80B0082
:100AD0000B98099AC0F80880C0E9002B7AE7112624
:100AE0004FF0000857E72DE9F04F88460446D21D25
:100AF00022F0070191B0D1E90001CDE90A0122F00D
:100B0000D7F802460B98C00F01D02D2007E02068CF
:100B1000810701D52B2002E0202101EAC000032A31
:100B2000099001D0072A05DB03464146204600F024
:100B300077FA0BE12078800601D5E06900E0062015
:100B4000B8F1650F814606D0B8F1660F18D0B8F13C
:100B5000670F70D131E00020B9F1110F009001DB77
:100B6000112301E009F101030AAA01A90CA8FFF76A
:100B7000E2FEDDE90C70002609F10105834647E03D
:100B800001204B4600904FF000470AAA01A90CA88B
:100B9000FFF7D1FEDDE90DB00C995D46002610B9D6
:100BA00009F101000D18B9EB050003D4C0F1FF36BF
:100BB00009F10105A5EB09002BE0B9F1010F01DAFC
:100BC0004FF001090020B9F1110F0090484601DDF6
:100BD000112300E003460AAA01A90CA8FFF7ABFE07
:100BE000DDE90C704D4600268346207800070AD4C4
:100BF000AB4500DA5D4601A8012D04DD411911F86D
:100C0000011C302907D04F4502DA17F1040F04DA2E
:100C1000012082460FE06D1EEEE7002F02DCED1B87
:100C20003E4403E0781CA84200DD7D1CB81B00F1A7
:100C3000010A4FF000472078000703D4AA4501DBE2
:100C40004FF0FF3A0021B7F1004F0DF143088DF846
:100C5000431024D002202B23002F01DA7F422D23C2
:100C60000A21021EA0F1010000DC5FB197FBF1FC3C
:100C700097FBF1F201FB1C7C17460CF1300C08F8D5
:100C800001CDEEE7A8F1010003702188090501D527
:100C9000452100E06521A0F1010800F8011C099838
:100CA0000FA9A1EB0807FF1D00B10120411901EBBD
:100CB000EA70A1693844081A401EA0612078C00675
:100CC00002D42046FFF71AFB099828B1D4E9012184
:100CD0009047206A401C20622078C00622D520461A
:100CE000FFF70CFB1EE0002E04DBB34502DD01A87C
:100CF000805D00E03020D4E901219047206A401C4B
:100D00002062761CAAF101005FEA000A0AD100F015
:100D100035F9C0680168405CD4E901219047206A38
:100D2000401C2062281EA5F10105DCDC07E0D4E9A7
:100D3000012118F8010B9047206A401C2062381EE0
:100D4000A7F10107F3DC2046FFF7EEFA032011B00C
:100D500041E6000001694A1C02610878704700B54D
:100D60008FB0CDE901310021059105497944CDE9E4
:100D7000031011466846FFF725FB0FB000BD0000C9
:100D8000E5FFFFFF0A6802F8010B0A6070470000E8
:100D90000FB4002300B589B00CA900910B99CB606A
:100DA000214B7B440693214B7B44079304236FF034
:100DB0000042CDE901321E4A7A446B46089202464F
:100DC000002028F0E3FF09B05DF814FB70B506467B
:100DD0004FF0FF3015460C46324686B00091CDE903
:100DE000010169460020049004A8FFF7D1FF0246E4
:100DF0000498211825B108B1084600E02046286073
:100E0000049800280DD0002A02DD0098884208D0FE
:100E10003246081B69460094CDE9010404A8FFF797
:100E2000B7FF06B070BD0000FB0200001303000016
:100E3000530200002DE9F04791460F4680460446D4
:100E4000002614F8015B2DB100F090F80068405DB9
:100E5000C007F6D12B2D02D02D2D18D0641E4A4686
:100E60003946204600F03CF927B13968A14201D14A
:100E7000C7F800804FF0020471050BD540420028EE
:100E800003DDFFF7EFFC0460A007BDE8F08746F440
:100E90008066E4E70028F8DAFFF7E4FC04606FF00E
:100EA0000040F2E7431A28BF9A427FF60AAC10448A
:100EB00010F0030F11441EBF11F8013D521E00F83F
:100EC000013D10F0030F7FF4F6AF103AC0F00A8036
:100ED00010B531E91850103A20E91850BFF4F9AFB5
:100EE000BDE81040530724BF31E9081020E908107D
:100EF00044BF51F8043D40F8043D12F0030F08BF11
:100F00007047D20728BF31F8023D48BF11F8012CC5
:100F100028BF20F8023D48BF00F8012C70474FF071
:100F200000020429C0F0128010F0030C3FF405AC5D
:100F3000CCF1040CBCF1020F18BF00F8012BA8BFC4
:100F400020F8022BA1EB0C01FFF7F7BB5FEAC17C95
:100F500024BF00F8012B00F8012B48BF00F8012B3B
:100F60007047000000487047D089002010B500F09D
:100F700005F8001D10BD00BF498102000048704700
:100F8000F089002030B5B0F10A024FEA900E71F1FD
:100F900000034EEA817EB0EB0E0061EB91014FEA57
:100FA000101E4EEA017E10EB0E0041EB11114FEACC
:100FB000102E4EEA016E10EB0E0041EB11214FEAAC
:100FC000104E4EEA014E10EB0E0041EB114140185D
:100FD00041F100014FEAD00040EA41704FEAD101EF
:100FE00010EB80054FEA810444EA907444EB01045D
:100FF0006D1944EB0404521BA3414FF0000348BF9A
:101000000A3200D530BD401C41F1000130BD10B5A1
:101010000446FFF7ABFF0068005D00F0010010BD63
:101020002DE9F0411F46044603260168072A01F412
:10103000006004DB08B116A505E016A503E008B1C1
:1010400015A500E015A521F010002060A069C01EC4
:10105000A0610FB1401EA0612046FFF74FF94FB1CC
:10106000D4E9012138469047206A401C2062C01C08
:10107000206206E0206AFAE7D4E9012115F8010BA5
:101080009047761EF8D22046FFF74EF9BDE8F08172
:101090004E414E006E616E00494E4600696E66001C
:1010A000426842B1016811F8013B23B1521EC0E908
:1010B0000012184670470121C160881E70474268BF
:1010C0005AB1C368016843B983688B4205D0491E91
:1010D000521CC0E90012002070474FF0FF307047EB
:1010E0002DE9F05F824615468B4600270AF1010480
:1010F000B9460078302801D09DB113E014F8010BF7
:101100000127782803D0582801D045B10AE00DB155
:10111000102D07D1002714F8010B102502E0082537
:1011200000E00A250026B0460EE005FB080005FB9E
:1011300006F101271FFA80F801EB1046B6F5803F53
:1011400000D3B94614F8010B294600F0B0F8002886
:10115000EBDABBF1000F05D00FB1641E00E054467E
:10116000CBF80040B9F1000F06D0FFF77BFB02215E
:101170000160C81EBDE8F09F48EA0640FAE700009B
:101180002DE9F047814616468AB0354878440DC8A7
:101190008DE80D0032487844801C03AC0DC884E80B
:1011A0000D0041F69B300844372190FBF1F290FB93
:1011B000F1F5A5F1800501FB12041B3C02D5644248
:1011C000012000E00020DFF898A080460027FA44C4
:1011D000AAF1BE0A0EE0E0070AD03246684607EBE5
:1011E000470101230AEB810101F022F88DE8070095
:1011F00064107F1C002CEED1194F7F44AE3F19E0E4
:10120000E80715D007EB04100DF1180A90E80E005E
:101210008AE80E00C068F04201D198190890324661
:10122000012306A903A801F003F803AB83E8070034
:101230006D10641C002DE3D14FF001033246694666
:10124000B8F1000F03A802D000F0C8FF01E000F0E1
:10125000EFFFC9E90001C9F808200AB0BDE8F0872E
:101260008C6504007546FFF77DFEAE4605006946B5
:10127000534620F00700854618B020B5FFF718F850
:10128000BDE820404FF000064FF000074FF0000887
:101290004FF0000B21F00701AC46ACE8C009ACE808
:1012A000C009ACE8C009ACE8C0098D4670473A28CF
:1012B00000D2303820F02002412A01D3A2F13700B9
:1012C000884201D34FF0FF30704700002DE9FF4FF7
:1012D00006468BB00878FF2806D0491C2D2805D07B
:1012E00000244FF0000908E000200CE00124F8E79A
:1012F00009EB8903491C00EB43090878FF28F7D163
:1013000014B1C9F100008146107800252C46AA4688
:1013100029462D2801D02B2804D1521C2D2813D06A
:10132000002082468B461078FF280FD04FF0000C2B
:101330000A21521CA5FB017804FB018105FB0C115D
:10134000C5194BEB0104EEE70120EAE7002108464E
:101350004FF00000BAF1000F02D000EB800040080F
:10136000C0F38157012F01DD4FF0FF370E9955EA89
:10137000040009EB01080BD04FF0020918F5FA7FC1
:1013800016DA4FEACA70002F706008DD012007E00E
:101390004FEACA70C6E900B00FB0BDE8F08F002078
:1013A0003060FFF75FFAC0F800901821084616E099
:1013B000B8F5FA7F18DD002F02DAF748784401E02B
:1013C000F6487844D0E90010C6E9001040EACA7037
:1013D0007060FFF747FAC0F80090142108460FB07C
:1013E000BDE8F04F28F06DBC002108464FF000002A
:1013F000B8F10001099002DAC7F1000200E03A46B4
:1014000001DAC8F1000106A8FFF7BAFE06AB93E8BF
:10141000070003AB83E8070044F23E005BEA0401E7
:101420000090584604D144F21E012C465D460091BE
:10143000210C0904014306D10099240444EA15440F
:101440002D041039009104F07F41014306D1009929
:10145000240244EA15642D020839009104F0704119
:10146000014306D10099240144EA15742D01091F96
:10147000009104F04041014306D10099A40044EAE0
:101480009574AD00891E009104F00041084304D119
:1014900000986D196441401E00904FF001033A46D8
:1014A0006846B8F1000FCDE9014503A902DD00F05F
:1014B000D4FE01E000F0A7FEBAF1000F04460D468D
:1014C00001D084F00044002108464FF00000099943
:1014D00040F2FF77484010F00C0F07D124F0004095
:1014E000284303D0C4F30A50B84212D1FFF7BAF927
:1014F000C0F80090C4F30A50B8420AD1A848784412
:10150000D0E90010C6E9001004F000410843706003
:1015100042E7C6E900543FE72DE9FF4F1F464FF071
:10152000000A4FF0FF38454691B0D7E90146CDF8A3
:101530003CA0FFF723FDC0680168405C1090B969CA
:1015400012986D1C8847396A814688470028F6D171
:10155000B9F1FF3F0AD0002E24F4D06411DDB9F1B7
:101560002B0F08D0B9F12D0F0BD102E0404615B07A
:1015700013E744F48064B96912986D1C8847761E9D
:101580008146600504A901D52D2000E02B20002E06
:1015900001F1010B0DF130088DF810003FDDB9F1BC
:1015A000690F08D0B9F1490F05D0B9F16E0F02D01B
:1015B000B9F14E0F1CD13B4601A8009580E85002BE
:1015C000DDE912126FF0020028F0E4FBC11CCED15D
:1015D0000EE0B96912986D1C884781461398761EF3
:1015E00044F4007405600F98401C002E0F9016DD27
:1015F000B9F1300FEDD0B9F1780F02D0B9F1580F31
:101600000DD10F9801280AD13B46CDE90054DDE900
:101610001212001F029628F0BBFBC11CA7D1109923
:1016200089453ED144F0800406E01399681CAAF174
:10163000010A44F400740860B9696D1C1298761EA2
:10164000884730288146F0D02BE01099894505D194
:10165000200603D4761E44F0800418E0484626F0A5
:101660000FFE08B3761E0DF123018B4544F4007480
:1016700008D2A9F130000BF8010B200607D5AAF11A
:10168000010003E0200602D40AF101008246A00511
:1016900002D51399681C0860B96912986D1C8847B7
:1016A0008146002ED1DC53E0002E51DDB9F1650FEB
:1016B00002D0B9F1450F4BD1A00549D5B9696D1CD0
:1016C0001298761E24F440748847002E81460CDD63
:1016D0002B2804D0B9F12D0F07D144F48074B969D7
:1016E00012986D1C8847761E8146E00501D52D2194
:1016F00000E02B2108F8011BCDF8008021E0761EC8
:101700000DF13901884544F400740CD2A9F1300080
:1017100010F0FF0088F8000002D10099884509D92F
:1017200008F1010806E0E00501D51E4801E042F29B
:101730000F708246B96912986D1C884781461398CC
:101740000560002E04DD484626F09AFD0028D6D11B
:10175000F96912988847FF2053468BF8000088F8F3
:10176000000000200A900B9004AA0CA90AA8FFF719
:10177000ADFDA00502D46FF00100F8E614F0240FCF
:1017800012D0E0071CD13868DDE90A12031D3B6066
:101790000068C0E9001213E0D8630400CA630400C3
:1017A0008E620400F1D8FFFF0AA9684621F0D0FC40
:1017B000E00705D13868009A011D396000680260B1
:1017C0002846D4E610B50446AFF300802046BDE8B5
:1017D0001040FEF758BD00002DE9FF4F1F464FF0A7
:1017E0003C0987B04FF00042DDE9141001F1010817
:1017F000DDF858A002EA405003900020059083468F
:10180000054604460490B969461E08988847AAF11F
:10181000010A0290BAF1000F3BDD02982E2815D084
:101820001021FFF744FD00282EDB4FF0010B059936
:10183000014317D0B9F1000F0BDB4A46C11700F086
:10184000FBF905430C43A9F1040905E001200490CC
:101850000BE008B145F0010501200590049820B97E
:10186000361D02E0049800B1361FB969089808F1E6
:1018700001088847BBF1000FAAF1010A0290C9D004
:101880000999C1F80080C5E70298702808D050284F
:1018900006D0F96908988847BBF1000F14D04FE0D3
:1018A000002002900120BBF1000F049009D0B9691B
:1018B000089808F101088847AAF10109B9F1000F59
:1018C00007DCF969089888476FF001000BB0BDE8A4
:1018D000F08F2B2804D02D280CD14FF0FF3004902E
:1018E000B969089808F101088847A9F10109B9F117
:1018F000000FE6DD411CE4D00A21FFF7D8FC0028E8
:10190000DFDB029908F1010801EB810100EB4100E6
:101910000290B969089888470A21FFF7C8FC099A1C
:10192000A9F10109B9F1000FC2F8008001DD00281A
:10193000E7DAF969089888470499029800FB01667C
:1019400055EA040004D004F04041090002D006E04A
:10195000039898E0A40044EA9574AD00B61E04F024
:101960000041080002D16D196441761E159810F0EF
:10197000240F03D04FF00B095C4803E04FF0280917
:101980006FF07D008246564507DAAAEB06018944CE
:10199000B9F1410F01DD4FF0410901200021A9F10A
:1019A000010200F049F9024628400B462140084355
:1019B00001D0012100E00021501E029143F1FF31CE
:1019C00028402140084301D0012000E00020029976
:1019D000834651EA0B014FD0002108464FF000002A
:1019E000039900F4400039B100EB80004FF440014E
:1019F00000EBD07001EA60008015012802DD4FF095
:101A0000FF3000E013D0401C36D0029860B3BBF129
:101A1000000F0CD14A460120002100F00DF92840AA
:101A20002140084301D0012000E00020E0B1012066
:101A30004A46002100F000F9034640190A46614178
:101A40002D1A8C4111D3B9F1400F09DD159810F012
:101A5000240F02D0AAF1340603E0AAF1170600E031
:101A6000761C00254FF0004406E05B1E42F1FF3279
:101A700020EA030521EA0204CAF10100B04206DAB5
:101A80001B49039808430190002000900EE0039A40
:101A9000C4F3D321E80A0A43164940EA44500A43F2
:101AA0003146CDE90002684621F05BFB159810F045
:101AB000240F0BD01598C00715D13868DDE9001246
:101AC000031D3B600068C0E900120CE002A86946F3
:101AD00021F03EFB1598C00705D13868029A011D18
:101AE0003960006802604046F0E6000002FCFFFF3B
:101AF0000000F07F0000F03F2DE9FF4F92461D46A9
:101B000085B04FF00041DDE9124BDDE914727F1E14
:101B100001EA4B50414940F0FF4940EA01080021E9
:101B200022F020004928049102D04E2828D04CE011
:101B30003BA0012607C88DE80700A9690698641C28
:101B400088477F1E014606D41DF8060018B121F013
:101B5000200181420BD0E96906988847032E34D0D2
:101B6000082E32D06FF0010009B0BDE8F08F761C6E
:101B7000032E01D0082EE0D1601CCAF80000DCE77B
:101B8000A9690698641C88477F1E2AD420F020008B
:101B9000412826D1A9690698641C88477F1E20D455
:101BA00020F020004E281CD1A9690698641C8847A3
:101BB0007F1E48F4002849F48009CAF8004001D487
:101BC000282806D0E969069888475FEACB7012D0CA
:101BD00022E0A9690698641C88477F1E01D400286A
:101BE00003DAE96906988847BCE72928F1D1641C23
:101BF000CAF80040E9E71BF0240F07D028680499D1
:101C0000031D2B600068C0E9001805E02868021D6C
:101C10002A600068C0F800902046A5E70000F07F29
:101C2000494E46494E4954590000000001491820C8
:101C3000ABBEFEE726000200B2F120030AD5C2F1D6
:101C4000200301FA02F120FA03F300FA02F041EA5C
:101C50000301704700FA03F14FF00000704770472E
:101C60005FEA400C08BF91F0000F4FEA8C234FEA67
:101C7000C12243EA51514FEA1C5018BF00F5F04011
:101C80004FEA300018BF41F000415FEA6C5C00F0A1
:101C90002980BCF1FF3F08BF40F080407047130C23
:101CA00006BF12044FF0100C4FF0000C130E04BFCF
:101CB00012020CF1080C130F04BF12010CF1040CFA
:101CC000930F04BF92000CF1020CD30F04BF52001B
:101CD0000CF1010C11464FF00002A0F11F00A0EB27
:101CE0000C00704711F0004F08BF704731F0004101
:101CF0003FF4D5AF0B0C06BF09044FF0100C4FF0AA
:101D0000000C0B0E04BF09020CF1080C0B0F04BFF2
:101D100009010CF1040C8B0F04BF89000CF1020CBB
:101D2000CB0F04BF49000CF1010CCCF12003A0EB58
:101D30000C0022FA03F302FA0CF241EA030100F16B
:101D40000100704720F07F4C80EA030023F07F47BA
:101D5000ACEB070303F57C5300F0004003F1FF03F5
:101D60002DE980494FEA154B09B44FEA144325EA9F
:101D70000B4E24EA03480FF2042606EB132749080A
:101D80003E785FEA320203FB0667C7F5000707FBF0
:101D900006F64FEA54374FEAD64606F1020607FB2D
:101DA000066CCCF1005C4FEA1C472CEA074C07FBA1
:101DB00006F40CFB06F504EB15464FEA961634BF05
:101DC00000204FF000404FEAD13706FB07FC4FEAF6
:101DD0001C4C0CFB0BF7D21B03FB0CF761EB070150
:101DE0000CFB0EF7B0EB074072EB17420CFB08F749
:101DF00034BFA2EB0742B2EB074261EB17414FEA57
:101E00000C444FEA910706FB07FC4FEA1C4C0CFB05
:101E10000BF7B0EBC74072EB573203FB0CF734BF44
:101E2000A2EBC742B2EBC74261EB57310CFB0EF796
:101E3000B0EBC70072EB57720CFB08F734BFA2EB94
:101E4000C702B2EBC70261EB5771039F4FEA816192
:101E500041EA921104EBCC044FEAD1374FEA826297
:101E600006FB07FC42EA90124FEA80604FEA1C4CE6
:101E70000CFB0BF7D21B03FB0CF761EB07010CFB10
:101E80000EF7B0EB074072EB17420CFB08F734BFBC
:101E9000A2EB0742B2EB074261EB17414FEA8C55C8
:101EA0004FEA910704EB9C2406FB07FC4FEA1C4C0D
:101EB0000CFB0BF7B0EBC74072EB573203FB0CF790
:101EC00034BFA2EBC742B2EBC74261EB57310CFB08
:101ED0000EF7B0EBC70072EB57720CFB08F734BF7C
:101EE000A2EBC702B2EBC70261EB577115EB4C25B1
:101EF0004FEA816141EA92114FEA82624FEAD1379B
:101F000042EA901206FB07FC44F100044FEA8060AD
:101F10004FEA1C4C0CFB0BF7D21B03FB0CF761EBDD
:101F200007010CFB0EF7B0EB074072EB17420CFBFE
:101F300008F734BFA2EB0742B2EB074261EB17414F
:101F400015EB1C154FEA813141EA92414FEA82328A
:101F500042EA90424FEA80304FEA0C7644F10004A6
:101F600048EA03434EEA0B484FF0000EB2EB080C70
:101F700071EB030724BF624639464EEB0E0E4FF05D
:101F8000000B0018524149414BEB0B0BB2EB080C14
:101F900071EB03077BF1000B24BF624639464EEB21
:101FA0000E0E4FF0000B0018524149414BEB0B0B4A
:101FB000B2EB080C71EB03077BF1000B24BF624608
:101FC00039464EEB0E0E51EA020718BF46F00106E5
:101FD00016EB0E7655F1000254F1000103D5BDE871
:101FE0008901BDE80088BDE88901BDE80048B6194F
:101FF000524141EB0101A3F10103704780807F7ED4
:102000007D7C7B7A7978777676757473727171706E
:102010006F6E6E6D6C6C6B6A6A6968686766666520
:102020006464636362616160605F5F5E5E5D5D5CAE
:102030005C5B5B5A5A59595858575756565555551F
:102040005454535352525251515050504F4F4F4E7F
:102050004E4D4D4D4C4C4C4B4B4B4A4A4A494949CD
:10206000484848474747474646464545454444440F
:1020700044434343434242424241414146EA0646C9
:10208000A3F570534FEA164646EA42564FEAD2226B
:1020900042EA415210B54FEAD121A3F1010300F009
:1020A0002FF820F0004000F1020C00F0004701EB97
:1020B00000501146BCF5006F40EA070000D210BD89
:1020C000BAF1000F0AD01CB503B44FF004004FF072
:1020D00004014FF000000FBCBDE810404FF00001BC
:1020E000BBF1010FB9BF04484FF0FF310348002195
:1020F00040EA070010BD00BFFFFFEF7F0000F07F48
:10210000002B9C4630D477002BD01CB54FEA370704
:1021100003B44FF010004FF01001BAF1000F06D0D9
:10212000BCF1000FDCBF40F0080040F008014FF0A8
:1021300000000FBCBDE810400BF1010BBBF1010F1B
:1021400008BF5FEA170722BF12F1010211F1010176
:102150004FF0004143F1000300F0004043EA00006B
:102160007047F9D35708D0E746EA064613F1400F07
:102170004FEA16461FDD13F1200FDFBF16430A4654
:10218000002120335B42BED0C3F1200746EA064659
:1021900002FA07F74FEA164646EA0706C3F1200798
:1021A00022FA03F201FA07F721FA03F14FF00003D4
:1021B00042EA0702A7E746EA020646EA06464FEA6F
:1021C000164646EA0106BCBF46EA0646360C4FF004
:1021D00000034FF000024FF0000194E72DE9804C1E
:1021E0009A46934670B491E8380007C831EA400C2B
:1021F00048BF34EA430C03D5FFF7A4FDFFF780FF87
:10220000F0BCBDE8008C2DE9804C9A46934670B432
:1022100091E8380007C831EA400C48BF34EA430C63
:1022200003D5FFF78FFDFFF729FFF0BCBDE8008C59
:102230002DE9804C9A46934670B491E8380007C85F
:1022400010F0804F08BF13F0804F03D100F01AF850
:10225000FFF756FFF0BCBDE8008C2DE9804C9A4694
:10226000934670B491E8380007C810F0804F08BF5B
:1022700013F0804F03D100F005F8FFF7FFFEF0BC2C
:10228000BDE8008C20F07F4780EA030023F07F4CFC
:1022900007EB0C03A3F57C5300F00040A3F1FE0311
:1022A00092F0000F00F0B38095F0000F00F07780FF
:1022B0002DE901494FEA11404FEA144621EA00484E
:1022C00000FB06FC24EA064708FB06F607FB08F8B5
:1022D00000FB07F718EB06484CEB164C4FEA124B85
:1022E00018EB07484FEA15464CEB174022EA0B4E15
:1022F0000BFB06FC25EA06470EFB06F607FB0EFE67
:102300000BFB07F71EEB064E4CEB164C4FF000068E
:102310001EEB074E4CEB174B18EB0B0840F100007F
:1023200018EB0E0B58EB000840F100008F1A4FF02D
:1023300000013CBFC943661B14BFB5EB040C002170
:102340003CBFC943F61B4FEA17444EEA8E0E27EAFC
:1023500004454FEA1C4704FB07622CEA074C05FBC7
:1023600007F70CFB05F604FB0CFC16EB074642EBEB
:10237000174216EB0C4642EB1C421BEB060658EBD1
:102380000202414146EA9E0601D5BDE80189B6191F
:10239000524141EB0101A3F10103BDE801894FEA7C
:1023A00014454FEA114724EA054621EA074C05FB8C
:1023B00007F406FB07F70CFB06F105FB0CFC11EB21
:1023C000074144EB17444FEA124711EB0C4144EB31
:1023D0001C4422EA074C05FB07F206FB07F70CFB3F
:1023E00006F605FB0CFC16EB074642EB174216EB14
:1023F0000C4642EB1C456A1854F1000148BF704777
:10240000B619524141EB0101A3F10103704795F068
:10241000000F37D04FEA11424FEA144721EA024633
:1024200024EA074C02FB07F106FB07F70CFB06F456
:1024300002FB0CFC14EB074441EB17414FEA154734
:1024400014EB0C4441EB1C4125EA074C02FB07F559
:1024500006FB07F70CFB06F602FB0CFC16EB074627
:1024600045EB174516EB0C4645EB1C42121951F192
:10247000000148BF7047B619524141EB0101A3F179
:10248000010370474FEA14454FEA114724EA054615
:1024900021EA074C05FB07F106FB07F70CFB06F2E8
:1024A0004FF0000605FB0CFC12EB074241EB174115
:1024B00012EB0C4251EB1C4148BF7047921841EBA4
:1024C0000101A3F10103704708B54FF47A70009041
:1024D00003E0BDF80000401E0090BDF80000002899
:1024E000F7D108BD2DE9F04188B00121080310F0B3
:1024F000A1FE02278DF81D7001268DF81C600024B6
:102500008DF81E4040200690DFF8A08006A94046C6
:1025100005F064FC382506958DF81C708DF81E407A
:1025200003208DF81D008DF81F6006A9404605F0B8
:1025300055FC05220321404605F08EFC05220421AE
:10254000404605F089FC05221146404605F084FC12
:102550004021404605F099FCFFF7B6FF4021404678
:1025600005F091FCADF804404FF48270ADF8060020
:10257000F002ADF80800ADF80A40ADF80C4080104C
:10258000ADF80E00ADF81050ADF812400720ADF8D0
:102590001400074C01A9204611F025FD0121204619
:1025A00011F00AFD08B0BDE8F0810000000402400F
:1025B0000030014030B589B000250895594C16E02F
:1025C0009DF82010012011F0CBFC9DF8201024F87C
:1025D0001100A0880390E088059060890490A0898C
:1025E0000290E08901909DF82000401C08909DF821
:1025F00020000828E4D3BDF814304B4A1078014677
:10260000401C10704748103020F8113011783C29D8
:1026100018D11570069507950AE09DF81C1030F842
:102620001110069B194406919DF81C10491C079136
:102630009DF81C103C29F0D306983C21B0FBF1F02A
:102640003A490860BDF810305078411C5170410083
:1026500034488830435251781E2918D15570069558
:1026600007950AE09DF81C1030F81110069B1944DC
:1026700006919DF81C10491C07919DF81C101E29FD
:10268000F0D306981E21B0FBF1F029490880BDF86F
:102690000830D078411CD170410026484352D1788F
:1026A0006424642917D1D570069507950AE09DF832
:1026B0001C1030F811300699194406919DF81C1031
:1026C000491C07919DF81C106429F0D306981A49FB
:1026D000B0FBF4F00880BDF80C3090780146401C47
:1026E00090701448C83820F811309178642900D1CE
:1026F0009570069507950AE09DF81C1030F81110AA
:10270000069A114406919DF81C10491C07919DF8EA
:102710001C106429F0D306980849B0FBF4F0086057
:1027200009B030BD5C0C00202D01002064000020A9
:1027300062000020100E0020680000206C000020C5
:1027400011B581B00C4C0221204611F041FC00284B
:10275000F9D0BDF80410204611F043FC01212046B9
:1027600011F036FC0028F9D0204611F038FC00901A
:10277000BDF800001CBD000000300140F0B59BB06A
:1027800001210D02284610F055FD0121880510F0A9
:1027900027FD4020009003268DF8046000248DF86A
:1027A000074069462B4805F019FB02942A4803901C
:1027B0002A4804900594322006900794A8000890B7
:1027C0004000099080000A900B9500010C900D9438
:1027D00001250E950F941094214F02A9384602F05E
:1027E0004FFC0121384602F025FC01221021384619
:1027F00002F02CFC01F0B4FE174F01214C3F38468B
:1028000000F070F8119412941394149411A800F02D
:1028100055F815948DF858508DF85950189419940E
:102820008DF8686015A9384600F074F8002301227D
:102830000621384600F094F80121384600F032F8BD
:10284000384600F0C7F80121384600F057F81BB0B1
:10285000F0BD0000000002404C200140A009002013
:10286000106402400CB50020009001900B490AE072
:102870009DF8040031F81000009A104400909DF873
:102880000400401C01909DF804003228F0D3009809
:102890003221B0FBF1F0024908800CBDA0090020F4
:1028A00060000020002904D0816841F001018160AE
:1028B0007047816821F001018160704710B5074CB5
:1028C000226807490A40D0E900131943D0E90230D1
:1028D000034319431143216010BD0000042301404C
:1028E000E030FCFF002904D0816841F480718160F0
:1028F0007047816821F4807181607047002904D09D
:10290000816841F4007181607047816821F4007131
:102910008160704730B542680F4B1A400C790B68E4
:1029200042EA04221343436083680C4A1340D1E90E
:10293000034222434D798C6844EA450422431A43FA
:102940008260C26A22F47002097D491EC9B242EA5D
:102950000151C16230BD0000FFFEFFFCFDF7FFC06A
:1029600070B5072609290AD9C568A1F10A0404EB44
:102970004404A640B543A3401D43C56007E0056974
:1029800001EB4104A640B543A3401D4305611F234D
:10299000072A09D2446B521E02EB820293409C43E9
:1029A00091400C43446370BD0D2A09D2046BD21FC1
:1029B00002EB820293409C4391400C43046370BD40
:1029C000C46A0D3A02EB820293409C4391400C434F
:1029D000C46270BD816841F0804181607047002809
:1029E00000DC404270474178007841EA002070479F
:1029F00010B50C480078400612D40B4C20684107F3
:102A00000ED5020609484FF4007103D4BDE810400A
:102A100005F03BBA05F037FA206820F0040020608A
:102A200010BD0000440000203C00002000080240CF
:102A30000748D0F88000002809D10649086840F00E
:102A40000400054B00221A8020F0800008607047C7
:102A5000740B00203C0000207A00002038B5456847
:102A600004460146284615F013FE00282AD02068A7
:102A7000304A0F2819D006DC0B2824D00C2810D09F
:102A80000E2851D12FE0112802D028284CD145E042
:102A90009268002A16D02146284601B0BDE8304091
:102AA0001047214628465268F7E7284606F034F9D1
:102AB0000090406E0468684606F078F9002C01D05A
:102AC0002846A04738BD284606F026F90090683011
:102AD00006F08AF8009803216C3006F08DF86846FD
:102AE00006F064F920E0E168486809680D2902D021
:102AF000202913D105E0002810DD28461CF030FF06
:102B000006E0002804DD2846BDE838401CF028BF58
:102B10002846BDE8384002211CF038BFE06818B9EB
:102B20000021284600F075F82046BDE8384016F030
:102B300023BA0000FC020020F0B5044685B080698D
:102B4000B4F90850668A0027CDE90265CDE900177F
:102B50000490B4F90C00B4F91060C118B4F90A007B
:102B6000B4F90E50104433462A4600F007F80546E3
:102B7000616800F057F805B02846F0BDF0B585B0A3
:102B80000C46DDE90D514C31DFF850C0DDE90A6734
:102B9000CDE902C12146CDE9006716F03DF90400F8
:102BA00018D006F0B9F810222946049015F094FFC9
:102BB000049830220A493430FDF783FD084D04990A
:102BC0000C3D2868486604A806F0F0F828684168BB
:102BD0002046884705B02046F0BD00005D2A000869
:102BE00008030020032902D2014A42F8210070475D
:102BF0000803002038B50D46040009D006F08CF813
:102C000000904565684606F0D1F8204616F0ABFC0A
:102C100038BD4FF480720029114601D015F0C2BDB5
:102C200015F014BD2DE9FF410E4605004FF00104DB
:102C30001CD006F071F80190876E01A8009706F08D
:102C4000B5F83146684608F0FBFE78B100980024DC
:102C5000B84208D0284606F05FF8019000998166D6
:102C600001A806F0A3F8284616F07DFC04B0204623
:102C7000BDE8F081FEE700002DE9F05F7B4C217894
:102C80007B4840F66F0519396F1C82696FF07046FA
:102C900040F6770840F6780940F6710A40F6790B5D
:102CA0000C2925D2DFE801F00626456424242424DB
:102CB00083A224C229460546104616F06BFA8046C8
:102CC0003146404612F04AFB6FF07F41404612F019
:102CD00097FB3946A86916F05DFA0546654928460E
:102CE00012F03CFB0021284612F08AFB1A202070CB
:102CF000BDE8F09F05463946104616F04BFA0746E8
:102D00003146384612F02AFB6FF07F41384612F008
:102D100077FB4146A86916F03DFA05465549284615
:102D200012F01CFB0021284612F06AFB1B202070C9
:102D3000DEE705464146104616F02CFA07463146B6
:102D4000384612F00BFB6FF07F41384612F058FB0B
:102D50004946A86916F01EFA05464649284612F06B
:102D6000FDFA0021284612F04BFB1C202070BFE723
:102D700005464946104616F00DFA074631463846D4
:102D800012F0ECFA6FF07F41384612F039FB5146F1
:102D9000A86916F0FFF905463649284612F0DEFA12
:102DA0000021284612F02CFB21202070A0E70546C8
:102DB0005146104616F0EEF907463146384612F0F5
:102DC000CDFA6FF07F41384612F01AFB5946A869D8
:102DD00016F0E0F905462749284612F0BFFA00210F
:102DE000284612F00DFB2220207081E70546594647
:102DF000104616F0CFF907463146384612F0AEFAC3
:102E00006FF07F41384612F0FBFA40F67201A86974
:102E100016F0C0F905461749284612F09FFA00211E
:102E2000284612F0EDFA2420207061E7074640F6AC
:102E30007201104616F0AEF980463146404612F057
:102E40008DFA6FF07F41404612F0DAFA2946B869F0
:102E500016F0A0F905460749284612F07FFA00212E
:102E6000284612F0CDFA1920207041E7AA0100206F
:102E7000BC010020FFFFBF00F0B52DED028B83B039
:102E800087480178192938D000269FED860A864C9C
:102E900001251A29A06934D0844A1B297ED01C2917
:102EA0002BD1E17B40F678031F1D022977D0E17B0F
:102EB000012922D1D18800EE901AF8EE600A80EE46
:102EC000808A194616F066F979A112F074FA39462B
:102ED000A06916F05FF9054618EE100A26F076FE96
:102EE00041EC100B76A153EC102B01A8FDF7F2F981
:102EF00001A9284612F05FFAE67303B0BDEC028B1D
:102F0000F0BD627B4FF407636F491F1D022A27D073
:102F1000627B012AF1D1D1F8881000EE901AF8EE08
:102F2000600A80EE808A194616F034F967A112F023
:102F300042FA3946A06916F02DF9054618EE100A36
:102F400026F044FE41EC100B5DA153EC102B01A8C0
:102F5000FDF7C0F901A9284612F02DFA6673CCE7F7
:102F6000D1F88C1000EE901AF8EE600A80EE808A9C
:102F7000194616F00FF959A112F01DFA3946A06949
:102F800016F008F9064618EE100A26F01FFE41EC6E
:102F9000100B4BA153EC102B01A801E008E05AE004
:102FA000FDF798F901A9304612F005FA6573A4E718
:102FB000A17B9FED4E0A40F677031F1D022926D004
:102FC000A17B012999D1118800EE901AF8EE600AD0
:102FD00080EE808A194616F0DDF845A112F0EBF973
:102FE0003946A06916F0D6F8054618EE100A26F004
:102FF000EDFD41EC100B42A153EC102B01A8FDF7A5
:1030000069F901A9284612F0D6F9A67375E7518827
:1030100000EE901AF8EE600A80EE808A194616F0EB
:10302000B9F839A112F0C7F93946A06916F0B2F81B
:10303000064618EE100A26F0C9FD41EC100B30A12F
:1030400053EC102B01A8FDF745F901A9304612F009
:10305000B2F9A57351E7118900EE901AF8EE600AF3
:1030600080EE808A194616F095F82BA112F0A3F98C
:103070003946A06916F08EF8064618EE100A26F0BA
:10308000A5FD41EC100B0EA153EC102B01A8FDF790
:1030900021F901A9304612F08EF9E5732DE7000001
:1030A000AA01002000007A44BC010020D88600203C
:1030B000E688AAE6ADA2E794B5E6B5813100000046
:1030C000252E336600000000740B0020E99990E57E
:1030D00088B6E794B5E6B58131000000E99990E53E
:1030E00088B6E794B5E6B581320000000000C8421A
:1030F000E688AAE6ADA2E794B5E58E8B3100000024
:10310000252E326600000000E688AAE6ADA2E7940C
:10311000B5E58E8B32000000E688AAE6ADA2E79402
:10312000B5E6B58132000000F0B52DED028B83B01D
:1031300086480178192938D09FED850A854C0125EC
:103140000226A0691A2934D0834A1B297DD01C2964
:103150002BD1E17B40F678031F1D002976D0E17B5F
:10316000012922D1518900EE901AF8EE600A80EE12
:10317000808A194616F00EF878A112F01CF939462B
:10318000A06916F007F8054618EE100A26F01EFD95
:1031900041EC100B75A153EC102B01A8FDF79AF828
:1031A00001A9284612F007F9E67303B0BDEC028BC3
:1031B000F0BD627B6F494FF407631F1D3AB3627B1A
:1031C000012AF2D1D1F8901000EE901AF8EE600AC0
:1031D00080EE808A194615F0DDFF67A112F0EBF84A
:1031E0003946A06915F0D6FF054618EE100A26F0FC
:1031F000EDFC41EC100B5DA153EC102B01A8FDF789
:1032000069F801A9284612F0D6F86673CDE7D1F81F
:103210008C1000EE901AF8EE600A80EE808A194653
:1032200015F0B8FF58A112F0C6F83946A06915F09C
:10323000B1FF064618EE100A26F0C8FC41EC100B50
:103240004AA153EC102B01A801E008E059E0FDF77A
:1032500041F801A9304612F0AEF86573A5E7A17BED
:103260009FED4D0A40F677031F1D31B3A17B012965
:103270009BD1918800EE901AF8EE600A80EE808A69
:10328000194615F087FF45A112F095F83946A06957
:1032900015F080FF054618EE100A26F097FC41EC69
:1032A000100B42A153EC102B01A8FDF713F801A954
:1032B000284612F080F8A67377E7518800EE901A3E
:1032C000F8EE600A80EE808A194615F063FF39A196
:1032D00012F071F83946A06915F05CFF064618EE49
:1032E000100A26F073FC41EC100B30A153EC102BAC
:1032F00001A8FCF7EFFF01A9304612F05CF8A573B6
:1033000053E7118900EE901AF8EE600A80EE808A89
:10331000194615F03FFF2BA112F04DF83946A06970
:1033200015F038FF064618EE100A26F04FFC41EC67
:10333000100B0EA153EC102B01A8FCF7CBFF01A939
:10334000304612F038F8E5732FE70000AA0100209C
:1033500000007A44BC010020D8860020E688AAE656
:10336000ADA2E794B5E6B58133000000252E3366A3
:1033700000000000740B0020E99990E588B6E794FE
:10338000B5E6B58133000000E99990E588B6E79489
:10339000B5E6B581320000000000C842E688AAE622
:1033A000ADA2E794B5E58E8B33000000252E326682
:1033B00000000000E688AAE6ADA2E794B5E58E8B92
:1033C00032000000E688AAE6ADA2E794B5E6B58132
:1033D000320000002DE9F05F7B4C21787B4840F6FD
:1033E0006F056E1C1939F71D82696FF0704B40F63E
:1033F000780840F6710940F6790A0C2926D2DFE8F0
:1034000001F0062746652525252584A325C22946E2
:103410000546104615F0BEFE06465946304611F0E8
:103420009DFF6FF07F41304611F0EAFF40F67201D8
:10343000A86915F0AFFE05466549284611F08EFFD4
:103440000021284611F0DCFF24202070BDE8F09F09
:1034500031460646104615F09DFE07465946384649
:1034600011F07CFF6FF07F41384611F0C9FF29460B
:10347000B06915F08FFE05465549284611F06EFFDC
:103480000021284611F0BCFF19202070DEE7054618
:103490003946104615F07EFE07465946384611F06B
:1034A0005DFF6FF07F41384611F0AAFF3146A869F1
:1034B00015F070FE05464649284611F04FFF0021E1
:1034C000284611F09DFF1A202070BFE705464146AF
:1034D000104615F05FFE06465946304611F03EFF95
:1034E0006FF07F41304611F08BFF3946A86915F027
:1034F00051FE05463649284611F030FF0021284686
:1035000011F07EFF1B202070A0E7054649461046BB
:1035100015F040FE06465946304611F01FFF6FF089
:103520007F41304611F06CFF4146A86915F032FE2C
:1035300005462749284611F011FF0021284611F0C1
:103540005FFF1C20207081E705465146104615F0AC
:1035500021FE06465946304611F000FF6FF07F41CC
:10356000304611F04DFF4946A86915F013FE054697
:103570001749284611F0F2FE0021284611F040FFBD
:103580002120207062E7054640F67201104615F0D2
:1035900001FE06465946304611F0E0FE6FF07F41CD
:1035A000304611F02DFF5146A86915F0F3FD054690
:1035B0000749284611F0D2FE0021284611F020FFCD
:1035C0002220207042E70000AA010020BC01002058
:1035D000FFFFBF002DE9F04F2DED068B83B0F948BA
:1035E000416E00EE101AB8EE400ADFEDF70AC0EEA9
:1035F000209A816E00EE101AB8EE400ADFEDF30A51
:1036000080EE209AC16E006F00EE100AB8EE400AFC
:10361000DFEDED0A80EE20AAED480178ED4E193974
:10362000DFF8B4B301259FEDED8BDFF8B8830024FC
:10363000ED4FD8F8180040F677094FF6FF7A1029B9
:1036400039D2DFE801F00886FEFD3DB6FCFBFAF951
:10365000F8F7F6F5F4F340F66F0115F09BFD074619
:103660006FF07041384611F079FE6FF07F413846B7
:1036700011F0C6FE40F67301D8F8180015F08AFD67
:103680000746DA49384611F069FE0021384611F044
:10369000B7FE0294D64906E09DF808000C549DF848
:1036A0000800401C02909DF808000628F4D3C84981
:1036B0001D200870357003B0BDEC068BBDE8F08F9F
:1036C00040F6730115F066FD81466FF07041484683
:1036D00011F044FE6FF07F41484611F091FEB94869
:1036E00041686422B1FBF2F182685143594500D927
:1036F0004460406800EE100AF8EE400A9FEDB21AEE
:1037000080EE810A10EE100A26F060FA41EC100BF0
:10371000B8A153EC102B6846FCF7DCFD694648461F
:1037200011F049FE40F66F01D8F8180015F032FD8F
:103730008046AE49404611F011FE0021404611F08E
:103740005FFEA3491920087035703C7016F0A2FE88
:10375000B1E74FF4076115F01DFD05466FF07041AC
:10376000284611F0FBFD6FF07F41284611F048FE1E
:1037700002949F4906E09DF808000C549DF808004B
:10378000401C02909DF808000628F4D340F674010E
:10379000D8F8180015F0FEFC04469449204611F0B4
:1037A000DDFD0021204611F02BFE89491E20087006
:1037B00081E740F6740115F0EDFC81466FF0704131
:1037C000484611F0CBFD6FF07F41484611F018FEDE
:1037D0003878002869D03878A8B1009401943A78F4
:1037E0008349D21C6846FCF7CDFF68461FF0F4FA07
:1037F00053EC182B51EC100B25F0BEFF25F028FFE1
:103800007049C1F888006F48D0F8882042F21071E2
:103810008A4201D9C0F88810D0F8881081604168C8
:103820006422B1FBF2F1826851430BE0ABE215E296
:1038300058E173E09CE376E2E0E1D9E2C8E311E30A
:1038400020E13CE0594500D98460806800EE100A10
:10385000F8EE400A9FED5D1A80EE810A10EE100A24
:1038600026F0B4F941EC100B64A153EC102B684620
:10387000FCF730FD6946484611F09DFD4FF40761A5
:10388000D8F8180015F086FC80465849404611F0DB
:1038900065FD0021404611F0B3FD4D491A20087026
:1038A00035703C7016F0F6FD05E75148FCF726FE32
:1038B0004FF47A7148434349C1F88800A3E7494669
:1038C00015F068FC05466FF07041284611F046FD82
:1038D0006FF07F41284611F093FD0294444906E0C1
:1038E0009DF808000C549DF80800401C02909DF8BB
:1038F00008000628F4D340F67B01D8F8180015F02C
:1039000049FC04463949204611F028FD0021204693
:1039100011F076FD2E4925200870CCE640F67B019B
:1039200015F038FC83466FF07041584611F016FDD3
:103930006FF07F41584611F063FD387858B33878FE
:10394000B0B1009401943A782949921C6846FCF77A
:1039500019FF68461FF040FA9FED2A1B51EC100B2F
:1039600053EC112B25F008FF25F072FE2749088043
:103970002648028841F638018A4200D9018098F829
:103980000E10A1B198F80E10012941D098F80E1030
:10399000022947D04FE01648FCF7B0FD00EBC0010C
:1039A00001EB001019490AEA80000880E0E700886E
:1039B000DFED050A00EE100AB8EE400AC0EE209ACC
:1039C00039E00000740B00200000C84200007A4477
:1039D000AA0100205C01002077D403000000000051
:1039E00000408F40BC0100205D010020FFFFBF00B0
:1039F000A0010020252E326600000000252E33662F
:103A0000000000000000000000005940D88600209F
:103A100040885FED130A00EE100AB8EE400AC0EECF
:103A2000209A08E080885FED180A00EE100AB8EED0
:103A3000400AC0EE209A19EE900A26F0C7F841EC31
:103A4000100B53EC102BAFF254016846FCF742FC0C
:103A50006946584611F0AFFC4946D8F8180015F0F1
:103A600099FB8046FA49404611F078FC0021404617
:103A700011F0C6FCF7491B20087035703C7016F039
:103A800009FD18E640F6780115F084FB05466FF055
:103A90007041284611F062FC6FF07F41284611F01A
:103AA000AFFC0294EC4906E09DF808000C549DF828
:103AB0000800401C02909DF808000628F4D340F648
:103AC0007C01D8F8180015F065FB0446E049204653
:103AD00011F044FC0021204611F092FCDD49262023
:103AE0000870E8E540F67C0115F054FB81466FF064
:103AF0007041484611F032FC6FF07F41484611F0AA
:103B00007FFC387848B33878A0B1009401943A78B3
:103B1000D149D21C6846FCF735FE68461FF05CF9B7
:103B200053EC182B51EC100B25F026FE25F090FDE0
:103B3000CA49C880C948C28842F210718A4200D975
:103B4000C18098F80F10A1B198F80F1001291AD070
:103B500098F80F10022920D028E0BF48FCF7CEFCCF
:103B600000EB4001C1EBC010BC490AEAC000C880AC
:103B7000E0E7C08800EE100AB8EE400A5FED6D0A7B
:103B800080EE209A12E0008900EE100AB8EE400A9A
:103B90005FED720A80EE209A08E0408900EE100A7C
:103BA000B8EE400A5FED770A80EE209A19EE100A0F
:103BB00026F00CF841EC100B53EC102BAFF2C411B3
:103BC0006846FCF787FB6946484611F0F4FB40F66F
:103BD0007801D8F8180015F0DDFA80469C49404677
:103BE00011F0BCFB0021404611F00AFC99491C2051
:103BF000087035703C7016F04DFC5CE540F67901BC
:103C000015F0C8FA05466FF07041284611F0A6FB82
:103C10006FF07F41284611F0F3FB02948E4906E0D5
:103C20009DF808000C549DF80800401C02909DF877
:103C300008000628F4D340F67D01D8F8180015F0E6
:103C4000A9FA04468249204611F088FB002120464B
:103C500011F0D6FB7F49272008702CE540F67D0146
:103C600015F098FA81466FF07041484611F076FBE6
:103C70006FF07F41484611F0C3FB3878F0B33878D5
:103C8000A0B1009401943A787349D21C6846FCF7BD
:103C900079FD68461FF0A0F853EC182B51EC100B7F
:103CA00025F06AFD25F0D4FC6D49C8666C48C06EED
:103CB00000EE100AF8EE400A1FEDBC1A80EE810AF1
:103CC00010EE100A25F082FF41EC100B53EC102B84
:103CD000AFF2D8216846FCF7FDFA6946484611F074
:103CE0006AFB40F67901D8F8180015F053FA8046BF
:103CF0005749404611F032FB002100E00AE04046FF
:103D000011F07EFB53492220087035703C7016F08C
:103D1000C1FBD0E45048FCF7F1FB4FF47A71484303
:103D20004F49C866C2E740F67A0115F033FA0546F6
:103D30006FF07041284611F011FB6FF07F4128466B
:103D400011F05EFB0294444906E09DF808000C5413
:103D50009DF80800401C02909DF808000628F4D346
:103D600040F67E01D8F8180015F014FA04463849D8
:103D7000204611F0F3FA0021204611F041FB3549AD
:103D80002820087097E440F67E0115F003FA81467A
:103D90006FF07041484611F0E1FA6FF07F414846FC
:103DA00011F02EFB1AEE100A25F010FF41EC100B5B
:103DB00053EC102BAFF2C4316846FCF78BFA69461E
:103DC000484611F0F8FA40F67A01D8F8180015F0D4
:103DD000E1F980461E49404611F0C0FA00214046F4
:103DE00011F00EFB1B492320087035703C7062E413
:103DF00040F6710115F0CEF905466FF07041284686
:103E000011F0ACFA6FF07F41284611F0F9FA0294F4
:103E1000114906E09DF808000C549DF80800401C6C
:103E200002909DF808000628F4D340F67501D8F8F2
:103E3000180015F0AFF904460549204611F08EFA36
:103E40000021204611F0DCFA02491F20087032E4FC
:103E5000FFFFBF00AA010020A0010020D88600209B
:103E6000740B002040F6750115F094F981466FF04F
:103E70007041484611F072FA6FF07F41484611F0E8
:103E8000BFFA3878E8B33878A8B1009401943A784A
:103E90007549D21C6846FCF775FC68461EF09CFF0D
:103EA00053EC182B51EC100B25F066FC25F0D0FBE1
:103EB0006E49C1F89C006D48D0F89C1047F2305212
:103EC000914213D8D0F89C1000EE101AF8EE400A78
:103ED0009FED671A6749684A80EE810AD1ED000AB2
:103EE00020EE200A10EE101A914201DDC0F89C402D
:103EF000D0F89C100161006900EE100AF8EE400A4B
:103F000000E02BE09FED5A1A80EE810A10EE100AB5
:103F100025F05CFE41EC100B53EC102BAFF224515A
:103F20006846FCF7D7F96946484611F044FA40F66E
:103F30007101D8F8180015F02DF980464F49404618
:103F400011F00CFA0021404611F05AFA4C49212098
:103F5000087035703C7016F09DFA29E44248FCF771
:103F6000CDFA4FF47A7148434049C1F89C00A2E76A
:103F700040F6720115F00EF905466FF070412846C3
:103F800011F0ECF96FF07F41284611F039FA0294F4
:103F9000354906E09DF808000C549DF80800401CC7
:103FA00002909DF808000628F4D340F67601D8F870
:103FB000180015F0EFF804463049204611F0CEF90C
:103FC0000021204611F01CFA2D49202008706BE4D6
:103FD00040F6760115F0DEF881466FF070414846F4
:103FE00011F0BCF96FF07F41484611F009FA3878BA
:103FF00090B3387878B1009401943A781A496846B9
:10400000FCF7C0FB68461EF0E7FE51EC100B25F0F4
:104010001FFB88F8000098F800201AA16846FCF7FA
:1040200059F96946484611F0C6F940F67201D8F8C8
:10403000180015F0AFF880461049404611F08EF98F
:104040000021404611F0DCF90D492420087035703C
:104050003C7016F01FFA27E4FFE70348FCF74EFA1E
:1040600088F80000D7E70000A0010020740B0020B2
:1040700000007A442400002000004843FFFFBF00F6
:10408000AA0100202533640070B5174C61792046E1
:10409000164D806940F69902012912D0A17B0129B1
:1040A0001DD0114615F076F806466FF07041304687
:1040B00011F054F92946304611F0A2F92F20207052
:1040C00070BD114615F066F804462946204611F0E9
:1040D00045F92046BDE87040002111F091B9BDE8D6
:1040E000704000F08FB9000044020020FFFFBF00C5
:1040F0002DE9FF470446006810B115F06DFF68B167
:104100000022314850F8221060680A2841D007DCAC
:10411000F0B306280DD0072854D106E00122F0E7BD
:1041200012280AD019284DD137E0204617F018FB85
:1041300048E0204618F0A2FC44E0206804F0ECFDC2
:104140000290B0F9548090F85650476C466B02A824
:1041500004F02CFE206800F039F88146684614F01F
:10416000F1FFBDF8001009EB05000844ADF80000B0
:10417000246A304606F0F2F9022006F02FFA38469B
:1041800006F0E2F942466946204605F099F919E041
:1041900007E0204618F05EFF14E0886904B0BDE82F
:1041A000F087206815F0DCFB206804F0B5FD039073
:1041B000B0F90610B0F90220891A491CC16703A89A
:1041C00004F0F4FD0020E9E71834040838B504F0E1
:1041D000A3FD0090C46F684604F0E8FD204638BD9A
:1041E000044A034911600449CA69C861104670470E
:1041F00038030020000700200407002000B589B024
:1042000024216846FCF797FA1920019003480068BA
:10421000806841686846884709B000BD00070020F3
:1042200070B5FF22FF23084D05F5807605E010F8F4
:10423000014B54402A5D5A40335D491E89B2F6D283
:1042400043EA022070BD0000C89D020810B50A4A6A
:104250000A4C4FF40061002807D0012804D1104611
:1042600003F013FE0120A07010BD104603F00BFEFA
:104270000020A07010BD00000000024038010020A6
:104280001CB50F49052008700E48002404700E4824
:1042900004707021682012F062F84FF480510B48CE
:1042A00003F0F1FD14F06AFF03460094084A072169
:1042B0000848019404F028FF074948601CBD00002D
:1042C0005E010020AA01002080000020000C0240B6
:1042D00065680208BCAD0208EC0100201CB5084965
:1042E0000620087014F04AFF034600200090019059
:1042F000044A0121044804F007FF044948601CBD3A
:104300005E010020096C020880AE02083C02002019
:104310007CB52D4C207800280FD0207802280CD0B6
:104320004FF40041294803F0B0FD0221284803F072
:10433000AAFD4FF4FA7000F047FF022020702549D3
:1043400008702549112008702448D0F89810416061
:10435000D0F89810142201EB810102EB4101C160F9
:10436000D0F8A01081601E481F4D90ED050AF8EEB0
:10437000C00A9FED1C0A80EE801A85ED021AD0ED6E
:10438000040A1A48F8EEE00A80EE801A80ED001A5E
:104390001748002404701749032008707021682012
:1043A00011F0DDFF4FF48051134803F06CFD14F061
:1043B000E5FE03460094114A14211148019404F0CB
:1043C000A3FE68607CBD00005E010020000002408A
:1043D0000008024081000020AA010020740B002088
:1043E000E486002000007A4448010020B401002047
:1043F00080000020A7010020000C024005320208C6
:10440000D89F02081CB514F0B9FE0024034600949E
:10441000064A07210648019404F076FE05494860E3
:1044200005490C70054A082111701CBD7D720208F7
:10443000609D03086C020020800000205E010020C7
:104440001CB514F09BFE002403460094074A122179
:104450000748019404F058FE06498861064A147022
:10446000064B07221A702F220A701CBD896C0208A5
:10447000689B030844020020800000205E010020A9
:104480001CB502208DF8050001208DF804000020E5
:104490008DF806001C2000906946024803F09EFC3F
:1044A0001CBD00000010024031B582B02B4D04212C
:1044B000284603F0E8FC0821284603F0E6FC00BF8C
:1044C00000BF00BF00BF0421284603F0DEFC00BF90
:1044D0000821284603F0D9FC0421284603F0D3FC28
:1044E000002101914FF6FF7429E09DF8041007297F
:1044F00012D9BDF80810080404D51021284603F08D
:10450000C4FC03E01021284603F0BDFCBDF80810F0
:1045100004EA4100029003E01021284603F0B3FCB6
:104520000821284603F0AFFC00BF00BF00BF0821F0
:10453000284603F0AAFC9DF80410491C01919DF83F
:1045400004001828D1D30421284603F09EFC03B0B0
:104550002846BDE83040082103F097BC0010024017
:1045600008B538208DF8000003208DF801008DF883
:10457000020001208DF8030068460BF005FC08BD21
:1045800070B5644DA97928460024406A05F14406B7
:10459000462970D01EDC15293BD0162952D040295F
:1045A0007ED140F6051114F0F5FD2978012906D9D0
:1045B0002978491E29702978314401F8014C29785D
:1045C0006A78914200D16C70BDE870405149443125
:1045D00010F0F1BE4D2967D04E297CD04F295FD114
:1045E00040F6341114F0D6FD2978012906D929782E
:1045F000491E29702978314401F8014C29786A78DC
:10460000914200D16C70BDE870404249443110F0D5
:10461000D2BE40F66B0114F0BDFD2978012906D900
:104620002978491E29702978314401F8014C2978EC
:104630006A78914200D16C70BDE8704035494431D0
:1046400010F0B9BE40F66C0114F0A4FD29780129E0
:1046500006D92978491E29702978314401F8014C7E
:1046600029786A78914200D16C70BDE87040294980
:10467000443110F0A0BE40F60E1114F08BFD2978E5
:10468000012906D92978491E29702978314401F871
:10469000014C29786A78914200D16C701D4900E084
:1046A00037E0443110F087FE40F63211686A14F0AA
:1046B00071FD2978012906D92978491E29702978A0
:1046C000314401F8014C29786A78914200D16C702C
:1046D0001049443100E003E0BDE8704010F06BBECB
:1046E00040F6331114F056FD2978012906D92978AE
:1046F000491E29702978314401F8014C29786A78DB
:10470000914200D16C70BDE870400249443110F014
:1047100052BE70BD5C0100202DE9F0416B4801786C
:104720006B481D396B4F806900246B4D6B4E0C2913
:104730007ED2DFE801F0061E364EC8C8C8C86680C3
:1047400098B040F6730114F025FD2978012906D9A7
:104750002978491E29702978394401F8014C2978B3
:104760003278914200D13470BDE8F041594910F0DF
:1047700022BE40F6740114F00DFD2978012906D9F6
:104780002978491E29702978394401F8014C297883
:104790003278914200D13470BDE8F0414D4910F0BB
:1047A0000ABE40F6750114F0F5FC2978012906D9F6
:1047B0002978491E29702978394401F8014C297853
:1047C0003278914200D13470BDE8F041414910F097
:1047D000F2BD40F6760114F0DDFC2978012906D9F6
:1047E0002978491E29702978394401F8014C297823
:1047F0003278914200D13470BDE8F041354910F073
:10480000DABD40F67B0114F0C5FC2978012906D9F0
:104810002978491E29702978394401F8014C2978F2
:104820003278914200D13470BDE8F041294900E06E
:1048300049E010F0C0BD40F67C0114F0ABFC2978D3
:10484000012906D92978491E29702978394401F8A7
:10485000014C29783278914200D13470BDE8F041A2
:104860001C4910F0A8BD40F67D0114F093FC297896
:10487000012906D92978491E29702978394401F877
:10488000014C29783278914200D13470BDE8F04172
:10489000104910F090BD40F67E0114F07BFC2978A1
:1048A000012906D92978491E29702978394401F847
:1048B000014C29783278914200D13470BDE8F04142
:1048C000044910F078BDBDE8F0810000AA01002085
:1048D000BC010020A00100205C0100205D0100203F
:1048E0002DE9F0412B4801782B482C4F00244068DB
:1048F0002B4D2C4E18291BD0432931D0562947D196
:1049000040F62D1114F046FC2978012906D92978A2
:10491000491E29702978394401F8014C29783278E8
:10492000914200D13470BDE8F0411C4910F043BD04
:1049300040F66E0114F02EFC2978012906D9297859
:10494000491E29702978394401F8014C29783278B8
:10495000914200D13470BDE8F041104910F02BBDF8
:1049600040F6111114F016FC2978012906D929788E
:10497000491E29702978394401F8014C2978327888
:10498000914200D13470BDE8F041044910F013BDEC
:10499000BDE8F081AA010020AC010020A0010020A8
:1049A0005C0100205D0100202DE9F0418B48017879
:1049B0008B488C4F002440688B4D8C4E10297DD045
:1049C0003ADC0D297BD01BDC032955D0042977D193
:1049D00040F63C0114F0DEFB2978012906D929783C
:1049E000491E29702978394401F8014C2978327818
:1049F000914200D13470BDE8F0417A4910F0DBBC3F
:104A00000E297DD00F295BD140F6640114F0C2FB62
:104A10002978012906D92978491E2970297839442D
:104A200001F8014C29783278914200D13470BDE808
:104A3000F0416C4910F0BFBC512935D052294FD0FC
:104A400053297CD054293BD140F6381114F0A2FBF5
:104A50002978012906D92978491E297029783944ED
:104A600001F8014C29783278914200D13470BDE8C8
:104A7000F0415C4910F09FBC40F63B0114F08AFB0A
:104A80002978012906D92978491E297029783944BD
:104A900001F8014C29783278914200D13470BDE898
:104AA000F041504910F087BC40F6351114F072FB0C
:104AB000297801290AD92978491E02E05CE029E019
:104AC0008AE029702978394401F8014C2978327834
:104AD000914200D13470BDE8F041424910F06BBC06
:104AE00040F6361114F056FB2978012906D92978A9
:104AF000491E29702978394401F8014C297800E0D1
:104B000022E03278914200D13470BDE8F04135495D
:104B100010F051BC40F6620114F03CFB29780129E9
:104B200006D92978491E29702978394401F8014CA1
:104B300029783278914200D134702A4900E033E07C
:104B4000BDE8F04110F037BC40F6630114F022FBE1
:104B50002978012906D92978491E297029783944EC
:104B600001F8014C29783278914200D13470BDE8C7
:104B7000F0411C4910F01FBC40F6650114F00AFB1F
:104B80002978012906D92978491E297029783944BC
:104B900001F8014C29783278914200D13470BDE897
:104BA000F041104910F007BC40F6371114F0F2FA4A
:104BB0002978012906D92978491E2970297839448C
:104BC00001F8014C29783278914200D13470BDE867
:104BD000F041044910F0EFBBBDE8F081AA010020CC
:104BE000EC010020A00100205C0100205D010020FC
:104BF0002DE9F0412B4801782B482C4F00244068C8
:104C00002B4D2C4E11291BD0122931D0582947D1B8
:104C100040F62E1114F0BEFA2978012906D9297818
:104C2000491E29702978394401F8014C29783278D5
:104C3000914200D13470BDE8F0411C4910F0BBBB7B
:104C400040F6660114F0A6FA2978012906D92978D8
:104C5000491E29702978394401F8014C29783278A5
:104C6000914200D13470BDE8F041104910F0A3BB6F
:104C700040F6670114F08EFA2978012906D92978BF
:104C8000491E29702978394401F8014C2978327875
:104C9000914200D13470BDE8F041044910F08BBB63
:104CA000BDE8F081AA01002048010020A0010020F9
:104CB0005C0100205D010020014800687047000091
:104CC000840300202DE9F041404D40F666016868FC
:104CD00014F060FA3E4C21784FF47F066FF0704775
:104CE000112951D0394610F039FB40F66701686848
:104CF00014F050FA217812294AD0394610F02EFBD0
:104D000040F62E11686814F045FA2178582943D0EE
:104D1000394610F023FB40F63A11686814F03AFA6D
:104D2000217859293CD0394610F018FB40F6020191
:104D3000686814F02FFA2178112935D00021FDF789
:104D400068FF40F60301686814F024FA21781229FC
:104D50002ED00021FDF75DFF40F60401686814F0D5
:104D600019FA2178582927D00021FDF752FF40F683
:104D70000501686814F00EFA2178592920D0BDE8A1
:104D8000F0410021FDF745BF314610F0E7FAACE7EE
:104D9000314610F0E3FAB3E7314610F0DFFABAE734
:104DA000314610F0DBFAC1E70121FDF732FFC8E719
:104DB0000121FDF72EFFCFE70121FDF72AFFD6E7FE
:104DC000BDE8F0410121FDF724BF000048010020AB
:104DD000AA0100202DE9FE4F764C40F632016068B2
:104DE00014F0D8F907467449384610F0D2FA734DDA
:104DF0002878DFF8CC816FF070496FF07F4A002887
:104E00007DD04946384610F0A9FA5146384610F090
:104E1000F7FA6C4EF16F01EB410066490E3101EB80
:104E20004001384610F0C7FA40F63301606814F0CC
:104E3000B1F907466049384610F0ABFA28780128E6
:104E40007ED04946384610F089FA5146384610F06F
:104E5000D7FAD6F8801001EB4100564908310144D9
:104E6000384610F0A8FA40F63401606814F092F960
:104E700007465549384610F08CFA287802287DD02C
:104E80004946384610F06AFA5146384610F0B8FAEA
:104E9000D6F8840047493E3101EBC001384610F096
:104EA0008AFA40F63B01606814F074F907462878E6
:104EB00003286CD04946384610F050FA514638461F
:104EC00010F09EFAB06B00EE100AF8EE400A9FED6B
:104ED0003F1A80EE810A10EE100A24F077FE41ECB2
:104EE000100B3BA153EC102B6846FBF7F3F9694616
:104EF000384610F060FA40F63C01606800E02AE0B5
:104F000014F048F904462878042849D04946204638
:104F100010F024FA5146204610F072FAB06C9FED62
:104F20002E1A00EE100AF8EE400A80EE810A10EE0A
:104F3000100A24F04BFE41EC100B53EC102B00E058
:104F400013E026A16846FBF7C5F96946204610F034
:104F500032FABDE8FE8F4146384610F0FFF90021D5
:104F6000384610F04DFA54E708E04146384610F054
:104F7000F5F90021384610F043FA6AE74146384611
:104F800010F0ECF90021384610F03AFA80E741467B
:104F9000384610F0E3F90021384610F031FA91E775
:104FA0004146204610F0DAF90021204610F028FA98
:104FB000B4E70000EC0100201C260408AA01002030
:104FC000FFFFBF00740B0020E8FE03080000C8428A
:104FD000252E32660000000000007A44252E33663C
:104FE0000000000010B50549054800F00DF805481F
:104FF000016841F00201016010BD00002080001036
:10500000106402403C000020074A904201D2074849
:1050100001E005481038064A8B0001EA020101D57B
:10502000C1607047816070471064024000600240B8
:105030007D0F7D0F002904D0016841F0010101605E
:105040007047016821F00101016070470B0609D526
:1050500022B1436943F08003436103E0436923F0D5
:1050600080034361802905D001F01E011AB1026856
:105070000A430260704702688A430260704700007A
:1050800030B50368124A1340CC680A682243D1E95C
:1050900005452C432243CC6922430C6A22434C6AC7
:1050A00022438C6A22434C6B22438C6B22431A436B
:1050B0000260426922F00703D1E90B2422431A431C
:1050C00042610A6942604A6882608968C16030BD95
:1050D0003F801CF0F8B50546006803F01DFE009007
:1050E000448ED0F88860684603F060FE06B1012661
:1050F00004F00104286814F06FFF0EB1002006E0F0
:105100000CB1012003E008B1022000E003201B499C
:1051100051F82010686858B302280CD0052802D036
:10512000122828D103E0284616F046FB23E0284643
:1051300018F025FC1FE06A69E8694FF0FF33801A18
:10514000A0F1080203EB6204421CAB69001B45108E
:10515000A3EB6206C86905F0F7F906E03219311BC6
:10516000284604F07BFB641E6D1C002CF6DA02E07E
:10517000286814F0F5FB0020F8BD0000783404081E
:10518000044A0349116004490A6B086310467047DA
:1051900088030020400700204407002038B50D4652
:1051A000002403F0B9FD0090C06B294603F096FE81
:1051B0000546684603F0FAFD1DB1284603F0ACFD34
:1051C0000446204638BD704711B54FF47A7402E0AA
:1051D000204600F006F8BDF800104A1E0092F7D2F3
:1051E00018BD01B582B000200190042110E00091AB
:1051F00000BF00BF00BF00BF00BFBDF80000401EE1
:105200000004000C0090F3D1BDF80400401C019094
:10521000BDF80400BDF808209042E8D30EBD0000A0
:1052200010B52DED028B20490A78204CB2EE048A8D
:10523000022AE0681ED00978032918D11C4991ED93
:10524000000A20EE080ABDEEC00A10EE101A09B2DC
:1052500002F0F2FE174890ED000A20EE080ABDEEBB
:10526000C00A10EE100A01B2206902F0E5FEBDECA2
:10527000028B10BD104991ED000A20EE080ABDEE28
:10528000C00A10EE101A09B202F0D6FE0B4890EDDB
:10529000000A20EE080ABDEEC00A10EE100A01B2A4
:1052A000206902F0C9FEE2E7A7010020D801002032
:1052B0002800002030000020240000202C000020C6
:1052C0001CB51048C07901281AD1FF2005F03CF91F
:1052D000022005F071F9B4200021CDE9001003236C
:1052E00006220C214FF4C37004F094F902B00C2391
:1052F000BDE8104040F27F120421034804F010BBC7
:105300001CBD000080000020C89F020831B523F0BA
:105310002BF9A02023F0F0F823F056F970B99DF88E
:10532000000023F0E9F823F04FF938B923F01CF915
:10533000A12023F0E1F823F047F918B123F030F968
:10534000002038BD23F0ACF8034C207023F090F817
:1053500023F026F9207838BD7800002070B50120B0
:10536000FFF7D4FFFE4C20600120FFF7CFFF206045
:105370002068000220600220FFF7C8FF216808446F
:1053800020602068000220600320FFF7BFFF216833
:10539000084420602068000220600420FFF7B6FF68
:1053A0002168084420600520FFF7B0FFED4D28601C
:1053B0002868000228600620FFF7A8FF2968084433
:1053C00028602868000228600720FFF79FFF2968EF
:1053D000084428602868000228600820FFF796FF2C
:1053E000296808442860C020FFF790FF6063606B65
:1053F00000026063C120FFF789FF616B08446063AE
:10540000606B00026063C220FFF780FF616B08449D
:105410006063606B00026063C320FFF777FF616B1E
:1054200008446063C420FFF771FF6863686B000283
:105430006863C520FFF76AFF696B08446863686B9F
:1054400000026863C620FFF761FF696B0844686368
:10545000686B00026863C720FFF758FF696B084458
:105460006863C820FFF752FFA063A06B0002A0632F
:10547000C920FFF74BFFA16B0844A063A06B00029B
:10548000A063CA20FFF742FFA16B0844A063A06B92
:105490000002A063CB20FFF739FFA16B0844A06393
:1054A000CC20FFF733FFA863A86B0002A863CD20D0
:1054B000FFF72CFFA96B0844A863A86B0002A86340
:1054C000CE20FFF723FFA96B0844A863A86B000256
:1054D000A863CF20FFF71AFFA96B0844A86309202F
:1054E000FFF714FF60606068000260600A20FFF749
:1054F0000DFF6168084460606068000260600B2016
:10550000FFF704FF61680844606060680002606043
:105510000C20FFF7FBFE6168084460600D20FFF778
:10552000F5FE68606868000268600E20FFF7EEFE16
:105530006968084468606868000268600F20FFF7C7
:10554000E5FE6968084468606868000268601020C9
:10555000FFF7DCFE6968084468601120FFF7D6FE9B
:10556000A060A0680002A0601220FFF7CFFEA16833
:105570000844A060A0680002A0601320FFF7C6FEE8
:10558000A1680844A060A0680002A0601420FFF792
:10559000BDFEA1680844A0601520FFF7B7FEA86013
:1055A000A8680002A8601620FFF7B0FEA9680844AA
:1055B000A860A8680002A8601720FFF7A7FEA968E6
:1055C0000844A860A8680002A8601820FFF79EFEA3
:1055D000A9680844A8601920FFF798FEE060E06819
:1055E0000002E0601A20FFF791FEE1680844E060E5
:1055F000E0680002E0601B20FFF788FEE1680844D5
:10560000E060E0680002E0601C20FFF77FFEE168D8
:105610000844E0601D20FFF779FEE860E8680002BA
:10562000E8601E20FFF772FEE9680844E860E86859
:105630000002E8601F20FFF769FEE9680844E8609F
:10564000E8680002E8602020FFF760FEE96808448F
:10565000E8602120FFF75AFE2061206900022061E6
:105660002220FFF753FE21690844206120690002CF
:1056700020612320FFF74AFE216908442061206948
:10568000000220612420FFF741FE216908442061C7
:105690002520FFF73BFE28612869000228612620AB
:1056A000FFF734FE2969084428612869000228614F
:1056B0002720FFF72BFE296908442861286900028A
:1056C00028612820FFF722FE296908442861292043
:1056D000FFF71CFE60616069000260612A20FFF72D
:1056E00015FE6169084460616069000260612B20F9
:1056F000FFF70CFE61690844606160690002606147
:105700002C20FFF703FE6169084460612D20FFF73C
:10571000FDFD68616869000268612E20FFF7F6FDF3
:105720006969084468616869000268612F20FFF7B1
:10573000EDFD6969084468616869000268613020AC
:10574000FFF7E4FD696908446861AB20FFF7DEFDFF
:10575000E062E06A0002E062AC20FFF7D7FD03E000
:10576000CC0A0020200B0020E16A0844E062E06AD5
:105770000002E062AD20FFF7C9FDE16A0844E06283
:10578000E06A0002E062AE20FFF7C0FDE16A084473
:10579000E062AF20FFF7BAFDE862E86A0002E86263
:1057A000B020FFF7B3FDE96A0844E862E86A000246
:1057B000E862B120FFF7AAFDE96A0844E862E86AF6
:1057C0000002E862B220FFF7A1FDE96A0844E8623E
:1057D000B720FFF79BFD2063206B00022063B820F9
:1057E000FFF794FD216B08442063206B00022063C7
:1057F000B920FFF78BFD216B08442063206B00026A
:105800002063BA20FFF782FD216B08442063BB2090
:10581000FFF77CFD2863286B00022863BC20FFF79C
:1058200075FD296B08442863286B00022863BD209E
:10583000FFF76CFD296B08442863286B000228637E
:10584000BE20FFF763FD296B084428633120FFF772
:105850005DFDA061A0690002A0613220FFF756FD46
:10586000A1690844A061A0690002A0613320FFF78C
:105870004DFDA1690844A061A0690002A061342027
:10588000FFF744FDA1690844A0613520FFF73EFD04
:10589000A861A8690002A8613620FFF737FDA96951
:1058A0000844A861A8690002A8613720FFF72EFD0F
:1058B000A9690844A861A8690002A8613820FFF717
:1058C00025FDA9690844A8613920FFF71FFDE061A3
:1058D000E0690002E0613A20FFF718FDE169084441
:1058E000E061E0690002E0613B20FFF70FFDE16944
:1058F0000844E061E0690002E0613C20FFF706FD3A
:10590000E1690844E0613D20FFF700FDE861E869D6
:105910000002E8613E20FFF7F9FCE9690844E8610C
:10592000E8690002E8613F20FFF7F0FCE9690844FC
:10593000E861E8690002E8614020FFF7E7FCE969F7
:105940000844E8614120FFF7E1FC2062206A000280
:1059500020624220FFF7DAFC216A08442062206AB4
:10596000000220624320FFF7D1FC216A0844206234
:10597000206A000220624420FFF7C8FC216A084424
:1059800020624520FFF7C2FC2862286A00022862D4
:105990004620FFF7BBFC296A08442862286A0002F7
:1059A00028624720FFF7B2FC296A08442862286A67
:1059B000000228624820FFF7A9FC296A08442862EF
:1059C000D020FFF7A3FCE063E06B0002E063D1208E
:1059D000FFF79CFCE16B0844E063E06B0002E063CE
:1059E000D220FFF793FCE16B0844E063E06B000218
:1059F000E063D320FFF78AFCE16B0844E063D42026
:105A0000FFF784FCE863E86B0002E863D520FFF74A
:105A10007DFCE96B0844E863E86B0002E863D6208C
:105A2000FFF774FCE96B0844E863E86B0002E86385
:105A3000D720FFF76BFCE96B0844E863D820FFF739
:105A400065FC2064206C00022064D920FFF75EFC16
:105A5000216C08442064206C00022064DA20FFF7E7
:105A600055FC216C08442064206C00022064DB207B
:105A7000FFF74CFC216C08442064DC20FFF746FC57
:105A80002864286C00022864DD20FFF73FFC296CA5
:105A900008442864286C00022864DE20FFF736FCE6
:105AA000296C08442864286C00022864DF20FFF772
:105AB0002DFC296C084428644920FFF727FC60620C
:105AC000606A000260624A20FFF720FC616A0844B5
:105AD0006062606A000260624B20FFF717FC616A37
