:020000040800F2
:10000000E08F00209502000877FF0008D1BC0008AF
:1000100075FF0008692C0008B1A00108000000006D
:10002000000000000000000000000000CB5A0108A2
:100030004F51000800000000C92F0108B16B0108F2
:10004000AF020008AF020008AF020008AF020008CC
:10005000AF020008AF020008AF020008AF020008BC
:10006000AF020008AF020008AF020008AF020008AC
:10007000AF020008AF020008AF020008AF0200089C
:10008000AF020008AF020008AF020008AF0200088C
:10009000AF020008AF020008AF020008AF0200087C
:1000A000AF020008AF020008AF020008AF0200086C
:1000B000AF020008C1700108CD730108AF0200084B
:1000C000AF020008AF020008AF020008AF0200084C
:1000D000AF020008659C0108AF0200086D9D010891
:1000E000AF020008AF020008AF020008AF0200082C
:1000F000AF020008AF020008AF020008AF0200081C
:10010000AF020008AF020008957A0108AF020008AC
:10011000AF020008AF020008757B0108AF020008BB
:100120006D4F0008AF020008AF020008AF020008E0
:10013000AF020008AF020008AF020008AF020008DB
:10014000AF020008AF020008AF020008AF020008CB
:10015000AF020008AF020008AF020008AF020008BB
:10016000AF020008AF020008AF020008AF020008AB
:10017000AF020008AF020008AF020008AF0200089B
:10018000AF020008AF02000800F002F800F072F8B9
:100190000AA090E8000C82448344AAF10107DA45E2
:1001A00001D100F067F8AFF2090EBAE80F0013F0C2
:1001B000010F18BFFB1A43F00103184744A60400BF
:1001C00064A604000A444FF0000C10F8013B13F041
:1001D000070408BF10F8014B1D1108BF10F8015BA0
:1001E000641E05D010F8016B641E01F8016BF9D193
:1001F00013F0080F1EBF10F8014BAD1C0C1B09D1EA
:100200006D1E58BF01F801CBFAD505E014F8016B5B
:1002100001F8016B6D1EF9D59142D6D370470000ED
:100220000023002400250026103A28BF78C1FBD8FF
:10023000520728BF30C148BF0B60704766292BF0BA
:100240009585642900F08280002070471FB52BF04F
:1002500080FD00F093FE0400002000212AF082FFC0
:10026000401C6060002000212AF066FFE0601FBD96
:1002700010B510BD00F0F6FF1146FFF7E7FF2AF0BA
:10028000BFFA01F09FFA03B4FFF7F2FF03BC01F0DD
:10029000CDFC00000948804709480047FEE7FEE71B
:1002A000FEE7FEE7FEE7FEE7FEE7FEE7FEE7FEE726
:1002B00004480549054A064B70470000796C01085F
:1002C00089010008E0890020E08F0020E08B0020F9
:1002D000E08B00200FB41CB5074B06AA7B4469468F
:1002E0000090059800F03BFD0020694600F04AFDB3
:1002F0001CBC5DF814FB0000A50A000070B50446A4
:1003000085690068C10601D5302600E02026C007B7
:1003100007D070BDD4E9012130469047206A401CC7
:1003200020626D1EF6D570BD70B5044685690078F3
:10033000C00707D170BDD4E9012120209047206A71
:10034000401C20626D1EF6D570BD00002DE9F04105
:100350000646002410687529314616A510D0AFF363
:100360000080002802DA404213A507E031688A07BE
:1003700001D512A502E0490704D511A5012401E029
:10038000AFF3008000210A2206F1240709E0B0FB48
:10039000F2FCB0FBF2F302FB1C003030785418463C
:1003A000491C0028F3D123462A463046BDE8F041D7
:1003B00000F067BA000000002D0000002B000000D4
:1003C000200000002DE9F05F894604464FF0000A46
:1003D000DFF824B1FB44C0F820A02046E16888473C
:1003E00000287DD0252806D0D4E901219047206A35
:1003F000401C2062F1E700255F462046E1688847FF
:100400002028064607DB312E05D2B81910F8200C3B
:1004100008B10543F1E7A80701D525F00405C4F8A4
:100420001CA00027C4F818A02A2E09D0304629F0B5
:1004300089FF38B304EB8708303EC8F8186019E02C
:1004400059F8041B204604EB87029161E168884754
:10045000012F064618D1E069002820DA25F0200592
:100460001DE0D8F8180000EB800006EB40003038A3
:10047000C8F818002046E1688847064629F062FF60
:100480000028EED1012F0AD02E2E08D12046E16897
:1004900088477F1C0646022F45F02005C4DBA06973
:1004A000002803DA404245F00105A061E80701D0C9
:1004B00025F01005A6B1A6F14100192802D8203672
:1004C00045F400654A463146204625604D46FFF713
:1004D000B5FE60B1012807D0ED1D25F0070000E052
:1004E00007E000F1080978E705F1040975E73046EF
:1004F0007AE7206ABDE8F09F44A3040070B5064681
:1005000000F0B0F90468054630460A22002100F0E8
:1005100091FC2C6070BD40EA0103024630B59B0798
:1005200010D14FF0013400E008C208C91D1B9D43E3
:1005300015EAC41FF8D013F0FF0102F8011B0DD01B
:100540001B0AF8E711F8013B002B02F8013B05D02C
:1005500011F8013B002B02F8013BF3D130BD10B57F
:10056000431C02E010F8011B71B18107FAD14FF072
:10057000013202C88C1A8C4314EAC211F9D0C01A95
:100580000A0603D0C01E10BDC01A10BD0A0401D057
:10059000801E10BD0902FCD0401E10BD421E12F884
:1005A000013F002BFBD111F8013B002B02F8013B6E
:1005B000F9D17047032A40F2308010F0030C00F0AC
:1005C000158011F8013BBCF1020F624498BF11F88D
:1005D00001CB00F8013B38BF11F8013BA2F1040246
:1005E00098BF00F801CB38BF00F8013B11F00303BE
:1005F00000F06780083AC0F0088051F8043B083AE0
:1006000051F804CBA0E80810F5E7121D5CBF51F8C3
:10061000043B40F8043BAFF30080D20724BF11F83D
:10062000013B11F801CB48BF11F8012B24BF00F8A2
:10063000013B00F801CB48BF00F8012B7047431A7B
:1006400028BF9A427FF6B6AF032A1044114440F205
:10065000268010F0030F1EBF11F8013D521E00F856
:10066000013D10F0030F7FF4F6AF11F0030300F02B
:100670002C84083AC0F00B8051F8043D083A51F838
:1006800004CD40F8043D40F804CDFFF7F3BF121D40
:100690005CBF51F8043D40F8043DAFF30080D20741
:1006A00024BF11F8013D11F801CD48BF11F8012C0C
:1006B00024BF00F8013D00F801CD48BF00F8012C2F
:1006C000704710B5203AC0F00B80B1E81850203ABE
:1006D000A0E81850B1E81850A0E81850BFF4F5AFE2
:1006E0005FEA027C24BFB1E81850A0E8185044BF6C
:1006F00018C918C0BDE810405FEA827C24BF51F8D9
:10070000043B40F8043B08BF7047D20728BF31F8CC
:10071000023B48BF11F8012B28BF20F8023B48BF1D
:1007200000F8012B704702F0FF0343EA032242EA7C
:10073000024200F0F6BB4FF0000200B513469446AB
:100740009646203922BFA0E80C50A0E80C50B1F129
:100750002001BFF4F7AF090728BFA0E80C5048BF3D
:100760000CC05DF804EB890028BF40F8042B08BFDB
:10077000704748BF20F8022B11F0804F18BF00F8D7
:10078000012B704710B5044610F0030F08BF11F09D
:10079000030F40F015804FF0013E121FC0F20E8093
:1007A00051F8043BA3EB0E0C2CEA030C1CEACE1C04
:1007B00008BF40F8043BF0D0A1F1040102F10402AB
:1007C000521E08DB11F8013B002B00F8013BF7D16A
:1007D000114600F0A4FB204610BD00004FF0013C84
:1007E00050F8042B51F8043B9A4221D1A2EB0C03A0
:1007F000934313EACC1317D150F8042B51F8043B60
:100800009A4215D1A2EB0C03934313EACC130BD1FC
:1008100050F8042B51F8043B9A4209D1A2EB0C0387
:10082000934313EACC13DBD04FF00000704700BFB6
:10083000D01A01BAB1FA81F101F0180122FA01F0DF
:10084000CB40C1F12001DBB2C0B2C01A2CFA01F3D7
:10085000D11A914311EAC311E6D17047704770472E
:1008600070470000004870478089002010B5FFF7EE
:10087000F9FF006810BD10B50446FFF7F3FF0460F0
:1008800010BD2DE9F0470D4699469246044600F109
:1008900024080168880604D5E06921F01001216070
:1008A00000E00120A84201DD471B00E00027A1690C
:1008B0007A1902EB0900081AA0612078C00602D458
:1008C0002046FFF71BFD002608E0D4E901211AF8B5
:1008D00006009047206A401C761C20624E45F4DBDF
:1008E0002078C0060AD52046FFF708FD06E0D4E9C7
:1008F000012130209047206A401C2062381EA7F159
:100900000107F4DC07E0D4E9012118F8050090475D
:10091000206A401C2062281EA5F10105F3DC204658
:10092000FFF702FD2078000602D50220BDE8F0871F
:100930000120FBE770472DE9FF4F0C461E464FF0A4
:10094000FF378BB0D2E90001DDF860800A908A465B
:10095000C1F30A5505B93D46002108464FF0000095
:10096000BAF1000F00F4400005DA00EB80004FF40C
:10097000400101EA50004FEA9059B9F1010F00DD42
:10098000B9460A9850EA4A000ED044F61050A5F233
:10099000FF3545432F14B8F1000F1ED07542291EB4
:1009A0001EDDC9F100021CE0B8F1010F4FF000009C
:1009B00001D0302103E0F24305E02154401CB04255
:1009C000FBDB30460022002121540B99C1F808803E
:1009D000C1E900200FB0BDE8F08FBD1B6D1CDEE744
:1009E0004A4600DA694206A800F0CAFB06AB93E863
:1009F000070003AB83E8070050460A9901F030F97D
:100A00008DE80700A0F500501F3800900398002DD6
:100A10000ADD42F21F014A460844002303A903905D
:100A2000684601F0DBFB09E0A0F500504A461F389C
:100A3000002303A90390684601F0FAFB8DE8070044
:100A40000004000C03D04FF0FF30410800E01046D6
:100A5000B8F1000F03D00022009215461EE0751E6B
:100A600005D400F08FFA303262556D1EF9D5B346C9
:100A70000122084302D000227F1C04E020783028A5
:100A800001D100227F1E002A099784D01DE0112D7C
:100A900007DA00F077FA303262556D1C50EA010235
:100AA000F5D1084302D00098C8B10EE00021681EBD
:100AB00005E0235C625C63542254401E491C814261
:100AC000F7DBAB46A81B401E0990002004F80B0082
:100AD0000B98099AC0F80880C0E9002B7AE7112624
:100AE0004FF0000857E72DE9F04F88460446D21D25
:100AF00022F0070191B0D1E90001CDE90A0123F00C
:100B000035FE02460B98C00F01D02D2007E020686B
:100B1000810701D52B2002E0202101EAC000032A31
:100B2000099001D0072A05DB03464146204600F024
:100B300077FA0BE12078800601D5E06900E0062015
:100B4000B8F1650F814606D0B8F1660F18D0B8F13C
:100B5000670F70D131E00020B9F1110F009001DB77
:100B6000112301E009F101030AAA01A90CA8FFF76A
:100B7000E2FEDDE90C70002609F10105834647E03D
:100B800001204B4600904FF000470AAA01A90CA88B
:100B9000FFF7D1FEDDE90DB00C995D46002610B9D6
:100BA00009F101000D18B9EB050003D4C0F1FF36BF
:100BB00009F10105A5EB09002BE0B9F1010F01DAFC
:100BC0004FF001090020B9F1110F0090484601DDF6
:100BD000112300E003460AAA01A90CA8FFF7ABFE07
:100BE000DDE90C704D4600268346207800070AD4C4
:100BF000AB4500DA5D4601A8012D04DD411911F86D
:100C0000011C302907D04F4502DA17F1040F04DA2E
:100C1000012082460FE06D1EEEE7002F02DCED1B87
:100C20003E4403E0781CA84200DD7D1CB81B00F1A7
:100C3000010A4FF000472078000703D4AA4501DBE2
:100C40004FF0FF3A0021B7F1004F0DF143088DF846
:100C5000431024D002202B23002F01DA7F422D23C2
:100C60000A21021EA0F1010000DC5FB197FBF1FC3C
:100C700097FBF1F201FB1C7C17460CF1300C08F8D5
:100C800001CDEEE7A8F1010003702188090501D527
:100C9000452100E06521A0F1010800F8011C099838
:100CA0000FA9A1EB0807FF1D00B10120411901EBBD
:100CB000EA70A1693844081A401EA0612078C00675
:100CC00002D42046FFF71AFB099828B1D4E9012184
:100CD0009047206A401C20622078C00622D520461A
:100CE000FFF70CFB1EE0002E04DBB34502DD01A87C
:100CF000805D00E03020D4E901219047206A401C4B
:100D00002062761CAAF101005FEA000A0AD100F015
:100D100035F9C0680168405CD4E901219047206A38
:100D2000401C2062281EA5F10105DCDC07E0D4E9A7
:100D3000012118F8010B9047206A401C2062381EE0
:100D4000A7F10107F3DC2046FFF7EEFA032011B00C
:100D500041E6000001694A1C02610878704700B54D
:100D60008FB0CDE901310021059105497944CDE9E4
:100D7000031011466846FFF725FB0FB000BD0000C9
:100D8000E5FFFFFF0A6802F8010B0A6070470000E8
:100D90000FB4002300B589B00CA900910B99CB606A
:100DA000214B7B440693214B7B44079304236FF034
:100DB0000042CDE901321E4A7A446B46089202464F
:100DC00000202BF035F809B05DF814FB70B506462D
:100DD0004FF0FF3015460C46324686B00091CDE903
:100DE000010169460020049004A8FFF7D1FF0246E4
:100DF0000498211825B108B1084600E02046286073
:100E0000049800280DD0002A02DD0098884208D0FE
:100E10003246081B69460094CDE9010404A8FFF797
:100E2000B7FF06B070BD0000FB0200001303000016
:100E3000530200002DE9F04791460F4680460446D4
:100E4000002614F8015B2DB100F090F80068405DB9
:100E5000C007F6D12B2D02D02D2D18D0641E4A4686
:100E60003946204600F03CF927B13968A14201D14A
:100E7000C7F800804FF0020471050BD540420028EE
:100E800003DDFFF7EFFC0460A007BDE8F08746F440
:100E90008066E4E70028F8DAFFF7E4FC04606FF00E
:100EA0000040F2E7431A28BF9A427FF60AAC10448A
:100EB00010F0030F11441EBF11F8013D521E00F83F
:100EC000013D10F0030F7FF4F6AF103AC0F00A8036
:100ED00010B531E91850103A20E91850BFF4F9AFB5
:100EE000BDE81040530724BF31E9081020E908107D
:100EF00044BF51F8043D40F8043D12F0030F08BF11
:100F00007047D20728BF31F8023D48BF11F8012CC5
:100F100028BF20F8023D48BF00F8012C70474FF071
:100F200000020429C0F0128010F0030C3FF405AC5D
:100F3000CCF1040CBCF1020F18BF00F8012BA8BFC4
:100F400020F8022BA1EB0C01FFF7F7BB5FEAC17C95
:100F500024BF00F8012B00F8012B48BF00F8012B3B
:100F600070470000004870478089002010B500F0ED
:100F700005F8001D10BD00BFEDA10200004870473C
:100F8000A089002030B5B0F10A024FEA900E71F14D
:100F900000034EEA817EB0EB0E0061EB91014FEA57
:100FA000101E4EEA017E10EB0E0041EB11114FEACC
:100FB000102E4EEA016E10EB0E0041EB11214FEAAC
:100FC000104E4EEA014E10EB0E0041EB114140185D
:100FD00041F100014FEAD00040EA41704FEAD101EF
:100FE00010EB80054FEA810444EA907444EB01045D
:100FF0006D1944EB0404521BA3414FF0000348BF9A
:101000000A3200D530BD401C41F1000130BD10B5A1
:101010000446FFF7ABFF0068005D00F0010010BD63
:101020002DE9F0411F46044603260168072A01F412
:10103000006004DB08B116A505E016A503E008B1C1
:1010400015A500E015A521F010002060A069C01EC4
:10105000A0610FB1401EA0612046FFF74FF94FB1CC
:10106000D4E9012138469047206A401C2062C01C08
:10107000206206E0206AFAE7D4E9012115F8010BA5
:101080009047761EF8D22046FFF74EF9BDE8F08172
:101090004E414E006E616E00494E4600696E66001C
:1010A000426842B1016811F8013B23B1521EC0E908
:1010B0000012184670470121C160881E70474268BF
:1010C0005AB1C368016843B983688B4205D0491E91
:1010D000521CC0E90012002070474FF0FF307047EB
:1010E0002DE9F05F824615468B4600270AF1010480
:1010F000B9460078302801D09DB113E014F8010BF7
:101100000127782803D0582801D045B10AE00DB155
:10111000102D07D1002714F8010B102502E0082537
:1011200000E00A250026B0460EE005FB080005FB9E
:1011300006F101271FFA80F801EB1046B6F5803F53
:1011400000D3B94614F8010B294600F0B0F8002886
:10115000EBDABBF1000F05D00FB1641E00E054467E
:10116000CBF80040B9F1000F06D0FFF77BFB02215E
:101170000160C81EBDE8F09F48EA0640FAE700009B
:101180002DE9F047814616468AB0354878440DC8A7
:101190008DE80D0032487844801C03AC0DC884E80B
:1011A0000D0041F69B300844372190FBF1F290FB93
:1011B000F1F5A5F1800501FB12041B3C02D5644248
:1011C000012000E00020DFF898A080460027FA44C4
:1011D000AAF1BE0A0EE0E0070AD03246684607EBE5
:1011E000470101230AEB810101F022F88DE8070095
:1011F00064107F1C002CEED1194F7F44AE3F19E0E4
:10120000E80715D007EB04100DF1180A90E80E005E
:101210008AE80E00C068F04201D198190890324661
:10122000012306A903A801F003F803AB83E8070034
:101230006D10641C002DE3D14FF001033246694666
:10124000B8F1000F03A802D000F0C8FF01E000F0E1
:10125000EFFFC9E90001C9F808200AB0BDE8F0872E
:101260001C9604007546FFF77DFEAE4605006946F4
:10127000534620F00700854618B020B5FFF718F850
:10128000BDE820404FF000064FF000074FF0000887
:101290004FF0000B21F00701AC46ACE8C009ACE808
:1012A000C009ACE8C009ACE8C0098D4670473A28CF
:1012B00000D2303820F02002412A01D3A2F13700B9
:1012C000884201D34FF0FF30704700002DE9FF4FF7
:1012D00006468BB00878FF2806D0491C2D2805D07B
:1012E00000244FF0000908E000200CE00124F8E79A
:1012F00009EB8903491C00EB43090878FF28F7D163
:1013000014B1C9F100008146107800252C46AA4688
:1013100029462D2801D02B2804D1521C2D2813D06A
:10132000002082468B461078FF280FD04FF0000C2B
:101330000A21521CA5FB017804FB018105FB0C115D
:10134000C5194BEB0104EEE70120EAE7002108464E
:101350004FF00000BAF1000F02D000EB800040080F
:10136000C0F38157012F01DD4FF0FF370E9955EA89
:10137000040009EB01080BD04FF0020918F5FA7FC1
:1013800016DA4FEACA70002F706008DD012007E00E
:101390004FEACA70C6E900B00FB0BDE8F08F002078
:1013A0003060FFF75FFAC0F800901821084616E099
:1013B000B8F5FA7F18DD002F02DAF748784401E02B
:1013C000F6487844D0E90010C6E9001040EACA7037
:1013D0007060FFF747FAC0F80090142108460FB07C
:1013E000BDE8F04F2AF0BFBC002108464FF00000D6
:1013F000B8F10001099002DAC7F1000200E03A46B4
:1014000001DAC8F1000106A8FFF7BAFE06AB93E8BF
:10141000070003AB83E8070044F23E005BEA0401E7
:101420000090584604D144F21E012C465D460091BE
:10143000210C0904014306D10099240444EA15440F
:101440002D041039009104F07F41014306D1009929
:10145000240244EA15642D020839009104F0704119
:10146000014306D10099240144EA15742D01091F96
:10147000009104F04041014306D10099A40044EAE0
:101480009574AD00891E009104F00041084304D119
:1014900000986D196441401E00904FF001033A46D8
:1014A0006846B8F1000FCDE9014503A902DD00F05F
:1014B000D4FE01E000F0A7FEBAF1000F04460D468D
:1014C00001D084F00044002108464FF00000099943
:1014D00040F2FF77484010F00C0F07D124F0004095
:1014E000284303D0C4F30A50B84212D1FFF7BAF927
:1014F000C0F80090C4F30A50B8420AD1A848784412
:10150000D0E90010C6E9001004F000410843706003
:1015100042E7C6E900543FE72DE9FF4F1F464FF071
:10152000000A4FF0FF38454691B0D7E90146CDF8A3
:101530003CA0FFF723FDC0680168405C1090B969CA
:1015400012986D1C8847396A814688470028F6D171
:10155000B9F1FF3F0AD0002E24F4D06411DDB9F1B7
:101560002B0F08D0B9F12D0F0BD102E0404615B07A
:1015700013E744F48064B96912986D1C8847761E9D
:101580008146600504A901D52D2000E02B20002E06
:1015900001F1010B0DF130088DF810003FDDB9F1BC
:1015A000690F08D0B9F1490F05D0B9F16E0F02D01B
:1015B000B9F14E0F1CD13B4601A8009580E85002BE
:1015C000DDE912126FF002002AF036FCC11CCED108
:1015D0000EE0B96912986D1C884781461398761EF3
:1015E00044F4007405600F98401C002E0F9016DD27
:1015F000B9F1300FEDD0B9F1780F02D0B9F1580F31
:101600000DD10F9801280AD13B46CDE90054DDE900
:101610001212001F02962AF00DFCC11CA7D11099CE
:1016200089453ED144F0800406E01399681CAAF174
:10163000010A44F400740860B9696D1C1298761EA2
:10164000884730288146F0D02BE01099894505D194
:10165000200603D4761E44F0800418E0484628F0A3
:1016600071FE08B3761E0DF123018B4544F400741E
:1016700008D2A9F130000BF8010B200607D5AAF11A
:10168000010003E0200602D40AF101008246A00511
:1016900002D51399681C0860B96912986D1C8847B7
:1016A0008146002ED1DC53E0002E51DDB9F1650FEB
:1016B00002D0B9F1450F4BD1A00549D5B9696D1CD0
:1016C0001298761E24F440748847002E81460CDD63
:1016D0002B2804D0B9F12D0F07D144F48074B969D7
:1016E00012986D1C8847761E8146E00501D52D2194
:1016F00000E02B2108F8011BCDF8008021E0761EC8
:101700000DF13901884544F400740CD2A9F1300080
:1017100010F0FF0088F8000002D10099884509D92F
:1017200008F1010806E0E00501D51E4801E042F29B
:101730000F708246B96912986D1C884781461398CC
:101740000560002E04DD484628F0FCFD0028D6D1B7
:10175000F96912988847FF2053468BF8000088F8F3
:10176000000000200A900B9004AA0CA90AA8FFF719
:10177000ADFDA00502D46FF00100F8E614F0240FCF
:1017800012D0E0071CD13868DDE90A12031D3B6066
:101790000068C0E9001213E0689404005A94040041
:1017A0001E930400F1D8FFFF0AA9684623F030FA1F
:1017B000E00705D13868009A011D396000680260B1
:1017C0002846D4E610B50446AFF300802046BDE8B5
:1017D0001040FEF758BD00002DE9FF4F1F464FF0A7
:1017E0003C0987B04FF00042DDE9141001F1010817
:1017F000DDF858A002EA405003900020059083468F
:10180000054604460490B969461E08988847AAF11F
:10181000010A0290BAF1000F3BDD02982E2815D084
:101820001021FFF744FD00282EDB4FF0010B059936
:10183000014317D0B9F1000F0BDB4A46C11700F086
:10184000FBF905430C43A9F1040905E001200490CC
:101850000BE008B145F0010501200590049820B97E
:10186000361D02E0049800B1361FB969089808F1E6
:1018700001088847BBF1000FAAF1010A0290C9D004
:101880000999C1F80080C5E70298702808D050284F
:1018900006D0F96908988847BBF1000F14D04FE0D3
:1018A000002002900120BBF1000F049009D0B9691B
:1018B000089808F101088847AAF10109B9F1000F59
:1018C00007DCF969089888476FF001000BB0BDE8A4
:1018D000F08F2B2804D02D280CD14FF0FF3004902E
:1018E000B969089808F101088847A9F10109B9F117
:1018F000000FE6DD411CE4D00A21FFF7D8FC0028E8
:10190000DFDB029908F1010801EB810100EB4100E6
:101910000290B969089888470A21FFF7C8FC099A1C
:10192000A9F10109B9F1000FC2F8008001DD00281A
:10193000E7DAF969089888470499029800FB01667C
:1019400055EA040004D004F04041090002D006E04A
:10195000039898E0A40044EA9574AD00B61E04F024
:101960000041080002D16D196441761E159810F0EF
:10197000240F03D04FF00B095C4803E04FF0280917
:101980006FF07D008246564507DAAAEB06018944CE
:10199000B9F1410F01DD4FF0410901200021A9F10A
:1019A000010200F049F9024628400B462140084355
:1019B00001D0012100E00021501E029143F1FF31CE
:1019C00028402140084301D0012000E00020029976
:1019D000834651EA0B014FD0002108464FF000002A
:1019E000039900F4400039B100EB80004FF440014E
:1019F00000EBD07001EA60008015012802DD4FF095
:101A0000FF3000E013D0401C36D0029860B3BBF129
:101A1000000F0CD14A460120002100F00DF92840AA
:101A20002140084301D0012000E00020E0B1012066
:101A30004A46002100F000F9034640190A46614178
:101A40002D1A8C4111D3B9F1400F09DD159810F012
:101A5000240F02D0AAF1340603E0AAF1170600E031
:101A6000761C00254FF0004406E05B1E42F1FF3279
:101A700020EA030521EA0204CAF10100B04206DAB5
:101A80001B49039808430190002000900EE0039A40
:101A9000C4F3D321E80A0A43164940EA44500A43F2
:101AA0003146CDE90002684623F0BBF8159810F0E6
:101AB000240F0BD01598C00715D13868DDE9001246
:101AC000031D3B600068C0E900120CE002A86946F3
:101AD00023F09EF81598C00705D13868029A011DB9
:101AE0003960006802604046F0E6000002FCFFFF3B
:101AF0000000F07F0000F03F2DE9FF4F92461D46A9
:101B000085B04FF00041DDE9124BDDE914727F1E14
:101B100001EA4B50414940F0FF4940EA01080021E9
:101B200022F020004928049102D04E2828D04CE011
:101B30003BA0012607C88DE80700A9690698641C28
:101B400088477F1E014606D41DF8060018B121F013
:101B5000200181420BD0E96906988847032E34D0D2
:101B6000082E32D06FF0010009B0BDE8F08F761C6E
:101B7000032E01D0082EE0D1601CCAF80000DCE77B
:101B8000A9690698641C88477F1E2AD420F020008B
:101B9000412826D1A9690698641C88477F1E20D455
:101BA00020F020004E281CD1A9690698641C8847A3
:101BB0007F1E48F4002849F48009CAF8004001D487
:101BC000282806D0E969069888475FEACB7012D0CA
:101BD00022E0A9690698641C88477F1E01D400286A
:101BE00003DAE96906988847BCE72928F1D1641C23
:101BF000CAF80040E9E71BF0240F07D028680499D1
:101C0000031D2B600068C0E9001805E02868021D6C
:101C10002A600068C0F800902046A5E70000F07F29
:101C2000494E46494E4954590000000001491820C8
:101C3000ABBEFEE726000200B2F120030AD5C2F1D6
:101C4000200301FA02F120FA03F300FA02F041EA5C
:101C50000301704700FA03F14FF00000704770472E
:101C60005FEA400C08BF91F0000F4FEA8C234FEA67
:101C7000C12243EA51514FEA1C5018BF00F5F04011
:101C80004FEA300018BF41F000415FEA6C5C00F0A1
:101C90002980BCF1FF3F08BF40F080407047130C23
:101CA00006BF12044FF0100C4FF0000C130E04BFCF
:101CB00012020CF1080C130F04BF12010CF1040CFA
:101CC000930F04BF92000CF1020CD30F04BF52001B
:101CD0000CF1010C11464FF00002A0F11F00A0EB27
:101CE0000C00704711F0004F08BF704731F0004101
:101CF0003FF4D5AF0B0C06BF09044FF0100C4FF0AA
:101D0000000C0B0E04BF09020CF1080C0B0F04BFF2
:101D100009010CF1040C8B0F04BF89000CF1020CBB
:101D2000CB0F04BF49000CF1010CCCF12003A0EB58
:101D30000C0022FA03F302FA0CF241EA030100F16B
:101D40000100704720F07F4C80EA030023F07F47BA
:101D5000ACEB070303F57C5300F0004003F1FF03F5
:101D60002DE980494FEA154B09B44FEA144325EA9F
:101D70000B4E24EA03480FF2042606EB132749080A
:101D80003E785FEA320203FB0667C7F5000707FBF0
:101D900006F64FEA54374FEAD64606F1020607FB2D
:101DA000066CCCF1005C4FEA1C472CEA074C07FBA1
:101DB00006F40CFB06F504EB15464FEA961634BF05
:101DC00000204FF000404FEAD13706FB07FC4FEAF6
:101DD0001C4C0CFB0BF7D21B03FB0CF761EB070150
:101DE0000CFB0EF7B0EB074072EB17420CFB08F749
:101DF00034BFA2EB0742B2EB074261EB17414FEA57
:101E00000C444FEA910706FB07FC4FEA1C4C0CFB05
:101E10000BF7B0EBC74072EB573203FB0CF734BF44
:101E2000A2EBC742B2EBC74261EB57310CFB0EF796
:101E3000B0EBC70072EB57720CFB08F734BFA2EB94
:101E4000C702B2EBC70261EB5771039F4FEA816192
:101E500041EA921104EBCC044FEAD1374FEA826297
:101E600006FB07FC42EA90124FEA80604FEA1C4CE6
:101E70000CFB0BF7D21B03FB0CF761EB07010CFB10
:101E80000EF7B0EB074072EB17420CFB08F734BFBC
:101E9000A2EB0742B2EB074261EB17414FEA8C55C8
:101EA0004FEA910704EB9C2406FB07FC4FEA1C4C0D
:101EB0000CFB0BF7B0EBC74072EB573203FB0CF790
:101EC00034BFA2EBC742B2EBC74261EB57310CFB08
:101ED0000EF7B0EBC70072EB57720CFB08F734BF7C
:101EE000A2EBC702B2EBC70261EB577115EB4C25B1
:101EF0004FEA816141EA92114FEA82624FEAD1379B
:101F000042EA901206FB07FC44F100044FEA8060AD
:101F10004FEA1C4C0CFB0BF7D21B03FB0CF761EBDD
:101F200007010CFB0EF7B0EB074072EB17420CFBFE
:101F300008F734BFA2EB0742B2EB074261EB17414F
:101F400015EB1C154FEA813141EA92414FEA82328A
:101F500042EA90424FEA80304FEA0C7644F10004A6
:101F600048EA03434EEA0B484FF0000EB2EB080C70
:101F700071EB030724BF624639464EEB0E0E4FF05D
:101F8000000B0018524149414BEB0B0BB2EB080C14
:101F900071EB03077BF1000B24BF624639464EEB21
:101FA0000E0E4FF0000B0018524149414BEB0B0B4A
:101FB000B2EB080C71EB03077BF1000B24BF624608
:101FC00039464EEB0E0E51EA020718BF46F00106E5
:101FD00016EB0E7655F1000254F1000103D5BDE871
:101FE0008901BDE80088BDE88901BDE80048B6194F
:101FF000524141EB0101A3F10103704780807F7ED4
:102000007D7C7B7A7978777676757473727171706E
:102010006F6E6E6D6C6C6B6A6A6968686766666520
:102020006464636362616160605F5F5E5E5D5D5CAE
:102030005C5B5B5A5A59595858575756565555551F
:102040005454535352525251515050504F4F4F4E7F
:102050004E4D4D4D4C4C4C4B4B4B4A4A4A494949CD
:10206000484848474747474646464545454444440F
:1020700044434343434242424241414146EA0646C9
:10208000A3F570534FEA164646EA42564FEAD2226B
:1020900042EA415210B54FEAD121A3F1010300F009
:1020A0002FF820F0004000F1020C00F0004701EB97
:1020B00000501146BCF5006F40EA070000D210BD89
:1020C000BAF1000F0AD01CB503B44FF004004FF072
:1020D00004014FF000000FBCBDE810404FF00001BC
:1020E000BBF1010FB9BF04484FF0FF310348002195
:1020F00040EA070010BD00BFFFFFEF7F0000F07F48
:10210000002B9C4630D477002BD01CB54FEA370704
:1021100003B44FF010004FF01001BAF1000F06D0D9
:10212000BCF1000FDCBF40F0080040F008014FF0A8
:1021300000000FBCBDE810400BF1010BBBF1010F1B
:1021400008BF5FEA170722BF12F1010211F1010176
:102150004FF0004143F1000300F0004043EA00006B
:102160007047F9D35708D0E746EA064613F1400F07
:102170004FEA16461FDD13F1200FDFBF16430A4654
:10218000002120335B42BED0C3F1200746EA064659
:1021900002FA07F74FEA164646EA0706C3F1200798
:1021A00022FA03F201FA07F721FA03F14FF00003D4
:1021B00042EA0702A7E746EA020646EA06464FEA6F
:1021C000164646EA0106BCBF46EA0646360C4FF004
:1021D00000034FF000024FF0000194E72DE9804C1E
:1021E0009A46934670B491E8380007C831EA400C2B
:1021F00048BF34EA430C03D5FFF7A4FDFFF780FF87
:10220000F0BCBDE8008C2DE9804C9A46934670B432
:1022100091E8380007C831EA400C48BF34EA430C63
:1022200003D5FFF78FFDFFF729FFF0BCBDE8008C59
:102230002DE9804C9A46934670B491E8380007C85F
:1022400010F0804F08BF13F0804F03D100F01AF850
:10225000FFF756FFF0BCBDE8008C2DE9804C9A4694
:10226000934670B491E8380007C810F0804F08BF5B
:1022700013F0804F03D100F005F8FFF7FFFEF0BC2C
:10228000BDE8008C20F07F4780EA030023F07F4CFC
:1022900007EB0C03A3F57C5300F00040A3F1FE0311
:1022A00092F0000F00F0B38095F0000F00F07780FF
:1022B0002DE901494FEA11404FEA144621EA00484E
:1022C00000FB06FC24EA064708FB06F607FB08F8B5
:1022D00000FB07F718EB06484CEB164C4FEA124B85
:1022E00018EB07484FEA15464CEB174022EA0B4E15
:1022F0000BFB06FC25EA06470EFB06F607FB0EFE67
:102300000BFB07F71EEB064E4CEB164C4FF000068E
:102310001EEB074E4CEB174B18EB0B0840F100007F
:1023200018EB0E0B58EB000840F100008F1A4FF02D
:1023300000013CBFC943661B14BFB5EB040C002170
:102340003CBFC943F61B4FEA17444EEA8E0E27EAFC
:1023500004454FEA1C4704FB07622CEA074C05FBC7
:1023600007F70CFB05F604FB0CFC16EB074642EBEB
:10237000174216EB0C4642EB1C421BEB060658EBD1
:102380000202414146EA9E0601D5BDE80189B6191F
:10239000524141EB0101A3F10103BDE801894FEA7C
:1023A00014454FEA114724EA054621EA074C05FB8C
:1023B00007F406FB07F70CFB06F105FB0CFC11EB21
:1023C000074144EB17444FEA124711EB0C4144EB31
:1023D0001C4422EA074C05FB07F206FB07F70CFB3F
:1023E00006F605FB0CFC16EB074642EB174216EB14
:1023F0000C4642EB1C456A1854F1000148BF704777
:10240000B619524141EB0101A3F10103704795F068
:10241000000F37D04FEA11424FEA144721EA024633
:1024200024EA074C02FB07F106FB07F70CFB06F456
:1024300002FB0CFC14EB074441EB17414FEA154734
:1024400014EB0C4441EB1C4125EA074C02FB07F559
:1024500006FB07F70CFB06F602FB0CFC16EB074627
:1024600045EB174516EB0C4645EB1C42121951F192
:10247000000148BF7047B619524141EB0101A3F179
:10248000010370474FEA14454FEA114724EA054615
:1024900021EA074C05FB07F106FB07F70CFB06F2E8
:1024A0004FF0000605FB0CFC12EB074241EB174115
:1024B00012EB0C4251EB1C4148BF7047921841EBA4
:1024C0000101A3F10103704708B54FF47A70009041
:1024D00003E0BDF80000401E0090BDF80000002899
:1024E000F7D108BD2DE9F04188B00121080311F0B2
:1024F000A5F802278DF81D7001268DF81C600024B8
:102500008DF81E4040200690DFF8A08006A94046C6
:1025100005F028FC382506958DF81C708DF81E40B6
:1025200003208DF81D008DF81F6006A9404605F0B8
:1025300019FC05220321404605F052FC0522042126
:10254000404605F04DFC05221146404605F048FC8A
:102550004021404605F05DFCFFF7B6FF40214046B4
:1025600005F055FCADF804404FF48270ADF806005C
:10257000F002ADF80800ADF80A40ADF80C4080104C
:10258000ADF80E00ADF81050ADF812400720ADF8D0
:102590001400074C01A9204613F07BFA01212046C4
:1025A00013F060FA08B0BDE8F081000000040240BA
:1025B0000030014030B589B000250895594C16E02F
:1025C0009DF82010012013F021FA9DF8201024F826
:1025D0001100A0880390E088059060890490A0898C
:1025E0000290E08901909DF82000401C08909DF821
:1025F00020000828E4D3BDF814304B4A1078014677
:10260000401C10704748103020F8113011783C29D8
:1026100018D11570069507950AE09DF81C1030F842
:102620001110069B194406919DF81C10491C079136
:102630009DF81C103C29F0D306983C21B0FBF1F02A
:102640003A490860BDF810305078411C5170410083
:1026500034488830435251781E2918D15570069558
:1026600007950AE09DF81C1030F81110069B1944DC
:1026700006919DF81C10491C07919DF81C101E29FD
:10268000F0D306981E21B0FBF1F029490880BDF86F
:102690000830D078411CD170410026484352D1788F
:1026A0006424642917D1D570069507950AE09DF832
:1026B0001C1030F811300699194406919DF81C1031
:1026C000491C07919DF81C106429F0D306981A49FB
:1026D000B0FBF4F00880BDF80C3090780146401C47
:1026E00090701448C83820F811309178642900D1CE
:1026F0009570069507950AE09DF81C1030F81110AA
:10270000069A114406919DF81C10491C07919DF8EA
:102710001C106429F0D306980849B0FBF4F0086057
:1027200009B030BD0C0C00202D01002064000020F9
:1027300062000020C00D0020680000206C00002016
:1027400011B581B00C4C0221204613F097F90028F6
:10275000F9D0BDF80410204613F099F90121204664
:1027600013F08CF90028F9D0204613F08EF9009070
:10277000BDF800001CBD000000300140F0B59BB06A
:1027800001210D02284610F059FF0121880510F0A3
:102790002BFF4020009003268DF8046000248DF864
:1027A000074069462B4805F0DDFA02942A48039059
:1027B0002A4804900594322006900794A8000890B7
:1027C0004000099080000A900B9500010C900D9438
:1027D00001250E950F941094214F02A9384602F05E
:1027E00013FC0121384602F0E9FB01221021384692
:1027F00002F0F0FB01F07AFF174F01214C3F384601
:1028000000F070F8119412941394149411A800F02D
:1028100055F815948DF858508DF85950189419940E
:102820008DF8686015A9384600F074F8002301227D
:102830000621384600F094F80121384600F032F8BD
:10284000384600F0C7F80121384600F057F81BB0B1
:10285000F0BD0000000002404C2001405009002063
:10286000106402400CB50020009001900B490AE072
:102870009DF8040031F81000009A104400909DF873
:102880000400401C01909DF804003228F0D3009809
:102890003221B0FBF1F0024908800CBD5009002044
:1028A00060000020002904D0816841F001018160AE
:1028B0007047816821F001018160704710B5074CB5
:1028C000226807490A40D0E900131943D0E90230D1
:1028D000034319431143216010BD0000042301404C
:1028E000E030FCFF002904D0816841F480718160F0
:1028F0007047816821F4807181607047002904D09D
:10290000816841F4007181607047816821F4007131
:102910008160704730B542680F4B1A400C790B68E4
:1029200042EA04221343436083680C4A1340D1E90E
:10293000034222434D798C6844EA450422431A43FA
:102940008260C26A22F47002097D491EC9B242EA5D
:102950000151C16230BD0000FFFEFFFCFDF7FFC06A
:1029600070B5072609290AD9C568A1F10A0404EB44
:102970004404A640B543A3401D43C56007E0056974
:1029800001EB4104A640B543A3401D4305611F234D
:10299000072A09D2446B521E02EB820293409C43E9
:1029A00091400C43446370BD0D2A09D2046BD21FC1
:1029B00002EB820293409C4391400C43046370BD40
:1029C000C46A0D3A02EB820293409C4391400C434F
:1029D000C46270BD816841F0804181607047002809
:1029E00000DC404270474178007841EA002070479F
:1029F00010B50C480078400612D40B4C20684107F3
:102A00000ED5020609484FF4007103D4BDE810400A
:102A100005F0FFB905F0FBF9206820F00400206004
:102A200010BD0000440000203C00002000080240CF
:102A30000549086840F00400044B00221A8020F089
:102A400080000860704700003C0000207A000020F1
:102A500038B5456804460146284617F067FB00284C
:102A60002AD02068304A0F2819D006DC0B2824D041
:102A70000C2810D00E2851D12FE0112802D0282880
:102A80004CD145E09268002A16D02146284601B074
:102A9000BDE830401047214628465268F7E72846EF
:102AA00006F0FEF80090406E0468684606F042F9B1
:102AB000002C01D02846A04738BD284606F0F0F883
:102AC0000090683006F054F8009803216C3006F04E
:102AD00057F8684606F02EF920E0E1684868096872
:102AE0000D2902D0202913D105E0002810DD284649
:102AF0001EF094FC06E0002804DD2846BDE83840BE
:102B00001EF08CBC2846BDE8384002211EF09CBC5B
:102B1000E06818B90021284600F075F82046BDE8A5
:102B2000384017F077BF0000AC020020F0B5044633
:102B300085B08069B4F90850668A0027CDE902653E
:102B4000CDE900170490B4F90C00B4F91060C11875
:102B5000B4F90A00B4F90E50104433462A4600F086
:102B600007F80546616800F057F805B02846F0BD43
:102B7000F0B585B00C46DDE90D514C31DFF850C0A1
:102B8000DDE90A67CDE902C12146CDE9006717F00A
:102B900091FE040018D006F083F810222946049014
:102BA00017F0E8FC049830220A493430FDF789FD1B
:102BB000084D04990C3D2868486604A806F0BAF848
:102BC000286841682046884705B02046F0BD0000CF
:102BD000512A0008B8020020032902D2014A42F813
:102BE00021007047B802002038B50D46040009D016
:102BF00006F056F800904565684606F09BF82046BA
:102C000018F0FFF938BD4FF480720029114601D049
:102C100017F016BB17F068BA2DE9FF410E46050004
:102C20004FF001041CD006F03BF80190876E01A81C
:102C3000009706F07FF83146684608F0C5FE78B187
:102C400000980024B84208D0284606F029F80190E0
:102C50000099816601A806F06DF8284618F0D1F9B0
:102C600004B02046BDE8F081FEE700002DE9F05FEA
:102C70007B4C21787B4840F66F0519396F1C8269BF
:102C80006FF0704640F6770840F6780940F6710A12
:102C900040F6790B0C2925D2DFE801F006264564C1
:102CA0002424242483A224C229460546104617F072
:102CB000BFFF80463146404614F0A6F86FF07F41D2
:102CC000404614F0F3F83946A86917F0B1FF0546FD
:102CD0006549284614F098F80021284614F0E6F8D3
:102CE0001A202070BDE8F09F05463946104617F0BF
:102CF0009FFF07463146384614F086F86FF07F4153
:102D0000384614F0D3F84146A86917F091FF0546FC
:102D10005549284614F078F80021284614F0C6F8E2
:102D20001B202070DEE705464146104617F080FF65
:102D300007463146384614F067F86FF07F41384651
:102D400014F0B4F84946A86917F072FF05464649E1
:102D5000284614F059F80021284614F0A7F81C2042
:102D60002070BFE705464946104617F061FF074649
:102D70003146384614F048F86FF07F41384614F079
:102D800095F85146A86917F053FF0546364928467D
:102D900014F03AF80021284614F088F82120207019
:102DA000A0E705465146104617F042FF0746314658
:102DB000384614F029F86FF07F41384614F076F861
:102DC0005946A86917F034FF05462749284614F0EC
:102DD0001BF80021284614F069F82220207081E7B2
:102DE00005465946104617F023FF07463146384638
:102DF00014F00AF86FF07F41384614F057F840F6A7
:102E00007201A86917F014FF05461749284613F008
:102E1000FBFF0021284614F049F82420207061E7C8
:102E2000074640F67201104617F002FF8046314611
:102E3000404613F0E9FF6FF07F41404614F036F84A
:102E40002946B86917F0F4FE05460749284613F0ED
:102E5000DBFF0021284614F029F81920207041E7F3
:102E6000A2010020B4010020FFFFBF00F0B52DED4E
:102E7000028B83B0B0480178B04A00269FEDB00ABB
:102E8000B04C01251929A06938D0DFEDAF0A1A2905
:102E90007ED0AE4A1B297CD01C292BD1217C40F648
:102EA00078031F1D022975D0217C012922D1D188E8
:102EB00000EE101AB8EE400A80EE208A194617F08C
:102EC000B7FEA3A113F0CDFF3946A06917F0B0FEFD
:102ED000054618EE100A28F0CBFE41EC100BA0A11D
:102EE00053EC102B01A8FDF7F5F901A9284613F0C2
:102EF000B8FF267403B0BDEC028BF0BD617B40F6D9
:102F00006F031F1D012927D0617B0229F2D1D2F85E
:102F1000801000EE901AF8EE600A80EE808A194662
:102F200017F086FE90A113F09CFF3946A06917F0B8
:102F30007FFE064618EE100A28F09AFE41EC100BB0
:102F40008DA153EC102B01A8FDF7C4F901A930465F
:102F500013F087FF6573CDE7D16F00EE901AF8EE9E
:102F6000600A80EE808A194617F062FE84A113F091
:102F700078FF3946A06917F05BFE054618EE100A87
:102F800028F076FE41EC100B7BA153EC102B02E0F5
:102F90000AE05CE0ACE001A8FDF79CF901A9284635
:102FA00013F05FFF6673A5E7A17B4FF407631F1D56
:102FB000022927D0A17B01299CD1D2F8881000EEEC
:102FC000101AB8EE400A80EE208A194617F030FE3B
:102FD0006FA113F046FF3946A06917F029FE054698
:102FE00018EE100A28F044FE41EC100B5CA153ECE3
:102FF000102B01A8FDF76EF901A9284613F031FF47
:10300000A67377E7D2F88C1000EE101AB8EE400ADB
:1030100080EE208A194617F00BFE61A113F021FF04
:103020003946A06917F004FE064618EE100A28F08B
:103030001FFE41EC100B4AA153EC102B01A8FDF729
:1030400049F901A9304613F00CFFA57352E7E17B63
:1030500040F677031F1D022926D0E17B0129A2D16A
:10306000118800EE901AF8EE600A80EE808A194608
:1030700017F0DEFD4EA113F0F4FE3946A06917F0FB
:10308000D7FD054618EE100A28F0F2FD41EC100BB2
:1030900039A153EC102B01A8FDF71CF901A9284612
:1030A00013F0DFFEE67325E7518800EE901AF8EE84
:1030B000600A80EE808A194617F0BAFD40A113F02D
:1030C000D0FE3946A06917F0B3FD064618EE100A87
:1030D00028F0CEFD41EC100B27A153EC102B01A8DA
:1030E000FDF7F8F801A9304613F0BBFEE57301E7E0
:1030F000118900EE101AB8EE400A80EE208A1946B7
:1031000017F096FD32A113F0ACFE3946A06917F016
:103110008FFD064618EE100A28F0AAFD41EC100BB0
:103120000FA153EC102B01A8FDF7D4F801A93046EC
:1031300013F097FE2574DDE6A2010020240B002089
:103140000000C842B401002000007A4488860020B4
:10315000E688AAE6ADA2E794B5E6B58131000000A5
:10316000252E336600000000E8BE93E587BAE79499
:10317000B5E58E8B32000000252E3266000000007F
:10318000E8BE93E587BAE794B5E58E8B3100000081
:10319000E99990E588B6E794B5E6B581310000007D
:1031A000E99990E588B6E794B5E6B581320000006C
:1031B000E688AAE6ADA2E794B5E58E8B3100000063
:1031C000E688AAE6ADA2E794B5E58E8B3200000052
:1031D000E688AAE6ADA2E794B5E6B5813200000024
:1031E000F0B52DED028B83B0AF480178AF4A9FED6B
:1031F000B00AB04C01250226A069192938D0DFEDAC
:10320000AE0A1A297ED0AD4A1B297CD01C292BD1AD
:10321000217C40F678031F1D002975D0217C0129EF
:1032200022D1518900EE101AB8EE400A80EE208AB1
:10323000194617F0FDFCA2A113F013FE3946A06950
:1032400017F0F6FC054618EE100A28F011FD41ECC7
:10325000100B9FA153EC102B01A8FDF73BF801A91F
:10326000284613F0FEFD267403B0BDEC028BF0BDC2
:10327000617B40F66F031F1D39B3617B0129F3D1D8
:10328000D2F8841000EE901AF8EE600A80EE808A80
:10329000194617F0CDFC90A113F0E3FD3946A06963
:1032A00017F0C6FC054618EE100A28F0E1FC41ECC8
:1032B000100B8DA153EC102B01A8FDF70BF801A901
:1032C000284613F0CEFD6673CEE7D2F8801000EEEC
:1032D000901AF8EE600A80EE808A194617F0A8FC72
:1032E00083A113F0BEFD3946A06917F0A1FC064684
:1032F00018EE100A28F0BCFC41EC100B7AA153EC3C
:10330000102B02E00AE05BE0AAE001A8FCF7E2FF74
:1033100001A9304613F0A5FD6573A5E7A17B4FF425
:1033200007631F1D39B3A17B01299DD1D2F89010ED
:1033300000EE101AB8EE400A80EE208A194617F007
:1033400077FC6FA113F08DFD3946A06917F070FC72
:10335000054618EE100A28F08BFC41EC100B5CA11E
:1033600053EC102B01A8FCF7B5FF01A9284613F078
:1033700078FDA67378E7D2F88C1000EE101AB8EE3C
:10338000400A80EE208A194617F052FC60A113F023
:1033900068FD3946A06917F04BFC064618EE100A86
:1033A00028F066FC41EC100B49A153EC102B01A84E
:1033B000FCF790FF01A9304613F053FDA57353E7C6
:1033C000E17B40F677031F1D31B3E17B0129A4D1D6
:1033D000918800EE901AF8EE600A80EE808A194615
:1033E00017F026FC4EA113F03CFD3946A06917F0FA
:1033F0001FFC054618EE100A28F03AFC41EC100BB1
:1034000039A153EC102B01A8FCF764FF01A9284651
:1034100013F027FDE67327E7518800EE901AF8EEC7
:10342000600A80EE808A194617F002FC40A113F072
:1034300018FD3946A06917F0FBFB064618EE100A86
:1034400028F016FC41EC100B27A153EC102B01A81F
:10345000FCF740FF01A9304613F003FDE57303E7D5
:10346000118900EE101AB8EE400A80EE208A194643
:1034700017F0DEFB32A113F0F4FC3946A06917F017
:10348000D7FB064618EE100A28F0F2FB41EC100BB1
:103490000FA153EC102B01A8FCF71CFF01A930462B
:1034A00013F0DFFC2574DFE6A2010020240B0020CE
:1034B0000000C842B401002000007A448886002041
:1034C000E688AAE6ADA2E794B5E6B5813300000030
:1034D000252E336600000000E8BE93E587BAE79426
:1034E000B5E58E8B33000000252E3266000000000B
:1034F000E8BE93E587BAE794B5E58E8B320000000D
:10350000E99990E588B6E794B5E6B5813300000007
:10351000E99990E588B6E794B5E6B58132000000F8
:10352000E688AAE6ADA2E794B5E58E8B33000000ED
:10353000E688AAE6ADA2E794B5E58E8B32000000DE
:10354000E688AAE6ADA2E794B5E6B58132000000B0
:103550002DE9F05F7B4C21787B4840F66F056E1CAF
:103560001939F71D82696FF0704B40F6780840F604
:10357000710940F6790A0C2926D2DFE801F0062706
:1035800046652525252584A325C2294605461046DE
:1035900017F04EFB06465946304613F035FC6FF0E7
:1035A0007F41304613F082FC40F67201A86917F0A3
:1035B0003FFB05466549284613F026FC00212846B6
:1035C00013F074FC24202070BDE8F09F31460646BD
:1035D000104617F02DFB07465946384613F014FCE9
:1035E0006FF07F41384613F061FC2946B06917F04F
:1035F0001FFB05465549284613F006FC00212846C6
:1036000013F054FC19202070DEE7054639461046B9
:1036100017F00EFB07465946384613F0F5FB6FF0DE
:103620007F41384613F042FC3146A86917F000FB91
:1036300005464649284613F0E7FB0021284613F0CB
:1036400035FC1A202070BFE705464146104617F0AA
:10365000EFFA06465946304613F0D6FB6FF07F412D
:10366000304613F023FC3946A86917F0E1FA054605
:103670003649284613F0C8FB0021284613F016FCF3
:103680001B202070A0E705464946104617F0D0FAE7
:1036900006465946304613F0B7FB6FF07F4130467F
:1036A00013F004FC4146A86917F0C2FA0546274901
:1036B000284613F0A9FB0021284613F0F7FB1C2035
:1036C000207081E705465146104617F0B1FA0646CC
:1036D0005946304613F098FB6FF07F41304613F0A7
:1036E000E5FB4946A86917F0A3FA0546174928469D
:1036F00013F08AFB0021284613F0D8FB212020700C
:1037000062E7054640F67201104617F091FA064648
:103710005946304613F078FB6FF07F41304613F086
:10372000C5FB5146A86917F083FA054607492846A4
:1037300013F06AFB0021284613F0B8FB222020700A
:1037400042E70000A2010020B4010020FFFFBF00FB
:103750002DE9F04F2DED068B85B0FE48416E00EE51
:10376000101AB8EE400ADFEDFC0AC0EE209A816E16
:1037700000EE101AB8EE400ADFEDF80A80EE209A4B
:10378000C16E006F00EE100AB8EE400ADFEDF20ADB
:1037900080EE20AAF2480178F24E1939DFF8C8937A
:1037A00001254FF064084FF4076B9FEDF08BF14A51
:1037B0000024F14F90694FF6FF7A102939D2DFE8E3
:1037C00001F008B2FEFD3DE1FCFBFAF9F8F7F6F571
:1037D000F4F340F66F01174617F02AFA80466FF0AF
:1037E0007041404613F010FB6FF07F41404613F0EC
:1037F0005DFB40F67301B86917F01AFA0746DF4916
:10380000384613F001FB0021384613F04FFB0494B7
:10381000DB4906E09DF810000C549DF81000401C98
:1038200004909DF810000628F4D3CD491D2008709F
:10383000357005B0BDEC068BBDE8F08F40F6730126
:10384000924617F0F5F983466FF07041584613F031
:10385000DBFA6FF07F41584613F028FB38780028D8
:1038600059D03878B0B1029403943A78C449921C84
:1038700002A8FCF787FF02A821F00EF89FEDC11BFC
:1038800051EC100B53EC112B27F0C8FF27F032FF3F
:10389000B049C867AF48C26F41F638018A4200D9C3
:1038A000C167C16F416041688268B1FBF8F1514363
:1038B000494500D94460406800EE100AF8EE400A1D
:1038C0009FEDA51A80EE810A10EE100A28F0D0F9BB
:1038D00041EC100BADA153EC102B02A8FCF7FAFC45
:1038E00002A9584613F0BDFA40F66F01DAF8180045
:1038F00017F09EF98046A149404613F085FA002151
:10390000404613F0D3FA96491920087035703C7080
:1039100018F00EFB8DE79A48FCF7F0FD6421484350
:103920008C49C867B6E75946154617F081F906462F
:103930006FF07041304613F067FA6FF07F41304608
:1039400013F0B4FA04948E4906E09DF810000C546C
:103950009DF81000401C04909DF810000628F4D338
:1039600040F67401A86917F063F9044683492046BC
:1039700013F04AFA0021204613F098FA78491E20E5
:10398000087056E740F67401924617F051F901901D
:103990006FF07041019813F037FA6FF07F41019892
:1039A00013F084FA38780BE0DCE245E287E19EE030
:1039B000D0E3A7E210E216E3FCE344E34FE166E064
:1039C00000285AD03878A8B1029403943A786C4908
:1039D000D21C02A8FCF7D6FE02A820F05DFF53EC33
:1039E000182B51EC100B27F019FF27F083FE5949D3
:1039F000C1F888005748D0F8882042F210718A42F6
:103A000001D9C0F88810D0F88810816041688268B8
:103A1000B1FBF8F15143494500D98460806800EE5C
:103A2000100AF8EE400A9FED4D1A80EE810A10EE62
:103A3000100A28F01DF941EC100B56A153EC102B85
:103A400002A8FCF747FC02A9019813F00AFA5946AC
:103A5000DAF8180017F0ECF880464849404613F0B1
:103A6000D3F90021404613F021FA3D491A2008708D
:103A700035703C7018F05CFADBE64148FCF73EFD1F
:103A80004FF47A7148433349C1F88800B2E740F6F1
:103A90007701154617F0CCF806466FF070413046B6
:103AA00013F0B2F96FF07F41304613F0FFF9049440
:103AB000334906E09DF810000C549DF81000401C9E
:103AC00004909DF810000628F4D340F67B01A86905
:103AD00017F0AEF804462949204613F095F9002165
:103AE000204613F0E3F91E4925200870A1E640F6B0
:103AF0007B01904617F09CF881466FF07041484674
:103B000013F082F96FF07F41484613F0CFF938780F
:103B1000F0B13878B0B1029403943A781849921C05
:103B200002A8FCF72FFE02A820F0B6FE9FED151BA1
:103B300051EC100B53EC112B27F070FE27F0DAFD3F
:103B4000164908801548028841F638018A4227E064
:103B500034E00000240B00200000C84200007A443A
:103B6000A20100205401002077D4030000000000CF
:103B700000408F40B401002055010020FFFFBF002E
:103B8000980100200000000000005940252E3266F8
:103B900000000000252E336600000000888600200B
:103BA00000D9018098F80F10A1B198F80F100129E1
:103BB0001AD098F80F10022920D028E0FE48FCF710
:103BC0009DFC00EBC00101EB00100AEA8001FB48FC
:103BD0000180B7E700885FED200A00EE100AB8EE1A
:103BE000400AC0EE209A12E040885FED250A00EE00
:103BF000100AB8EE400AC0EE209A08E080885FED17
:103C00002A0A00EE100AB8EE400AC0EE209A19EE19
:103C1000900A28F02DF841EC100B53EC102BAFF26A
:103C2000940102A8FCF756FB02A9484613F019F9C3
:103C300040F67701D8F8180016F0FAFF8046E04900
:103C4000404613F0E1F80021404613F02FF9DD491A
:103C50001B20087035703C7018F06AF9E9E540F6F1
:103C60007801154616F0E4FF06466FF070413046C5
:103C700013F0CAF86FF07F41304613F017F904943F
:103C8000CD4906E09DF810000C549DF81000401C32
:103C900004909DF810000628F4D340F67C01A86932
:103CA00016F0C6FF0446C649204613F0ADF80021C1
:103CB000204613F0FBF8C34926200870B9E540F60A
:103CC0007C01904616F0B4FF81466FF07041484683
:103CD00013F09AF86FF07F41484613F0E7F8387810
:103CE00048B33878A0B1029403943A78B249D21C10
:103CF00002A8FCF747FD02A820F0CEFD53EC182BDC
:103D000051EC100B27F08AFD27F0F4FCAB49C8807A
:103D1000AA48C28842F210718A4200D9C18098F83C
:103D20001010A1B198F8101001291AD098F81010AD
:103D3000022920D028E0A048FCF7E0FB00EB40017E
:103D4000C1EBC0109D490AEAC000C880E0E7C08806
:103D500000EE100AB8EE400A5FED800A80EE209A6D
:103D600012E0008900EE100AB8EE400A5FED850A05
:103D700080EE209A08E0408900EE100AB8EE400A72
:103D80005FED8A0A80EE209A19EE100A27F070FF84
:103D900041EC100B53EC102BAFF2082102A8FCF7FA
:103DA00099FA02A9484613F05CF840F67801D8F871
:103DB000180016F03DFF80468149404613F024F874
:103DC0000021404613F072F87E491C2008703570BF
:103DD0003C7018F0ADF82CE540F67901154616F068
:103DE00027FF06466FF07041304613F00DF86FF074
:103DF0007F41304613F05AF804946F4906E09DF86D
:103E000010000C549DF81000401C04909DF8100008
:103E10000628F4D340F67D01A86916F009FF044690
:103E20006749204612F0F0FF0021204613F03EF8CB
:103E3000644927200870FCE440F67D01924616F0A4
:103E4000F7FE80466FF07041404612F0DDFF6FF0E4
:103E50007F41404613F02AF83878E8B33878A0B1AB
:103E6000029403943A785449D21C02A8FCF78AFCC5
:103E700002A820F011FD53EC182B51EC100B27F089
:103E8000CDFC27F037FC5049C8664F48C06E00EEA5
:103E9000100AF8EE400A1FEDCF1A80EE810A10EEEC
:103EA000100A27F0E5FE41EC100B53EC102BAFF29B
:103EB0001C3102A8FCF70EFA02A9404612F0D1FF0D
:103EC00040F67901DAF8180016F0B2FE80463C4957
:103ED000404612F099FF00E00BE00021404612F04E
:103EE000E5FF38492220087035703C7018F020F842
:103EF0009FE43148FCF702FB4FF47A7148433249A2
:103F0000C866C2E740F67A01154616F091FE0646ED
:103F10006FF07041304612F077FF6FF07F4130460E
:103F200012F0C4FF0494244906E09DF810000C54DC
:103F30009DF81000401C04909DF810000628F4D352
:103F400040F67E01A86916F073FE04461C4920461F
:103F500012F05AFF0021204612F0A8FF194928202C
:103F6000087066E440F67E01904616F061FE8146D8
:103F70006FF07041484612F047FF6FF07F414846AE
:103F800012F094FF1AEE100A27F072FE41EC100BAB
:103F900053EC102BAFF20C4102A8FCF79BF902A9DD
:103FA000484612F05EFF40F67A01D8F8180016F085
:103FB0003FFE8046024909E09801002088860020E3
:103FC000FFFFBF00A2010020240B0020404612F09A
:103FD0001BFF0021404612F069FF9D492320087015
:103FE00035703C7025E440F67101154616F020FE50
:103FF00006466FF07041304612F006FF6FF07F41C9
:10400000304612F053FF0494924906E09DF81000E8
:104010000C549DF81000401C04909DF810000628D8
:10402000F4D340F67501A86916F002FE04468A49E9
:10403000204612F0E9FE0021204612F037FF8449A5
:104040001F20087066E440F67501924616F0F0FDF8
:1040500080466FF07041404612F0D6FE6FF07F410F
:10406000404612F023FF3878E8B33878A8B10294BC
:1040700003943A787749D21C02A8FCF783FB02A884
:1040800020F00AFC53EC182B51EC100B27F0C6FB68
:1040900027F030FB7149C1F89C007048D0F89C10A3
:1040A00047F23052914213D8D0F89C1000EE101A0B
:1040B000F8EE400A9FED6A1A6A496B4A80EE810A5F
:1040C000D1ED000A20EE200A10EE101A914201DD17
:1040D000C0F89C40D0F89C100161006900EE100A05
:1040E000F8EE400A00E02BE09FED5D1A80EE810AB9
:1040F00010EE100A27F0BCFD41EC100B53EC102B16
:10410000AFF2705102A8FCF7E5F802A9404612F0A0
:10411000A8FE40F67101DAF8180016F089FD804615
:104120004D49404612F070FE0021404612F0BEFE9E
:1041300047492120087035703C7017F0F9FE20E4E3
:104140004448FCF7DBF94FF47A7148434349C1F81E
:104150009C00A2E740F67201154616F069FD06467E
:104160006FF07041304612F04FFE6FF07F413046E5
:1041700012F09CFE0494374906E09DF810000C54A0
:104180009DF81000401C04909DF810000628F4D300
:1041900040F67601A86916F04BFD04462E492046EC
:1041A00012F032FE0021204612F080FE2849202025
:1041B000087061E4FFE740F67601904616F038FD9E
:1041C00081466FF07041484612F01EFE6FF07F414D
:1041D000484612F06BFE387890B3387878B1029484
:1041E00003943A781B4902A8FCF7CCFA02A820F005
:1041F00053FB51EC100B27F07DFA88F8000098F87B
:1042000000201AA102A8FCF765F802A9484612F09E
:1042100028FE40F67201D8F8180016F009FD804615
:104220000D49404612F0F0FD0021404612F03EFEDE
:1042300007492420087035703C7017F079FE1BE4A4
:10424000FFE70448FCF75AF988F80000D7E70000B8
:10425000A201002098010020FFFFBF00240B0020D6
:1042600000007A4424000020000048432533640005
:1042700070B5174C61792046164D806940F6990259
:10428000012912D0A17B01291DD0114616F0D0FCC6
:1042900006466FF07041304612F0B6FD29463046B2
:1042A00012F004FE2F20207070BD114616F0C0FCE5
:1042B00004462946204612F0A7FD2046BDE870407E
:1042C000002112F0F3BDBDE8704000F061B90000BC
:1042D000F4010020FFFFBF002DE9FF4704460068FE
:1042E00010B117F0C7FB68B10022314850F8221016
:1042F00060680A2841D007DCF0B306280DD00728F3
:1043000054D106E00122F0E712280AD019284DD135
:1043100037E0204618F082FF48E020461AF00CF9FA
:1043200044E0206804F0BCFC0290B0F9548090F89E
:104330005650476C466B02A804F0FCFC206800F065
:1043400039F88146684616F04BFCBDF8001009EBC1
:1043500005000844ADF80000246A304606F0C2F8B3
:10436000022006F0FFF8384606F0B2F842466946E9
:10437000204605F069F819E007E020461AF0C8FB6E
:1043800014E0886904B0BDE8F087206817F036F8BB
:10439000206804F085FC0390B0F90610B0F9022003
:1043A000891A491CC16703A804F0C4FC0020E9E78E
:1043B000A864040838B504F073FC0090C46F684624
:1043C00004F0B8FC204638BD044A03491160044992
:1043D000CA69C86110467047E8020020B006002094
:1043E000B406002000B589B024216846FCF7A3F983
:1043F0001920019003480068806841686846884732
:1044000009B000BDB006002070B5FF22FF23084DA3
:1044100005F5807605E010F8014B54402A5D5A40BE
:10442000335D491E89B2F6D243EA022070BD000016
:104430006CBE020810B50A4A0A4C4FF4006100280D
:1044400007D0012804D1104603F0E3FC0120A0703E
:1044500010BD104603F0DBFC0020A07010BD000072
:1044600000000240380100201CB5084906200870F1
:1044700016F0D2FB0346002000900190044A01216F
:10448000044804F005FE044948601CBD56010020A4
:10449000CD8C0208FCD10208EC0100207CB52D4C2B
:1044A000207800280FD0207802280CD04FF400414B
:1044B000294803F0AEFC0221284803F0A8FC4FF481
:1044C000FA7000F045FE0220207025490870254949
:1044D000112008702448D0F898104160D0F8981046
:1044E000142201EB810102EB4101C160D0F8A01060
:1044F00081601E481F4D90ED050AF8EEC00A9FED41
:104500001C0A80EE801A85ED021AD0ED040A1A48C2
:10451000F8EEE00A80EE801A80ED001A17480024B9
:1045200004701749032008707021682013F06DFC97
:104530004FF48051134803F06AFC16F06DFB0346FC
:104540000094114A13211148019404F0A1FD686000
:104550007CBD00005601002000000240000802401F
:1045600081000020A2010020240B0020948600205E
:1045700000007A4448010020AC01002080000020A7
:104580009F010020000C0240C54C02087CC00208BC
:104590001CB516F041FB002403460094064A07218F
:1045A0000648019404F074FD0549486005490C7003
:1045B000054A082111701CBD41930208DCC00308A4
:1045C0001C02002080000020560100201CB516F0BF
:1045D00023FB002403460094074A12210748019454
:1045E00004F056FD06498861064A1470064B0722FE
:1045F0001A702F220A701CBD4D8D0208E4BE0308FC
:10460000F401002080000020560100201CB502208B
:104610008DF8050001208DF8040000208DF80600BB
:104620001C2000906946024803F09CFB1CBD000062
:104630000010024031B582B02B4D0421284603F012
:10464000E6FB0821284603F0E4FB00BF00BF00BFE3
:1046500000BF0421284603F0DCFB00BF08212846E8
:1046600003F0D7FB0421284603F0D1FB0021019180
:104670004FF6FF7429E09DF80410072912D9BDF800
:104680000810080404D51021284603F0C2FB03E0FB
:104690001021284603F0BBFBBDF8081004EA4100D6
:1046A000029003E01021284603F0B1FB08212846C0
:1046B00003F0ADFB00BF00BF00BF0821284603F098
:1046C000A8FB9DF80410491C01919DF804001828CE
:1046D000D1D30421284603F09CFB03B02846BDE853
:1046E0003040082103F095BB0010024008B5382087
:1046F0008DF8000003208DF801008DF802000120E4
:104700008DF8030068460BF037FC08BD70B5644DAA
:10471000A97928460024406A05F14406462970D04C
:104720001EDC15293BD0162952D040297ED140F6F7
:10473000051116F07DFA2978012906D92978491E34
:1047400029702978314401F8014C29786A7891421E
:1047500000D16C70BDE870405149443112F081BB0A
:104760004D2967D04E297CD04F295FD140F63411B6
:1047700016F05EFA2978012906D92978491E297090
:104780002978314401F8014C29786A78914200D1A6
:104790006C70BDE870404249443112F062BB40F693
:1047A0006B0116F045FA2978012906D92978491EA6
:1047B00029702978314401F8014C29786A789142AE
:1047C00000D16C70BDE870403549443112F049BBEE
:1047D00040F66C0116F02CFA2978012906D92978BF
:1047E000491E29702978314401F8014C29786A78EA
:1047F000914200D16C70BDE870402949443112F0FB
:1048000030BB40F60E1116F013FA2978012906D9AB
:104810002978491E29702978314401F8014C2978FA
:104820006A78914200D16C701D4900E037E0443154
:1048300012F017FB40F63211686A16F0F9F9297880
:10484000012906D92978491E29702978314401F8AF
:10485000014C29786A78914200D16C70104944313A
:1048600000E003E0BDE8704012F0FBBA40F63311FF
:1048700016F0DEF92978012906D92978491E297010
:104880002978314401F8014C29786A78914200D1A5
:104890006C70BDE870400249443112F0E2BA70BD5C
:1048A000540100202DE9F0416B4801786B481D3917
:1048B0006B4F806900246B4D6B4E0C297ED2DFE874
:1048C00001F0061E364EC8C8C8C8668098B040F6CB
:1048D000730116F0ADF92978012906D92978491E06
:1048E00029702978394401F8014C297832789142AD
:1048F00000D13470BDE8F041594912F0B2BA40F627
:10490000740116F095F92978012906D92978491EEC
:1049100029702978394401F8014C2978327891427C
:1049200000D13470BDE8F0414D4912F09ABA40F61A
:10493000750116F07DF92978012906D92978491ED3
:1049400029702978394401F8014C2978327891424C
:1049500000D13470BDE8F041414912F082BA40F60E
:10496000760116F065F92978012906D92978491EBA
:1049700029702978394401F8014C2978327891421C
:1049800000D13470BDE8F041354912F06ABA40F602
:104990007B0116F04DF92978012906D92978491E9D
:1049A00029702978394401F8014C297832789142EC
:1049B00000D13470BDE8F041294900E049E012F02F
:1049C00050BA40F67C0116F033F92978012906D94E
:1049D0002978491E29702978394401F8014C297831
:1049E0003278914200D13470BDE8F0411C4912F098
:1049F00038BA40F67D0116F01BF92978012906D94D
:104A00002978491E29702978394401F8014C297800
:104A10003278914200D13470BDE8F041104912F073
:104A200020BA40F67E0116F003F92978012906D94B
:104A30002978491E29702978394401F8014C2978D0
:104A40003278914200D13470BDE8F041044912F04F
:104A500008BABDE8F0810000A2010020B4010020E6
:104A60009801002054010020550100202DE9F0415B
:104A70002B4801782B482C4F002440682B4D2C4E9E
:104A800018291BD0432931D0562947D140F62D1182
:104A900016F0CEF82978012906D92978491E2970FF
:104AA0002978394401F8014C29783278914200D1B3
:104AB0003470BDE8F0411C4912F0D3B940F66E01E4
:104AC00016F0B6F82978012906D92978491E2970E7
:104AD0002978394401F8014C29783278914200D183
:104AE0003470BDE8F041104912F0BBB940F6111125
:104AF00016F09EF82978012906D92978491E2970CF
:104B00002978394401F8014C29783278914200D152
:104B10003470BDE8F041044912F0A3B9BDE8F0815A
:104B2000A2010020A40100209801002054010020CF
:104B3000550100202DE9F0418D4800788D4A8E4FB7
:104B400000248E4D8E4E10287ED008DCA0F10B0084
:104B500005287AD2DFE800F0243D8CA5BE0051285C
:104B600050D0522867D0532870D054286DD140F6C9
:104B70003811506816F05CF82978012906D929788F
:104B8000491E29702978394401F8014C2978327876
:104B9000914200D13470BDE8F041774912F061B91B
:104BA0004FF40661506816F043F82978012906D9B8
:104BB0002978491E29702978394401F8014C29784F
:104BC0003278914200D13470BDE8F0416A4912F068
:104BD00048B940F66101506816F02AF82978012991
:104BE00006D92978491E29702978394401F8014CE1
:104BF00029783278914200D13470BDE8F0415E49A5
:104C000012F02FB940F63511506816F011F82978D6
:104C1000012906D92978491E29702978394401F8D3
:104C2000014C29783278914200D13470BDE8F041CE
:104C3000514912F016B940F63611506815F0F8FFD8
:104C4000297801290AD902E05DE08EE074E0297834
:104C5000491E29702978394401F8014C29783278A5
:104C6000914200D13470BDE8F041434912F0F9B8E7
:104C700040F66201506815F0DBFF2978012906D95A
:104C80002978491E29702978394401F8014C29787E
:104C90003278914200D13470BDE8F041364912F0CB
:104CA000E0B840F66301506815F0C2FF2978012989
:104CB00006D92978491E29702978394401F8014C10
:104CC00029783278914200D13470BDE8F0412A4908
:104CD00012F0C7B840F66401506815F0A9FF2978B2
:104CE000012906D92978491E29702978394401F803
:104CF000014C29783278914200D13470BDE8F041FE
:104D00001D4912F0AEB840F66501506815F090FFED
:104D10002978012906D92978491E2970297839442A
:104D200001F8014C29783278914200D13470BDE805
:104D3000F041114912F095B840F63711506815F05E
:104D400077FF2978012906D92978491E2970297801
:104D5000394401F8014C29783278914200D13470FD
:104D6000BDE8F041044912F07CB8BDE8F0810000D4
:104D7000A2010020E401002098010020540100203D
:104D8000550100202DE9F0412C4800782C4A2D4F88
:104D900000242D4D2D4E11281CD0122833D0582818
:104DA0004AD140F62E11506815F042FF29780129AA
:104DB00006D92978491E29702978394401F8014C0F
:104DC00029783278914200D13470BDE8F0411D4914
:104DD00012F047B840F66601506815F029FF2978AF
:104DE000012906D92978491E29702978394401F802
:104DF000014C29783278914200D13470BDE8F041FD
:104E0000104912F02EB840F66701506815F010FFF7
:104E10002978012906D92978491E29702978394429
:104E200001F8014C29783278914200D13470BDE804
:104E3000F041044912F015B8BDE8F081A20100204C
:104E40004801002098010020540100205501002055
:104E50000148006870470000340300202DE9F0414C
:104E6000404D40F66601686815F0E2FE3E4C217840
:104E70004FF47F066FF07047112951D0394611F079
:104E8000C3FF40F66701686815F0D2FE2178122949
:104E90004AD0394611F0B8FF40F62E11686815F077
:104EA000C7FE2178582943D0394611F0ADFF40F6AE
:104EB0003A11686815F0BCFE217859293CD0394672
:104EC00011F0A2FF40F60201686815F0B1FE2178EA
:104ED000112935D00021FDF796FE40F603016868E0
:104EE00015F0A6FE217812292ED00021FDF78BFEA9
:104EF00040F60401686815F09BFE2178582927D0F8
:104F00000021FDF780FE40F60501686815F090FE6F
:104F10002178592920D0BDE8F0410021FDF773BE6A
:104F2000314611F071FFACE7314611F06DFFB3E788
:104F3000314611F069FFBAE7314611F065FFC1E76C
:104F40000121FDF760FEC8E70121FDF75CFECFE718
:104F50000121FDF758FED6E7BDE8F0410121FDF73C
:104F600052BE000048010020A201002010B50549F2
:104F7000054800F00DF80548016841F002010160A4
:104F800010BD000020800010106402403C00002092
:104F9000074A904201D2074801E005481038064A06
:104FA0008B0001EA020101D5C16070478160704742
:104FB00010640240006002407D0F7D0F002904D084
:104FC000016841F0010101607047016821F00101B1
:104FD000016070470B0609D522B1436943F0800395
:104FE000436103E0436923F080034361802905D0D6
:104FF00001F01E011AB102680A430260704702689C
:105000008A4302607047000030B50368124A1340BB
:10501000CC680A682243D1E905452C432243CC6978
:1050200022430C6A22434C6A22438C6A22434C6B13
:1050300022438C6B22431A430260426922F0070329
:10504000D1E90B2422431A4342610A6942604A684B
:1050500082608968C16030BD3F801CF0F8B50546AC
:10506000006803F01DFE0090448ED0F8886068460A
:1050700003F060FE06B1012604F00104286816F072
:10508000F9FC0EB1002006E00CB1012003E008B1EC
:10509000022000E003201B4951F82010686858B333
:1050A00002280CD0052802D0122828D103E0284677
:1050B00018F0E0F823E028461AF0BFF91FE06A690B
:1050C000E8694FF0FF33801AA0F1080203EB620495
:1050D000421CAB69001B4510A3EB6206C86905F0D2
:1050E000F7F906E03219311B284604F07BFB641EF9
:1050F0006D1C002CF6DA02E0286816F07FF900201B
:10510000F8BD000008650408044A03491160044919
:105110000A6B08631046704738030020F006002031
:10512000F406002038B50D46002403F0B9FD0090C8
:10513000C06B294603F096FE0546684603F0FAFD6B
:105140001DB1284603F0ACFD0446204638BD70472B
:1051500011B54FF47A7402E0204600F006F8BDF86D
:1051600000104A1E0092F7D218BD01B582B000208F
:105170000190042110E0009100BF00BF00BF00BFFC
:1051800000BFBDF80000401E0004000C0090F3D1E9
:10519000BDF80400401C0190BDF80400BDF80820D3
:1051A0009042E8D30EBD000010B52DED028B2049D2
:1051B0000A78204CB2EE048A022AE0681ED00978F0
:1051C000032918D11C4991ED000A20EE080ABDEE12
:1051D000C00A10EE101A09B202F0F2FE174890ED64
:1051E000000A20EE080ABDEEC00A10EE100A01B255
:1051F000206902F0E5FEBDEC028B10BD104991ED77
:10520000000A20EE080ABDEEC00A10EE101A09B21C
:1052100002F0D6FE0B4890ED000A20EE080ABDEE23
:10522000C00A10EE100A01B2206902F0C9FEE2E7DE
:105230009F010020D0010020280000203000002025
:10524000240000202C0000201CB51048C079012843
:105250001AD1FF2005F03CF9022005F071F9B420C5
:105260000021CDE90010032306220C214FF4C37066
:1052700004F094F902B00C23BDE8104040F27F1214
:105280000421034804F010BB1CBD00008000002076
:105290006CC0020831B525F0CBF9A02025F090F9BB
:1052A00025F0F6F970B99DF8000025F089F925F090
:1052B000EFF938B925F0BCF9A12025F081F925F0E6
:1052C000E7F918B125F0D0F9002038BD25F04CF9E8
:1052D000034C207025F030F925F0C6F9207838BD50
:1052E0007800002070B50120FFF7D4FFFE4C20604D
:1052F0000120FFF7CFFF206020680002206002201D
:10530000FFF7C8FF21680844206020680002206081
:105310000320FFF7BFFF21680844206020680002D7
:1053200020600420FFF7B6FF2168084420600520B4
:10533000FFF7B0FFED4D28602868000228600620C6
:10534000FFF7A8FF29680844286028680002286041
:105350000720FFF79FFF296808442860286800029B
:1053600028600820FFF796FF296808442860C020BD
:10537000FFF790FF6063606B00026063C120FFF77E
:1053800089FF616B08446063606B00026063C22048
:10539000FFF780FF616B08446063606B000260632D
:1053A000C320FFF777FF616B08446063C420FFF7F9
:1053B00071FF6863686B00026863C520FFF76AFFCE
:1053C000696B08446863686B00026863C620FFF776
:1053D00061FF696B08446863686B00026863C720FB
:1053E000FFF758FF696B08446863C820FFF752FF56
:1053F000A063A06B0002A063C920FFF74BFFA16B65
:105400000844A063A06B0002A063CA20FFF742FF1C
:10541000A16B0844A063A06B0002A063CB20FFF740
:1054200039FFA16B0844A063CC20FFF733FFA863CA
:10543000A86B0002A863CD20FFF72CFFA96B0844DE
:10544000A863A86B0002A863CE20FFF723FFA96B17
:105450000844A863A86B0002A863CF20FFF71AFFD7
:10546000A96B0844A8630920FFF714FF6060606817
:10547000000260600A20FFF70DFF61680844606069
:105480006068000260600B20FFF704FF6168084459
:1054900060606068000260600C20FFF7FBFE6168DE
:1054A000084460600D20FFF7F5FE68606868000240
:1054B00068600E20FFF7EEFE69680844686068685F
:1054C000000268600F20FFF7E5FE69680844686025
:1054D0006868000268601020FFF7DCFE6968084415
:1054E00068601120FFF7D6FEA060A0680002A060EF
:1054F0001220FFF7CFFEA1680844A060A068000258
:10550000A0601320FFF7C6FEA1680844A060A06851
:105510000002A0601420FFF7BDFEA1680844A0604F
:105520001520FFF7B7FEA860A8680002A860162043
:10553000FFF7B0FEA9680844A860A8680002A86048
:105540001720FFF7A7FEA9680844A860A868000212
:10555000A8601820FFF79EFEA9680844A8601920DB
:10556000FFF798FEE060E0680002E0601A20FFF7B5
:1055700091FEE1680844E060E0680002E0601B2002
:10558000FFF788FEE1680844E060E0680002E06040
:105590001C20FFF77FFEE1680844E0601D20FFF754
:1055A00079FEE860E8680002E8601E20FFF772FEFE
:1055B000E9680844E860E8680002E8601F20FFF737
:1055C00069FEE9680844E860E8680002E8602020B5
:1055D000FFF760FEE9680844E8602120FFF75AFE03
:1055E00020612069000220612220FFF753FE21691B
:1055F000084420612069000220612320FFF74AFE51
:105600002169084420612069000220612420FFF7FD
:1056100041FE2169084420612520FFF73BFE2861F7
:105620002869000228612620FFF734FE2969084412
:1056300028612869000228612720FFF72BFE2969CD
:10564000084428612869000228612820FFF722FE0B
:105650002969084428612920FFF71CFE6061606900
:10566000000260612A20FFF715FE6169084460614D
:105670006069000260612B20FFF70CFE616908443D
:1056800060616069000260612C20FFF703FE6169C0
:10569000084460612D20FFF7FDFD68616869000224
:1056A00068612E20FFF7F6FD696908446861686942
:1056B000000268612F20FFF7EDFD69690844686109
:1056C0006869000268613020FFF7E4FD69690844F9
:1056D0006861AB20FFF7DEFDE062E06A0002E06295
:1056E000AC20FFF7D7FD03E07C0A0020D00A0020A1
:1056F000E16A0844E062E06A0002E062AD20FFF780
:10570000C9FDE16A0844E062E06A0002E062AE209E
:10571000FFF7C0FDE16A0844E062AF20FFF7BAFD81
:10572000E862E86A0002E862B020FFF7B3FDE96AC8
:105730000844E862E86A0002E862B120FFF7AAFDC7
:10574000E96A0844E862E86A0002E862B220FFF70A
:10575000A1FDE96A0844E862B720FFF79BFD2063DA
:10576000206B00022063B820FFF794FD216B0844F2
:105770002063206B00022063B920FFF78BFD216BB3
:1057800008442063206B00022063BA20FFF782FDEB
:10579000216B08442063BB20FFF77CFD2863286B46
:1057A00000022863BC20FFF775FD296B08442863BD
:1057B000286B00022863BD20FFF76CFD296B0844AD
:1057C0002863286B00022863BE20FFF763FD296B66
:1057D000084428633120FFF75DFDA061A069000245
:1057E000A0613220FFF756FDA1690844A061A069BD
:1057F0000002A0613320FFF74DFDA1690844A061BC
:10580000A0690002A0613420FFF744FDA1690844AB
:10581000A0613520FFF73EFDA861A8690002A861DC
:105820003620FFF737FDA9690844A861A86900027E
:10583000A8613720FFF72EFDA9690844A861A8696F
:105840000002A8613820FFF725FDA9690844A86176
:105850003920FFF71FFDE061E0690002E0613A20B6
:10586000FFF718FDE1690844E061E0690002E061CA
:105870003B20FFF70FFDE1690844E061E0690002A9
:10588000E0613C20FFF706FDE1690844E0613D204E
:10589000FFF700FDE861E8690002E8613E20FFF7DC
:1058A000F9FCE9690844E861E8690002E8613F2021
:1058B000FFF7F0FCE9690844E861E8690002E86183
:1058C0004020FFF7E7FCE9690844E8614120FFF761
:1058D000E1FC2062206A000220624220FFF7DAFC2D
:1058E000216A08442062206A000220624320FFF7F8
:1058F000D1FC216A08442062206A00022062442010
:10590000FFF7C8FC216A084420624520FFF7C2FC6B
:105910002862286A000228624620FFF7BBFC296A39
:1059200008442862286A000228624720FFF7B2FC78
:10593000296A08442862286A000228624820FFF782
:10594000A9FC296A08442862D020FFF7A3FCE06381
:10595000E06B0002E063D120FFF79CFCE16B0844A0
:10596000E063E06B0002E063D220FFF793FCE16BA1
:105970000844E063E06B0002E063D320FFF78AFC99
:10598000E16B0844E063D420FFF784FCE863E86B34
:105990000002E863D520FFF77DFCE96B0844E8636B
:1059A000E86B0002E863D620FFF774FCE96B08445B
:1059B000E863E86B0002E863D720FFF76BFCE96B54
:1059C0000844E863D820FFF765FC2064206C0002DF
:1059D0002064D920FFF75EFC216C08442064206C11
:1059E00000022064DA20FFF755FC216C0844206493
:1059F000206C00022064DB20FFF74CFC216C084483
:105A00002064DC20FFF746FC2864286C0002286430
:105A1000DD20FFF73FFC296C08442864286C000255
:105A20002864DE20FFF736FC296C08442864286CC3
:105A300000022864DF20FFF72DFC296C084428644D
:105A40004920FFF727FC6062606A000260624A201A
:105A5000FFF720FC616A08446062606A00026062CD
:105A60004B20FFF717FC616A08446062606A00021D
:105A700060624C20FFF70EFC616A084460624D20B2
:105A8000FFF708FC6862686A000268624E20FFF750
:105A900001FC696A08446862686A000268624F2013
:105AA000FFF7F8FB696A08446862686A0002686286
:105AB0005020FFF7EFFB696A08446862E020FFF7B7
:105AC000E9FBE064E06C0002E064E120FFF7E2FB48
:105AD000E16C0844E064E06C0002E064E220FFF75F
